{
  "address": "0xFF2A4e838589dDdD6e5990Ef47C37012FDB9c6B4",
  "abi": [
    {
      "inputs": [],
      "stateMutability": "nonpayable",
      "type": "constructor"
    },
    {
      "anonymous": false,
      "inputs": [
        {
          "indexed": true,
          "internalType": "address",
          "name": "psionicFarm",
          "type": "address"
        }
      ],
      "name": "NewPsionicFarmContract",
      "type": "event"
    },
    {
      "anonymous": false,
      "inputs": [
        {
          "indexed": true,
          "internalType": "address",
          "name": "previousOwner",
          "type": "address"
        },
        {
          "indexed": true,
          "internalType": "address",
          "name": "newOwner",
          "type": "address"
        }
      ],
      "name": "OwnershipTransferred",
      "type": "event"
    },
    {
      "inputs": [
        {
          "internalType": "contract IERC20Metadata",
          "name": "_stakedToken",
          "type": "address"
        },
        {
          "internalType": "contract IERC20Metadata",
          "name": "_rewardToken",
          "type": "address"
        },
        {
          "internalType": "uint256",
          "name": "_rewardPerBlock",
          "type": "uint256"
        },
        {
          "internalType": "uint256",
          "name": "_startBlock",
          "type": "uint256"
        },
        {
          "internalType": "uint256",
          "name": "_bonusEndBlock",
          "type": "uint256"
        },
        {
          "internalType": "uint256",
          "name": "_poolLimitPerUser",
          "type": "uint256"
        },
        {
          "internalType": "uint256",
          "name": "_numberBlocksForUserLimit",
          "type": "uint256"
        },
        {
          "internalType": "address",
          "name": "_admin",
          "type": "address"
        }
      ],
      "name": "deployPool",
      "outputs": [
        {
          "internalType": "address",
          "name": "psionicFarmAddress",
          "type": "address"
        }
      ],
      "stateMutability": "nonpayable",
      "type": "function"
    },
    {
      "inputs": [],
      "name": "owner",
      "outputs": [
        {
          "internalType": "address",
          "name": "",
          "type": "address"
        }
      ],
      "stateMutability": "view",
      "type": "function"
    },
    {
      "inputs": [],
      "name": "renounceOwnership",
      "outputs": [],
      "stateMutability": "nonpayable",
      "type": "function"
    },
    {
      "inputs": [
        {
          "internalType": "address",
          "name": "newOwner",
          "type": "address"
        }
      ],
      "name": "transferOwnership",
      "outputs": [],
      "stateMutability": "nonpayable",
      "type": "function"
    }
  ],
  "transactionHash": "0xb786629daac245e3bc93a0f0f131b417cf7755e5f447d140f5295661fb94c6a1",
  "args": [],
  "numDeployments": 1,
  "solcInputHash": "e855522113b5cc8ed98a139b20544134",
  "bytecode": "0x608060405234801561001057600080fd5b5061001a3361001f565b61006f565b600080546001600160a01b038381166001600160a01b0319831681178455604051919092169283917f8be0079c531659141344cd1fd0a4f28419497f9722a3daafe3b4186f6b6457e09190a35050565b612cab8061007e6000396000f3fe608060405234801561001057600080fd5b506004361061004c5760003560e01c8063715018a6146100515780638da5cb5b1461005b578063bbc22f501461009e578063f2fde38b146100b1575b600080fd5b6100596100c4565b005b60005473ffffffffffffffffffffffffffffffffffffffff165b60405173ffffffffffffffffffffffffffffffffffffffff909116815260200160405180910390f35b6100756100ac36600461070e565b610156565b6100596100bf3660046106eb565b610539565b60005473ffffffffffffffffffffffffffffffffffffffff16331461014a576040517f08c379a000000000000000000000000000000000000000000000000000000000815260206004820181905260248201527f4f776e61626c653a2063616c6c6572206973206e6f7420746865206f776e657260448201526064015b60405180910390fd5b6101546000610669565b565b6000805473ffffffffffffffffffffffffffffffffffffffff1633146101d8576040517f08c379a000000000000000000000000000000000000000000000000000000000815260206004820181905260248201527f4f776e61626c653a2063616c6c6572206973206e6f7420746865206f776e65726044820152606401610141565b60008973ffffffffffffffffffffffffffffffffffffffff166318160ddd6040518163ffffffff1660e01b815260040160206040518083038186803b15801561022057600080fd5b505afa158015610234573d6000803e3d6000fd5b505050506040513d601f19601f820116820180604052508101906102589190610789565b101561026357600080fd5b60008873ffffffffffffffffffffffffffffffffffffffff166318160ddd6040518163ffffffff1660e01b815260040160206040518083038186803b1580156102ab57600080fd5b505afa1580156102bf573d6000803e3d6000fd5b505050506040513d601f19601f820116820180604052508101906102e39190610789565b10156102ee57600080fd5b8773ffffffffffffffffffffffffffffffffffffffff168973ffffffffffffffffffffffffffffffffffffffff161415610384576040517f08c379a000000000000000000000000000000000000000000000000000000000815260206004820152601b60248201527f546f6b656e73206d75737420626520626520646966666572656e7400000000006044820152606401610141565b600060405180602001610396906106de565b7fffffffffffffffffffffffffffffffffffffffffffffffffffffffffffffffe082820381018352601f9091011660408190527fffffffffffffffffffffffffffffffffffffffff00000000000000000000000060608d811b821660208401528c901b16603482015260488101899052909150600090606801604051602081830303815290604052805190602001209050808251602084016000f56040517f2aa2c38100000000000000000000000000000000000000000000000000000000815273ffffffffffffffffffffffffffffffffffffffff8d811660048301528c81166024830152604482018c9052606482018b9052608482018a905260a4820189905260c4820188905286811660e483015291945090841690632aa2c3819061010401600060405180830381600087803b1580156104d257600080fd5b505af11580156104e6573d6000803e3d6000fd5b505060405173ffffffffffffffffffffffffffffffffffffffff861692507f8d36e1fbd68da6ea8f439d93c71f840293ec6442e3ae4c6ee5689bb33ba70e369150600090a2505098975050505050505050565b60005473ffffffffffffffffffffffffffffffffffffffff1633146105ba576040517f08c379a000000000000000000000000000000000000000000000000000000000815260206004820181905260248201527f4f776e61626c653a2063616c6c6572206973206e6f7420746865206f776e65726044820152606401610141565b73ffffffffffffffffffffffffffffffffffffffff811661065d576040517f08c379a000000000000000000000000000000000000000000000000000000000815260206004820152602660248201527f4f776e61626c653a206e6577206f776e657220697320746865207a65726f206160448201527f64647265737300000000000000000000000000000000000000000000000000006064820152608401610141565b61066681610669565b50565b6000805473ffffffffffffffffffffffffffffffffffffffff8381167fffffffffffffffffffffffff0000000000000000000000000000000000000000831681178455604051919092169283917f8be0079c531659141344cd1fd0a4f28419497f9722a3daafe3b4186f6b6457e09190a35050565b6124b2806107c483390190565b6000602082840312156106fc578081fd5b8135610707816107a1565b9392505050565b600080600080600080600080610100898b03121561072a578384fd5b8835610735816107a1565b97506020890135610745816107a1565b965060408901359550606089013594506080890135935060a0890135925060c0890135915060e0890135610778816107a1565b809150509295985092959890939650565b60006020828403121561079a578081fd5b5051919050565b73ffffffffffffffffffffffffffffffffffffffff8116811461066657600080fdfe60a060405234801561001057600080fd5b5061001a3361002a565b600180553360601b60805261007a565b600080546001600160a01b038381166001600160a01b0319831681178455604051919092169283917f8be0079c531659141344cd1fd0a4f28419497f9722a3daafe3b4186f6b6457e09190a35050565b60805160601c61241361009f600039600081816102c001526105da01526124136000f3fe608060405234801561001057600080fd5b50600436106101cf5760003560e01c80638ae39cac11610104578063a9f8d181116100a2578063db2e21bc11610071578063db2e21bc146103d6578063f2fde38b146103de578063f40f0f52146103f1578063f7c618c11461040457600080fd5b8063a9f8d18114610391578063b6b55f251461039a578063cc7a262e146103ad578063ccd34cd5146103cd57600080fd5b806392e8990e116100de57806392e8990e146103505780639513997f146103585780639be65a601461036b578063a0b409051461037e57600080fd5b80638ae39cac146103205780638da5cb5b146103295780638f6629151461034757600080fd5b806348cd4cb1116101715780636d0e002c1161014b5780636d0e002c146102bb578063715018a61461030757806380dc06721461030f5780638ad1071b1461031757600080fd5b806348cd4cb11461029c5780634a7c01ec146102a557806366fe9f8a146102b257600080fd5b80632aa2c381116101ad5780632aa2c381146102415780632e1a7d4d146102545780633279beab14610267578063392e53cd1461027a57600080fd5b806301f8a976146101d45780631959a002146101e95780631aed65531461022a575b600080fd5b6101e76101e23660046120a7565b610424565b005b6102106101f7366004611fc9565b600d602052600090815260409020805460019091015482565b604080519283526020830191909152015b60405180910390f35b61023360045481565b604051908152602001610221565b6101e761024f36600461202c565b610550565b6101e76102623660046120a7565b610872565b6101e76102753660046120a7565b610a5a565b60025461028c90610100900460ff1681565b6040519015158152602001610221565b61023360055481565b60025461028c9060ff1681565b61023360075481565b6102e27f000000000000000000000000000000000000000000000000000000000000000081565b60405173ffffffffffffffffffffffffffffffffffffffff9091168152602001610221565b6101e7610b02565b6101e7610b8f565b61023360085481565b61023360095481565b60005473ffffffffffffffffffffffffffffffffffffffff166102e2565b61023360035481565b61028c610c16565b6101e76103663660046120d7565b610c4b565b6101e7610379366004611fc9565b610ea2565b6101e761038c366004612001565b61121d565b61023360065481565b6101e76103a83660046120a7565b6113ea565b600c546102e29073ffffffffffffffffffffffffffffffffffffffff1681565b610233600a5481565b6101e7611629565b6101e76103ec366004611fc9565b611717565b6102336103ff366004611fc9565b611844565b600b546102e29073ffffffffffffffffffffffffffffffffffffffff1681565b60005473ffffffffffffffffffffffffffffffffffffffff1633146104aa576040517f08c379a000000000000000000000000000000000000000000000000000000000815260206004820181905260248201527f4f776e61626c653a2063616c6c6572206973206e6f7420746865206f776e657260448201526064015b60405180910390fd5b6005544310610515576040517f08c379a000000000000000000000000000000000000000000000000000000000815260206004820152601060248201527f506f6f6c2068617320737461727465640000000000000000000000000000000060448201526064016104a1565b60098190556040518181527f0c4d677eef92893ac7ec52faf8140fc6c851ab4736302b4f3a89dfb20696a0df9060200160405180910390a150565b600254610100900460ff16156105c2576040517f08c379a000000000000000000000000000000000000000000000000000000000815260206004820152601360248201527f416c726561647920696e697469616c697a65640000000000000000000000000060448201526064016104a1565b3373ffffffffffffffffffffffffffffffffffffffff7f00000000000000000000000000000000000000000000000000000000000000001614610661576040517f08c379a000000000000000000000000000000000000000000000000000000000815260206004820152600b60248201527f4e6f7420666163746f727900000000000000000000000000000000000000000060448201526064016104a1565b600280547fffffffffffffffffffffffffffffffffffffffffffffffffffffffffffff00ff16610100179055600c805473ffffffffffffffffffffffffffffffffffffffff808b167fffffffffffffffffffffffff000000000000000000000000000000000000000092831617909255600b8054928a1692909116919091179055600986905560058590556004849055821561072d57600280547fffffffffffffffffffffffffffffffffffffffffffffffffffffffffffffff00166001179055600783905560088290555b600b54604080517f313ce567000000000000000000000000000000000000000000000000000000008152905160009273ffffffffffffffffffffffffffffffffffffffff169163313ce567916004808301926020929190829003018186803b15801561079857600080fd5b505afa1580156107ac573d6000803e3d6000fd5b505050506040513d601f19601f820116820180604052508101906107d091906120f8565b60ff169050601e811061083f576040517f08c379a000000000000000000000000000000000000000000000000000000000815260206004820152601660248201527f4d75737420626520696e666572696f7220746f2033300000000000000000000060448201526064016104a1565b61084a81601e61233b565b61085590600a612238565b600a5560055460065561086782611717565b505050505050505050565b600260015414156108df576040517f08c379a000000000000000000000000000000000000000000000000000000000815260206004820152601f60248201527f5265656e7472616e637947756172643a207265656e7472616e742063616c6c0060448201526064016104a1565b6002600155336000908152600d60205260409020805482111561095e576040517f08c379a000000000000000000000000000000000000000000000000000000000815260206004820152601b60248201527f416d6f756e7420746f20776974686472617720746f6f2068696768000000000060448201526064016104a1565b6109666119c9565b60008160010154600a54600354846000015461098291906122fe565b61098c919061219e565b610996919061233b565b905082156109d15781546109ab90849061233b565b8255600c546109d19073ffffffffffffffffffffffffffffffffffffffff163385611ad8565b80156109fb57600b546109fb9073ffffffffffffffffffffffffffffffffffffffff163383611ad8565b600a546003548354610a0d91906122fe565b610a17919061219e565b600183015560405183815233907f884edad9ce6fa2440d8a54cc123490eb96d2768479d49ff9c7366125a94243649060200160405180910390a250506001805550565b60005473ffffffffffffffffffffffffffffffffffffffff163314610adb576040517f08c379a000000000000000000000000000000000000000000000000000000000815260206004820181905260248201527f4f776e61626c653a2063616c6c6572206973206e6f7420746865206f776e657260448201526064016104a1565b600b54610aff9073ffffffffffffffffffffffffffffffffffffffff163383611ad8565b50565b60005473ffffffffffffffffffffffffffffffffffffffff163314610b83576040517f08c379a000000000000000000000000000000000000000000000000000000000815260206004820181905260248201527f4f776e61626c653a2063616c6c6572206973206e6f7420746865206f776e657260448201526064016104a1565b610b8d6000611bb1565b565b60005473ffffffffffffffffffffffffffffffffffffffff163314610c10576040517f08c379a000000000000000000000000000000000000000000000000000000000815260206004820181905260248201527f4f776e61626c653a2063616c6c6572206973206e6f7420746865206f776e657260448201526064016104a1565b43600455565b60025460009060ff161580610c3a5750600854600554610c369190612186565b4310155b15610c455750600090565b50600190565b60005473ffffffffffffffffffffffffffffffffffffffff163314610ccc576040517f08c379a000000000000000000000000000000000000000000000000000000000815260206004820181905260248201527f4f776e61626c653a2063616c6c6572206973206e6f7420746865206f776e657260448201526064016104a1565b6005544310610d37576040517f08c379a000000000000000000000000000000000000000000000000000000000815260206004820152601060248201527f506f6f6c2068617320737461727465640000000000000000000000000000000060448201526064016104a1565b808210610dc6576040517f08c379a000000000000000000000000000000000000000000000000000000000815260206004820152602e60248201527f4e6577207374617274426c6f636b206d757374206265206c6f7765722074686160448201527f6e206e657720656e64426c6f636b00000000000000000000000000000000000060648201526084016104a1565b814310610e55576040517f08c379a000000000000000000000000000000000000000000000000000000000815260206004820152603060248201527f4e6577207374617274426c6f636b206d7573742062652068696768657220746860448201527f616e2063757272656e7420626c6f636b0000000000000000000000000000000060648201526084016104a1565b60058290556004819055600682905560408051838152602081018390527f7cd0ab87d19036f3dfadadb232c78aa4879dda3f0c994a9d637532410ee2ce0691015b60405180910390a15050565b60005473ffffffffffffffffffffffffffffffffffffffff163314610f23576040517f08c379a000000000000000000000000000000000000000000000000000000000815260206004820181905260248201527f4f776e61626c653a2063616c6c6572206973206e6f7420746865206f776e657260448201526064016104a1565b600c5473ffffffffffffffffffffffffffffffffffffffff82811691161415610fce576040517f08c379a000000000000000000000000000000000000000000000000000000000815260206004820152602760248201527f4f7065726174696f6e733a2043616e6e6f74207265636f766572207374616b6560448201527f6420746f6b656e0000000000000000000000000000000000000000000000000060648201526084016104a1565b600b5473ffffffffffffffffffffffffffffffffffffffff82811691161415611079576040517f08c379a000000000000000000000000000000000000000000000000000000000815260206004820152602760248201527f4f7065726174696f6e733a2043616e6e6f74207265636f76657220726577617260448201527f6420746f6b656e0000000000000000000000000000000000000000000000000060648201526084016104a1565b6040517f70a0823100000000000000000000000000000000000000000000000000000000815230600482015260009073ffffffffffffffffffffffffffffffffffffffff8316906370a082319060240160206040518083038186803b1580156110e157600080fd5b505afa1580156110f5573d6000803e3d6000fd5b505050506040513d601f19601f8201168201806040525081019061111991906120bf565b9050806111a8576040517f08c379a000000000000000000000000000000000000000000000000000000000815260206004820152602760248201527f4f7065726174696f6e733a2043616e6e6f74207265636f766572207a65726f2060448201527f62616c616e63650000000000000000000000000000000000000000000000000060648201526084016104a1565b6111c973ffffffffffffffffffffffffffffffffffffffff83163383611ad8565b8173ffffffffffffffffffffffffffffffffffffffff167f14f11966a996e0629572e51064726d2057a80fbd34efc066682c06a71dbb6e988260405161121191815260200190565b60405180910390a25050565b60005473ffffffffffffffffffffffffffffffffffffffff16331461129e576040517f08c379a000000000000000000000000000000000000000000000000000000000815260206004820181905260248201527f4f776e61626c653a2063616c6c6572206973206e6f7420746865206f776e657260448201526064016104a1565b60025460ff1661130a576040517f08c379a000000000000000000000000000000000000000000000000000000000815260206004820152600b60248201527f4d7573742062652073657400000000000000000000000000000000000000000060448201526064016104a1565b811561138557600754811161137b576040517f08c379a000000000000000000000000000000000000000000000000000000000815260206004820152601860248201527f4e6577206c696d6974206d75737420626520686967686572000000000000000060448201526064016104a1565b60078190556113b7565b600280547fffffffffffffffffffffffffffffffffffffffffffffffffffffffffffffff001683151517905560006007555b7f241f67ee5f41b7a5cabf911367329be7215900f602ebfc47f89dce2a6bcd847c600754604051610e9691815260200190565b60026001541415611457576040517f08c379a000000000000000000000000000000000000000000000000000000000815260206004820152601f60248201527f5265656e7472616e637947756172643a207265656e7472616e742063616c6c0060448201526064016104a1565b6002600155336000908152600d60205260409020611473610c16565b600280547fffffffffffffffffffffffffffffffffffffffffffffffffffffffffffffff0016911515918217905560ff1615806114bd575060075481546114ba9084612186565b11155b611523576040517f08c379a000000000000000000000000000000000000000000000000000000000815260206004820152601b60248201527f4465706f7369743a20416d6f756e742061626f7665206c696d6974000000000060448201526064016104a1565b61152b6119c9565b8054156115905760008160010154600a54600354846000015461154e91906122fe565b611558919061219e565b611562919061233b565b9050801561158e57600b5461158e9073ffffffffffffffffffffffffffffffffffffffff163383611ad8565b505b81156115ca5780546115a3908390612186565b8155600c546115ca9073ffffffffffffffffffffffffffffffffffffffff16333085611c26565b600a5460035482546115dc91906122fe565b6115e6919061219e565b600182015560405182815233907fe1fffcc4923d04b559f4d29a8bfc6cda04eb5b0d3c460751c2402c5c5cc9109c906020015b60405180910390a2505060018055565b60026001541415611696576040517f08c379a000000000000000000000000000000000000000000000000000000000815260206004820152601f60248201527f5265656e7472616e637947756172643a207265656e7472616e742063616c6c0060448201526064016104a1565b60026001908155336000908152600d602052604081208054828255928101919091559080156116e357600c546116e39073ffffffffffffffffffffffffffffffffffffffff163383611ad8565b815460405190815233907f5fafa99d0643513820be26656b45130b01e1c03062e1266bf36f88cbd3bd969590602001611619565b60005473ffffffffffffffffffffffffffffffffffffffff163314611798576040517f08c379a000000000000000000000000000000000000000000000000000000000815260206004820181905260248201527f4f776e61626c653a2063616c6c6572206973206e6f7420746865206f776e657260448201526064016104a1565b73ffffffffffffffffffffffffffffffffffffffff811661183b576040517f08c379a000000000000000000000000000000000000000000000000000000000815260206004820152602660248201527f4f776e61626c653a206e6577206f776e657220697320746865207a65726f206160448201527f646472657373000000000000000000000000000000000000000000000000000060648201526084016104a1565b610aff81611bb1565b73ffffffffffffffffffffffffffffffffffffffff8181166000908152600d6020526040808220600c5491517f70a08231000000000000000000000000000000000000000000000000000000008152306004820152929390928492909116906370a082319060240160206040518083038186803b1580156118c457600080fd5b505afa1580156118d8573d6000803e3d6000fd5b505050506040513d601f19601f820116820180604052508101906118fc91906120bf565b90506006544311801561190e57508015155b1561199657600061192160065443611c8a565b905060006009548261193391906122fe565b9050600083600a548361194691906122fe565b611950919061219e565b60035461195d9190612186565b90508460010154600a5482876000015461197791906122fe565b611981919061219e565b61198b919061233b565b979650505050505050565b6001820154600a5460035484546119ad91906122fe565b6119b7919061219e565b6119c1919061233b565b949350505050565b60065443116119d457565b600c546040517f70a0823100000000000000000000000000000000000000000000000000000000815230600482015260009173ffffffffffffffffffffffffffffffffffffffff16906370a082319060240160206040518083038186803b158015611a3e57600080fd5b505afa158015611a52573d6000803e3d6000fd5b505050506040513d601f19601f82011682018060405250810190611a7691906120bf565b905080611a84575043600655565b6000611a9260065443611c8a565b9050600060095482611aa491906122fe565b905082600a5482611ab591906122fe565b611abf919061219e565b600354611acc9190612186565b60035550504360065550565b60405173ffffffffffffffffffffffffffffffffffffffff8316602482015260448101829052611bac9084907fa9059cbb00000000000000000000000000000000000000000000000000000000906064015b604080517fffffffffffffffffffffffffffffffffffffffffffffffffffffffffffffffe08184030181529190526020810180517bffffffffffffffffffffffffffffffffffffffffffffffffffffffff167fffffffff0000000000000000000000000000000000000000000000000000000090931692909217909152611ccb565b505050565b6000805473ffffffffffffffffffffffffffffffffffffffff8381167fffffffffffffffffffffffff0000000000000000000000000000000000000000831681178455604051919092169283917f8be0079c531659141344cd1fd0a4f28419497f9722a3daafe3b4186f6b6457e09190a35050565b60405173ffffffffffffffffffffffffffffffffffffffff80851660248301528316604482015260648101829052611c849085907f23b872dd0000000000000000000000000000000000000000000000000000000090608401611b2a565b50505050565b60006004548211611ca657611c9f838361233b565b9050611cc5565b6004548310611cb757506000611cc5565b82600454611c9f919061233b565b92915050565b6000611d2d826040518060400160405280602081526020017f5361666545524332303a206c6f772d6c6576656c2063616c6c206661696c65648152508573ffffffffffffffffffffffffffffffffffffffff16611dd79092919063ffffffff16565b805190915015611bac5780806020019051810190611d4b9190611fe5565b611bac576040517f08c379a000000000000000000000000000000000000000000000000000000000815260206004820152602a60248201527f5361666545524332303a204552433230206f7065726174696f6e20646964206e60448201527f6f7420737563636565640000000000000000000000000000000000000000000060648201526084016104a1565b6060611de68484600085611df0565b90505b9392505050565b606082471015611e82576040517f08c379a000000000000000000000000000000000000000000000000000000000815260206004820152602660248201527f416464726573733a20696e73756666696369656e742062616c616e636520666f60448201527f722063616c6c000000000000000000000000000000000000000000000000000060648201526084016104a1565b73ffffffffffffffffffffffffffffffffffffffff85163b611f00576040517f08c379a000000000000000000000000000000000000000000000000000000000815260206004820152601d60248201527f416464726573733a2063616c6c20746f206e6f6e2d636f6e747261637400000060448201526064016104a1565b6000808673ffffffffffffffffffffffffffffffffffffffff168587604051611f299190612119565b60006040518083038185875af1925050503d8060008114611f66576040519150601f19603f3d011682016040523d82523d6000602084013e611f6b565b606091505b509150915061198b82828660608315611f85575081611de9565b825115611f955782518084602001fd5b816040517f08c379a00000000000000000000000000000000000000000000000000000000081526004016104a19190612135565b600060208284031215611fda578081fd5b8135611de9816123ad565b600060208284031215611ff6578081fd5b8151611de9816123cf565b60008060408385031215612013578081fd5b823561201e816123cf565b946020939093013593505050565b600080600080600080600080610100898b031215612048578384fd5b8835612053816123ad565b97506020890135612063816123ad565b965060408901359550606089013594506080890135935060a0890135925060c0890135915060e0890135612096816123ad565b809150509295985092959890939650565b6000602082840312156120b8578081fd5b5035919050565b6000602082840312156120d0578081fd5b5051919050565b600080604083850312156120e9578182fd5b50508035926020909101359150565b600060208284031215612109578081fd5b815160ff81168114611de9578182fd5b6000825161212b818460208701612352565b9190910192915050565b6020815260008251806020840152612154816040850160208701612352565b601f017fffffffffffffffffffffffffffffffffffffffffffffffffffffffffffffffe0169190910160400192915050565b600082198211156121995761219961237e565b500190565b6000826121d2577f4e487b710000000000000000000000000000000000000000000000000000000081526012600452602481fd5b500490565b600181815b8085111561223057817fffffffffffffffffffffffffffffffffffffffffffffffffffffffffffffffff048211156122165761221661237e565b8085161561222357918102915b93841c93908002906121dc565b509250929050565b6000611de9838360008261224e57506001611cc5565b8161225b57506000611cc5565b8160018114612271576002811461227b57612297565b6001915050611cc5565b60ff84111561228c5761228c61237e565b50506001821b611cc5565b5060208310610133831016604e8410600b84101617156122ba575081810a611cc5565b6122c483836121d7565b807fffffffffffffffffffffffffffffffffffffffffffffffffffffffffffffffff048211156122f6576122f661237e565b029392505050565b6000817fffffffffffffffffffffffffffffffffffffffffffffffffffffffffffffffff04831182151516156123365761233661237e565b500290565b60008282101561234d5761234d61237e565b500390565b60005b8381101561236d578181015183820152602001612355565b83811115611c845750506000910152565b7f4e487b7100000000000000000000000000000000000000000000000000000000600052601160045260246000fd5b73ffffffffffffffffffffffffffffffffffffffff81168114610aff57600080fd5b8015158114610aff57600080fdfea26469706673582212209ff97e3d1fae70bd18941063d9e8c1527429246690492dfd3718c47b1759ac0664736f6c63430008040033a2646970667358221220eccbbfec96f5a612d7d373f9d81348942ebd6edd4d5b5b99f5f5adbe8d9fa40e64736f6c63430008040033",
  "devdoc": {
    "kind": "dev",
    "methods": {
      "owner()": {
        "details": "Returns the address of the current owner."
      },
      "renounceOwnership()": {
        "details": "Leaves the contract without owner. It will not be possible to call `onlyOwner` functions anymore. Can only be called by the current owner. NOTE: Renouncing ownership will leave the contract without an owner, thereby removing any functionality that is only available to the owner."
      },
      "transferOwnership(address)": {
        "details": "Transfers ownership of the contract to a new account (`newOwner`). Can only be called by the current owner."
      }
    },
    "version": 1
  },
  "userdoc": {
    "kind": "user",
    "methods": {},
    "version": 1
  },
  "storageLayout": {
    "storage": [
      {
        "astId": 7,
        "contract": "contracts/PsionicFarmFactory.sol:PsionicFarmFactory",
        "label": "_owner",
        "offset": 0,
        "slot": "0",
        "type": "t_address"
      }
    ],
    "types": {
      "t_address": {
        "encoding": "inplace",
        "label": "address",
        "numberOfBytes": "20"
      }
    }
  }
}