{
  "address": "0xa83447201013d6D7Fa3b7b951E0AF07bC3c2E450",
  "abi": [
    {
      "inputs": [],
      "stateMutability": "nonpayable",
      "type": "constructor"
    },
    {
      "anonymous": false,
      "inputs": [
        {
          "indexed": true,
          "internalType": "address",
          "name": "psionicFarm",
          "type": "address"
        }
      ],
      "name": "NewPsionicFarmContract",
      "type": "event"
    },
    {
      "anonymous": false,
      "inputs": [
        {
          "indexed": true,
          "internalType": "address",
          "name": "previousOwner",
          "type": "address"
        },
        {
          "indexed": true,
          "internalType": "address",
          "name": "newOwner",
          "type": "address"
        }
      ],
      "name": "OwnershipTransferred",
      "type": "event"
    },
    {
      "inputs": [
        {
          "internalType": "contract IERC20Metadata",
          "name": "_stakedToken",
          "type": "address"
        },
        {
          "internalType": "address[]",
          "name": "rewardTokens",
          "type": "address[]"
        },
        {
          "internalType": "uint256",
          "name": "_startBlock",
          "type": "uint256"
        },
        {
          "internalType": "uint256",
          "name": "_bonusEndBlock",
          "type": "uint256"
        },
        {
          "internalType": "uint256",
          "name": "_poolLimitPerUser",
          "type": "uint256"
        },
        {
          "internalType": "uint256",
          "name": "_numberBlocksForUserLimit",
          "type": "uint256"
        },
        {
          "internalType": "address",
          "name": "_admin",
          "type": "address"
        }
      ],
      "name": "deployPool",
      "outputs": [
        {
          "internalType": "address",
          "name": "psionicFarmAddress",
          "type": "address"
        },
        {
          "internalType": "address",
          "name": "psionicVault",
          "type": "address"
        }
      ],
      "stateMutability": "nonpayable",
      "type": "function"
    },
    {
      "inputs": [],
      "name": "owner",
      "outputs": [
        {
          "internalType": "address",
          "name": "",
          "type": "address"
        }
      ],
      "stateMutability": "view",
      "type": "function"
    },
    {
      "inputs": [],
      "name": "renounceOwnership",
      "outputs": [],
      "stateMutability": "nonpayable",
      "type": "function"
    },
    {
      "inputs": [
        {
          "internalType": "address",
          "name": "newOwner",
          "type": "address"
        }
      ],
      "name": "transferOwnership",
      "outputs": [],
      "stateMutability": "nonpayable",
      "type": "function"
    }
  ],
  "transactionHash": "0x7be74d74be6280f576ecdc5cf975d0e9bc7a594c4afad48f98eab2933dbc73a7",
  "args": [],
  "numDeployments": 3,
  "solcInputHash": "d353c75b0dffdcce36624f57c8c38a44",
  "bytecode": "0x608060405234801561001057600080fd5b5061001a3361001f565b61006f565b600080546001600160a01b038381166001600160a01b0319831681178455604051919092169283917f8be0079c531659141344cd1fd0a4f28419497f9722a3daafe3b4186f6b6457e09190a35050565b61580d8061007e6000396000f3fe608060405234801561001057600080fd5b506004361061004c5760003560e01c8063715018a614610051578063746baf091461005b5780638da5cb5b146100a0578063f2fde38b146100c8575b600080fd5b6100596100db565b005b61006e610069366004610767565b61016d565b6040805173ffffffffffffffffffffffffffffffffffffffff9384168152929091166020830152015b60405180910390f35b60005460405173ffffffffffffffffffffffffffffffffffffffff9091168152602001610097565b6100596100d6366004610744565b610575565b60005473ffffffffffffffffffffffffffffffffffffffff163314610161576040517f08c379a000000000000000000000000000000000000000000000000000000000815260206004820181905260248201527f4f776e61626c653a2063616c6c6572206973206e6f7420746865206f776e657260448201526064015b60405180910390fd5b61016b60006106a5565b565b60008054819073ffffffffffffffffffffffffffffffffffffffff1633146101f1576040517f08c379a000000000000000000000000000000000000000000000000000000000815260206004820181905260248201527f4f776e61626c653a2063616c6c6572206973206e6f7420746865206f776e65726044820152606401610158565b60008973ffffffffffffffffffffffffffffffffffffffff166318160ddd6040518163ffffffff1660e01b815260040160206040518083038186803b15801561023957600080fd5b505afa15801561024d573d6000803e3d6000fd5b505050506040513d601f19601f82011682018060405250810190610271919061089b565b101561027c57600080fd5b86861161028857600080fd5b60006040518060200161029a9061071a565b7fffffffffffffffffffffffffffffffffffffffffffffffffffffffffffffffe082820381018352601f9091011660408190527fffffffffffffffffffffffffffffffffffffffff00000000000000000000000060608d901b166020820152603481018a9052909150600090605401604051602081830303815290604052805190602001209050808251602084016000f5925060006040518060200161033f90610727565b7fffffffffffffffffffffffffffffffffffffffffffffffffffffffffffffffe082820381018352601f9091011660408190527fffffffffffffffffffffffffffffffffffffffff00000000000000000000000060608f811b8216602084015287901b166034820152604881018c9052909150600090606801604051602081830303815290604052805190602001209050808251602084016000f5955073ffffffffffffffffffffffffffffffffffffffff851663c1b4a1e38d6104038e8e610974565b61041590670de0b6b3a7640000610937565b898b6040518563ffffffff1660e01b815260040161043694939291906108b3565b600060405180830381600087803b15801561045057600080fd5b505af1158015610464573d6000803e3d6000fd5b505050508573ffffffffffffffffffffffffffffffffffffffff166383a5041c8e878e8e8e8e8e6040518863ffffffff1660e01b81526004016104f2979695949392919073ffffffffffffffffffffffffffffffffffffffff9788168152958716602087015260408601949094526060850192909252608084015260a083015290911660c082015260e00190565b600060405180830381600087803b15801561050c57600080fd5b505af1158015610520573d6000803e3d6000fd5b505060405173ffffffffffffffffffffffffffffffffffffffff891692507f8d36e1fbd68da6ea8f439d93c71f840293ec6442e3ae4c6ee5689bb33ba70e369150600090a25050505097509795505050505050565b60005473ffffffffffffffffffffffffffffffffffffffff1633146105f6576040517f08c379a000000000000000000000000000000000000000000000000000000000815260206004820181905260248201527f4f776e61626c653a2063616c6c6572206973206e6f7420746865206f776e65726044820152606401610158565b73ffffffffffffffffffffffffffffffffffffffff8116610699576040517f08c379a000000000000000000000000000000000000000000000000000000000815260206004820152602660248201527f4f776e61626c653a206e6577206f776e657220697320746865207a65726f206160448201527f64647265737300000000000000000000000000000000000000000000000000006064820152608401610158565b6106a2816106a5565b50565b6000805473ffffffffffffffffffffffffffffffffffffffff8381167fffffffffffffffffffffffff0000000000000000000000000000000000000000831681178455604051919092169283917f8be0079c531659141344cd1fd0a4f28419497f9722a3daafe3b4186f6b6457e09190a35050565b6129c080610a0c83390190565b61240c806133cc83390190565b803561073f816109e9565b919050565b600060208284031215610755578081fd5b8135610760816109e9565b9392505050565b600080600080600080600060e0888a031215610781578283fd5b873561078c816109e9565b965060208881013567ffffffffffffffff808211156107a9578586fd5b818b0191508b601f8301126107bc578586fd5b8135818111156107ce576107ce6109ba565b8060051b6040517fffffffffffffffffffffffffffffffffffffffffffffffffffffffffffffffe0603f83011681018181108582111715610811576108116109ba565b806040525080935082815285810193508585018f8784880101111561083457898afd5b8995505b8386101561085d5761084981610734565b855260019590950194938601938601610838565b509a5050505060408a013596505050606088013593506080880135925060a0880135915061088d60c08901610734565b905092959891949750929550565b6000602082840312156108ac578081fd5b5051919050565b6080808252855190820181905260009060209060a0840190828901845b8281101561090257815173ffffffffffffffffffffffffffffffffffffffff16845292840192908401906001016108d0565b505050908301959095525073ffffffffffffffffffffffffffffffffffffffff92831660408201529116606090910152919050565b6000817fffffffffffffffffffffffffffffffffffffffffffffffffffffffffffffffff048311821515161561096f5761096f61098b565b500290565b6000828210156109865761098661098b565b500390565b7f4e487b7100000000000000000000000000000000000000000000000000000000600052601160045260246000fd5b7f4e487b7100000000000000000000000000000000000000000000000000000000600052604160045260246000fd5b73ffffffffffffffffffffffffffffffffffffffff811681146106a257600080fdfe60806040523480156200001157600080fd5b5060408051808201825260078152665073696f6e696360c81b602080830191825283518085019094526002845261141560f21b9084015281519192916200005b9160039162000101565b5080516200007190600490602084019062000101565b5050506200008e62000088620000ab60201b60201c565b620000af565b6001600655600a80546001600160a01b03191633179055620001e4565b3390565b600580546001600160a01b038381166001600160a01b0319831681179093556040519116919082907f8be0079c531659141344cd1fd0a4f28419497f9722a3daafe3b4186f6b6457e090600090a35050565b8280546200010f90620001a7565b90600052602060002090601f0160209004810192826200013357600085556200017e565b82601f106200014e57805160ff19168380011785556200017e565b828001600101855582156200017e579182015b828111156200017e57825182559160200191906001019062000161565b506200018c92915062000190565b5090565b5b808211156200018c576000815560010162000191565b600181811c90821680620001bc57607f821691505b60208210811415620001de57634e487b7160e01b600052602260045260246000fd5b50919050565b6127cc80620001f46000396000f3fe608060405234801561001057600080fd5b506004361061018d5760003560e01c80636d0e002c116100e35780639dc29fac1161008c578063c1b4a1e311610066578063c1b4a1e31461038f578063dd62ed3e146103a2578063f2fde38b146103e857600080fd5b80639dc29fac14610356578063a457c2d714610369578063a9059cbb1461037c57600080fd5b80637bb7bed1116100bd5780637bb7bed11461031d5780638da5cb5b1461033057806395d89b411461034e57600080fd5b80636d0e002c146102bf57806370a08231146102df578063715018a61461031557600080fd5b806329092d0e1161014557806336e9332d1161011f57806336e9332d14610242578063392e53cd1461028757806339509351146102ac57600080fd5b806329092d0e1461020d578063306a4bf414610220578063313ce5671461023357600080fd5b80630a3b0a4f116101765780630a3b0a4f146101d357806318160ddd146101e857806323b872dd146101fa57600080fd5b806306fdde0314610192578063095ea7b3146101b0575b600080fd5b61019a6103fb565b6040516101a7919061257b565b60405180910390f35b6101c36101be3660046123ab565b61048d565b60405190151581526020016101a7565b6101e66101e1366004612324565b6104a5565b005b6002545b6040519081526020016101a7565b6101c3610208366004612370565b610664565b6101e661021b366004612324565b61068a565b6101e661022e366004612530565b610ae3565b604051601281526020016101a7565b6009546102629073ffffffffffffffffffffffffffffffffffffffff1681565b60405173ffffffffffffffffffffffffffffffffffffffff90911681526020016101a7565b6009546101c39074010000000000000000000000000000000000000000900460ff1681565b6101c36102ba3660046123ab565b610c3a565b600a546102629073ffffffffffffffffffffffffffffffffffffffff1681565b6101ec6102ed366004612324565b73ffffffffffffffffffffffffffffffffffffffff1660009081526020819052604090205490565b6101e6610c86565b61026261032b366004612500565b610d13565b60055473ffffffffffffffffffffffffffffffffffffffff16610262565b61019a610d4a565b6101e66103643660046123ab565b610d59565b6101c36103773660046123ab565b6110a8565b6101c361038a3660046123ab565b611184565b6101e661039d3660046123d4565b611192565b6101ec6103b036600461233e565b73ffffffffffffffffffffffffffffffffffffffff918216600090815260016020908152604080832093909416825291909152205490565b6101e66103f6366004612324565b6114fe565b60606003805461040a9061269d565b80601f01602080910402602001604051908101604052809291908181526020018280546104369061269d565b80156104835780601f1061045857610100808354040283529160200191610483565b820191906000526020600020905b81548152906001019060200180831161046657829003601f168201915b5050505050905090565b60003361049b81858561162e565b5060019392505050565b60055473ffffffffffffffffffffffffffffffffffffffff16331461052b576040517f08c379a000000000000000000000000000000000000000000000000000000000815260206004820181905260248201527f4f776e61626c653a2063616c6c6572206973206e6f7420746865206f776e657260448201526064015b60405180910390fd5b73ffffffffffffffffffffffffffffffffffffffff811660009081526007602052604090205460ff16156105bb576040517f08c379a000000000000000000000000000000000000000000000000000000000815260206004820152601a60248201527f5661756c743a20546f6b656e20616c72656164792061646465640000000000006044820152606401610522565b73ffffffffffffffffffffffffffffffffffffffff16600081815260076020526040812080547fffffffffffffffffffffffffffffffffffffffffffffffffffffffffffffff001660019081179091556008805491820181559091527ff3f7a9fe364faab93b216da50a3214154f22a0a2b415b23a84c8169e8b636ee30180547fffffffffffffffffffffffff0000000000000000000000000000000000000000169091179055565b6000336106728582856117e2565b61067d8585856118b3565b60019150505b9392505050565b60055473ffffffffffffffffffffffffffffffffffffffff16331461070b576040517f08c379a000000000000000000000000000000000000000000000000000000000815260206004820181905260248201527f4f776e61626c653a2063616c6c6572206973206e6f7420746865206f776e65726044820152606401610522565b73ffffffffffffffffffffffffffffffffffffffff811660009081526007602052604090205460ff1661079a576040517f08c379a000000000000000000000000000000000000000000000000000000000815260206004820152601660248201527f5661756c743a20546f6b656e206e6f74206164646564000000000000000000006044820152606401610522565b600854600110610806576040517f08c379a000000000000000000000000000000000000000000000000000000000815260206004820152601c60248201527f4174206c65617374203120746f6b656e206973207265717569726564000000006044820152606401610522565b6000600880548060200260200160405190810160405280929190818152602001828054801561086b57602002820191906000526020600020905b815473ffffffffffffffffffffffffffffffffffffffff168152600190910190602001808311610840575b505083519394506000925050505b81811015610add5760008382815181106108bc577f4e487b7100000000000000000000000000000000000000000000000000000000600052603260045260246000fd5b602002602001015190508073ffffffffffffffffffffffffffffffffffffffff168573ffffffffffffffffffffffffffffffffffffffff161415610aca5773ffffffffffffffffffffffffffffffffffffffff8516600090815260076020526040902080547fffffffffffffffffffffffffffffffffffffffffffffffffffffffffffffff00169055600880546109559060019061265a565b8154811061098c577f4e487b7100000000000000000000000000000000000000000000000000000000600052603260045260246000fd5b6000918252602090912001546008805473ffffffffffffffffffffffffffffffffffffffff90921691849081106109ec577f4e487b7100000000000000000000000000000000000000000000000000000000600052603260045260246000fd5b9060005260206000200160006101000a81548173ffffffffffffffffffffffffffffffffffffffff021916908373ffffffffffffffffffffffffffffffffffffffff1602179055506008805480610a6c577f4e487b7100000000000000000000000000000000000000000000000000000000600052603160045260246000fd5b60008281526020902081017fffffffffffffffffffffffffffffffffffffffffffffffffffffffffffffffff90810180547fffffffffffffffffffffffff000000000000000000000000000000000000000016905501905550610add565b5080610ad5816126f1565b915050610879565b50505050565b60095473ffffffffffffffffffffffffffffffffffffffff163314610b64576040517f08c379a000000000000000000000000000000000000000000000000000000000815260206004820152601460248201527f4f6e6c79204661726d20697320616c6c6f7765640000000000000000000000006044820152606401610522565b60026006541415610bd1576040517f08c379a000000000000000000000000000000000000000000000000000000000815260206004820152601f60248201527f5265656e7472616e637947756172643a207265656e7472616e742063616c6c006044820152606401610522565b60026006558015610c0957610c04610bfe60055473ffffffffffffffffffffffffffffffffffffffff1690565b83611b66565b610c31565b610c31610c2b60055473ffffffffffffffffffffffffffffffffffffffff1690565b83611c86565b50506001600655565b33600081815260016020908152604080832073ffffffffffffffffffffffffffffffffffffffff8716845290915281205490919061049b9082908690610c819087906125cc565b61162e565b60055473ffffffffffffffffffffffffffffffffffffffff163314610d07576040517f08c379a000000000000000000000000000000000000000000000000000000000815260206004820181905260248201527f4f776e61626c653a2063616c6c6572206973206e6f7420746865206f776e65726044820152606401610522565b610d116000611e70565b565b60088181548110610d2357600080fd5b60009182526020909120015473ffffffffffffffffffffffffffffffffffffffff16905081565b60606004805461040a9061269d565b60095473ffffffffffffffffffffffffffffffffffffffff163314610dda576040517f08c379a000000000000000000000000000000000000000000000000000000000815260206004820152601460248201527f4f6e6c79204661726d20697320616c6c6f7765640000000000000000000000006044820152606401610522565b60026006541415610e47576040517f08c379a000000000000000000000000000000000000000000000000000000000815260206004820152601f60248201527f5265656e7472616e637947756172643a207265656e7472616e742063616c6c006044820152606401610522565b600260065580610eb3576040517f08c379a000000000000000000000000000000000000000000000000000000000815260206004820152600f60248201527f5046563a204e6f7420656e6f75676800000000000000000000000000000000006044820152606401610522565b60006008805480602002602001604051908101604052809291908181526020018280548015610f1857602002820191906000526020600020905b815473ffffffffffffffffffffffffffffffffffffffff168152600190910190602001808311610eed575b505050505090506000815190506000610f3060025490565b905060005b82811015611078576000848281518110610f78577f4e487b7100000000000000000000000000000000000000000000000000000000600052603260045260246000fd5b60209081029190910101516040517f70a0823100000000000000000000000000000000000000000000000000000000815230600482015290915060009073ffffffffffffffffffffffffffffffffffffffff8316906370a082319060240160206040518083038186803b158015610fee57600080fd5b505afa158015611002573d6000803e3d6000fd5b505050506040513d601f19601f820116820180604052508101906110269190612518565b9050600084611035898461261d565b61103f91906125e4565b905061106273ffffffffffffffffffffffffffffffffffffffff84168a83611ee7565b5050508080611070906126f1565b915050610f35565b5060095461109c9073ffffffffffffffffffffffffffffffffffffffff1685611c86565b50506001600655505050565b33600081815260016020908152604080832073ffffffffffffffffffffffffffffffffffffffff871684529091528120549091908381101561116c576040517f08c379a000000000000000000000000000000000000000000000000000000000815260206004820152602560248201527f45524332303a2064656372656173656420616c6c6f77616e63652062656c6f7760448201527f207a65726f0000000000000000000000000000000000000000000000000000006064820152608401610522565b611179828686840361162e565b506001949350505050565b60003361049b8185856118b3565b60095474010000000000000000000000000000000000000000900460ff1615611217576040517f08c379a000000000000000000000000000000000000000000000000000000000815260206004820152601360248201527f416c726561647920696e697469616c697a6564000000000000000000000000006044820152606401610522565b600a5473ffffffffffffffffffffffffffffffffffffffff163314611298576040517f08c379a000000000000000000000000000000000000000000000000000000000815260206004820152600b60248201527f4e6f7420666163746f72790000000000000000000000000000000000000000006044820152606401610522565b6000845111611303576040517f08c379a000000000000000000000000000000000000000000000000000000000815260206004820152601360248201527f456d7074792072657761726420746f6b656e73000000000000000000000000006044820152606401610522565b600980547fffffffffffffffffffffff00ffffffffffffffffffffffffffffffffffffffff1674010000000000000000000000000000000000000000179055835161135590600890602087019061225c565b50835160005b8181101561149f57600086828151811061139e577f4e487b7100000000000000000000000000000000000000000000000000000000600052603260045260246000fd5b60209081029190910181015173ffffffffffffffffffffffffffffffffffffffff81166000908152600790925260409091205490915060ff16801561143f576040517f08c379a000000000000000000000000000000000000000000000000000000000815260206004820152601560248201527f546f6b656e73206d75737420626520756e6971756500000000000000000000006044820152606401610522565b5073ffffffffffffffffffffffffffffffffffffffff16600090815260076020526040902080547fffffffffffffffffffffffffffffffffffffffffffffffffffffffffffffff0016600117905580611497816126f1565b91505061135b565b506114aa8385611b66565b6114b3826114fe565b5050600980547fffffffffffffffffffffffff00000000000000000000000000000000000000001673ffffffffffffffffffffffffffffffffffffffff929092169190911790555050565b60055473ffffffffffffffffffffffffffffffffffffffff16331461157f576040517f08c379a000000000000000000000000000000000000000000000000000000000815260206004820181905260248201527f4f776e61626c653a2063616c6c6572206973206e6f7420746865206f776e65726044820152606401610522565b73ffffffffffffffffffffffffffffffffffffffff8116611622576040517f08c379a000000000000000000000000000000000000000000000000000000000815260206004820152602660248201527f4f776e61626c653a206e6577206f776e657220697320746865207a65726f206160448201527f64647265737300000000000000000000000000000000000000000000000000006064820152608401610522565b61162b81611e70565b50565b73ffffffffffffffffffffffffffffffffffffffff83166116d0576040517f08c379a0000000000000000000000000000000000000000000000000000000008152602060048201526024808201527f45524332303a20617070726f76652066726f6d20746865207a65726f2061646460448201527f72657373000000000000000000000000000000000000000000000000000000006064820152608401610522565b73ffffffffffffffffffffffffffffffffffffffff8216611773576040517f08c379a000000000000000000000000000000000000000000000000000000000815260206004820152602260248201527f45524332303a20617070726f766520746f20746865207a65726f20616464726560448201527f73730000000000000000000000000000000000000000000000000000000000006064820152608401610522565b73ffffffffffffffffffffffffffffffffffffffff83811660008181526001602090815260408083209487168084529482529182902085905590518481527f8c5be1e5ebec7d5bd14f71427d1e84f3dd0314c0f7b2291e5b200ac8c7c3b92591015b60405180910390a3505050565b73ffffffffffffffffffffffffffffffffffffffff8381166000908152600160209081526040808320938616835292905220547fffffffffffffffffffffffffffffffffffffffffffffffffffffffffffffffff8114610add57818110156118a6576040517f08c379a000000000000000000000000000000000000000000000000000000000815260206004820152601d60248201527f45524332303a20696e73756666696369656e7420616c6c6f77616e63650000006044820152606401610522565b610add848484840361162e565b73ffffffffffffffffffffffffffffffffffffffff8316611956576040517f08c379a000000000000000000000000000000000000000000000000000000000815260206004820152602560248201527f45524332303a207472616e736665722066726f6d20746865207a65726f20616460448201527f64726573730000000000000000000000000000000000000000000000000000006064820152608401610522565b73ffffffffffffffffffffffffffffffffffffffff82166119f9576040517f08c379a000000000000000000000000000000000000000000000000000000000815260206004820152602360248201527f45524332303a207472616e7366657220746f20746865207a65726f206164647260448201527f65737300000000000000000000000000000000000000000000000000000000006064820152608401610522565b73ffffffffffffffffffffffffffffffffffffffff831660009081526020819052604090205481811015611aaf576040517f08c379a000000000000000000000000000000000000000000000000000000000815260206004820152602660248201527f45524332303a207472616e7366657220616d6f756e742065786365656473206260448201527f616c616e636500000000000000000000000000000000000000000000000000006064820152608401610522565b73ffffffffffffffffffffffffffffffffffffffff808516600090815260208190526040808220858503905591851681529081208054849290611af39084906125cc565b925050819055508273ffffffffffffffffffffffffffffffffffffffff168473ffffffffffffffffffffffffffffffffffffffff167fddf252ad1be2c89b69c2b068fc378daa952ba7f163c4a11628f55a4df523b3ef84604051611b5991815260200190565b60405180910390a3610add565b73ffffffffffffffffffffffffffffffffffffffff8216611be3576040517f08c379a000000000000000000000000000000000000000000000000000000000815260206004820152601f60248201527f45524332303a206d696e7420746f20746865207a65726f2061646472657373006044820152606401610522565b8060026000828254611bf591906125cc565b909155505073ffffffffffffffffffffffffffffffffffffffff821660009081526020819052604081208054839290611c2f9084906125cc565b909155505060405181815273ffffffffffffffffffffffffffffffffffffffff8316906000907fddf252ad1be2c89b69c2b068fc378daa952ba7f163c4a11628f55a4df523b3ef9060200160405180910390a35050565b73ffffffffffffffffffffffffffffffffffffffff8216611d29576040517f08c379a000000000000000000000000000000000000000000000000000000000815260206004820152602160248201527f45524332303a206275726e2066726f6d20746865207a65726f2061646472657360448201527f73000000000000000000000000000000000000000000000000000000000000006064820152608401610522565b73ffffffffffffffffffffffffffffffffffffffff821660009081526020819052604090205481811015611ddf576040517f08c379a000000000000000000000000000000000000000000000000000000000815260206004820152602260248201527f45524332303a206275726e20616d6f756e7420657863656564732062616c616e60448201527f63650000000000000000000000000000000000000000000000000000000000006064820152608401610522565b73ffffffffffffffffffffffffffffffffffffffff83166000908152602081905260408120838303905560028054849290611e1b90849061265a565b909155505060405182815260009073ffffffffffffffffffffffffffffffffffffffff8516907fddf252ad1be2c89b69c2b068fc378daa952ba7f163c4a11628f55a4df523b3ef906020016117d5565b505050565b6005805473ffffffffffffffffffffffffffffffffffffffff8381167fffffffffffffffffffffffff0000000000000000000000000000000000000000831681179093556040519116919082907f8be0079c531659141344cd1fd0a4f28419497f9722a3daafe3b4186f6b6457e090600090a35050565b6040805173ffffffffffffffffffffffffffffffffffffffff848116602483015260448083018590528351808403909101815260649092018352602080830180517bffffffffffffffffffffffffffffffffffffffffffffffffffffffff167fa9059cbb0000000000000000000000000000000000000000000000000000000017905283518085019094528084527f5361666545524332303a206c6f772d6c6576656c2063616c6c206661696c656490840152611e6b92869291600091611fb291851690849061205c565b805190915015611e6b5780806020019051810190611fd091906124e4565b611e6b576040517f08c379a000000000000000000000000000000000000000000000000000000000815260206004820152602a60248201527f5361666545524332303a204552433230206f7065726174696f6e20646964206e60448201527f6f742073756363656564000000000000000000000000000000000000000000006064820152608401610522565b606061206b8484600085612073565b949350505050565b606082471015612105576040517f08c379a000000000000000000000000000000000000000000000000000000000815260206004820152602660248201527f416464726573733a20696e73756666696369656e742062616c616e636520666f60448201527f722063616c6c00000000000000000000000000000000000000000000000000006064820152608401610522565b73ffffffffffffffffffffffffffffffffffffffff85163b612183576040517f08c379a000000000000000000000000000000000000000000000000000000000815260206004820152601d60248201527f416464726573733a2063616c6c20746f206e6f6e2d636f6e74726163740000006044820152606401610522565b6000808673ffffffffffffffffffffffffffffffffffffffff1685876040516121ac919061255f565b60006040518083038185875af1925050503d80600081146121e9576040519150601f19603f3d011682016040523d82523d6000602084013e6121ee565b606091505b50915091506121fe828286612209565b979650505050505050565b60608315612218575081610683565b8251156122285782518084602001fd5b816040517f08c379a0000000000000000000000000000000000000000000000000000000008152600401610522919061257b565b8280548282559060005260206000209081019282156122d6579160200282015b828111156122d657825182547fffffffffffffffffffffffff00000000000000000000000000000000000000001673ffffffffffffffffffffffffffffffffffffffff90911617825560209092019160019091019061227c565b506122e29291506122e6565b5090565b5b808211156122e257600081556001016122e7565b803573ffffffffffffffffffffffffffffffffffffffff8116811461231f57600080fd5b919050565b600060208284031215612335578081fd5b610683826122fb565b60008060408385031215612350578081fd5b612359836122fb565b9150612367602084016122fb565b90509250929050565b600080600060608486031215612384578081fd5b61238d846122fb565b925061239b602085016122fb565b9150604084013590509250925092565b600080604083850312156123bd578182fd5b6123c6836122fb565b946020939093013593505050565b600080600080608085870312156123e9578081fd5b843567ffffffffffffffff80821115612400578283fd5b818701915087601f830112612413578283fd5b813560208282111561242757612427612759565b8160051b6040517fffffffffffffffffffffffffffffffffffffffffffffffffffffffffffffffe0603f8301168101818110868211171561246a5761246a612759565b604052838152828101945085830182870184018d1015612488578788fd5b8796505b848710156124b15761249d816122fb565b86526001969096019594830194830161248c565b5098505088013595506124cb9250506040870190506122fb565b91506124d9606086016122fb565b905092959194509250565b6000602082840312156124f5578081fd5b815161068381612788565b600060208284031215612511578081fd5b5035919050565b600060208284031215612529578081fd5b5051919050565b60008060408385031215612542578182fd5b82359150602083013561255481612788565b809150509250929050565b60008251612571818460208701612671565b9190910192915050565b602081526000825180602084015261259a816040850160208701612671565b601f017fffffffffffffffffffffffffffffffffffffffffffffffffffffffffffffffe0169190910160400192915050565b600082198211156125df576125df61272a565b500190565b600082612618577f4e487b710000000000000000000000000000000000000000000000000000000081526012600452602481fd5b500490565b6000817fffffffffffffffffffffffffffffffffffffffffffffffffffffffffffffffff04831182151516156126555761265561272a565b500290565b60008282101561266c5761266c61272a565b500390565b60005b8381101561268c578181015183820152602001612674565b83811115610add5750506000910152565b600181811c908216806126b157607f821691505b602082108114156126eb577f4e487b7100000000000000000000000000000000000000000000000000000000600052602260045260246000fd5b50919050565b60007fffffffffffffffffffffffffffffffffffffffffffffffffffffffffffffffff8214156127235761272361272a565b5060010190565b7f4e487b7100000000000000000000000000000000000000000000000000000000600052601160045260246000fd5b7f4e487b7100000000000000000000000000000000000000000000000000000000600052604160045260246000fd5b801515811461162b57600080fdfea2646970667358221220c1ff94cf64f521747e8d1e3d3f17d742511512735d4d0f26bdb63f2ffc557ebc64736f6c6343000804003360a060405234801561001057600080fd5b5061001a3361002a565b600180553360601b60805261007a565b600080546001600160a01b038381166001600160a01b0319831681178455604051919092169283917f8be0079c531659141344cd1fd0a4f28419497f9722a3daafe3b4186f6b6457e09190a35050565b60805160601c61236d61009f600039600081816102e70152610892015261236d6000f3fe608060405234801561001057600080fd5b50600436106101c45760003560e01c80638ad1071b116100f9578063a9f8d18111610097578063ccd34cd511610071578063ccd34cd5146103d9578063db2e21bc146103e2578063f2fde38b146103ea578063f40f0f52146103fd57600080fd5b8063a9f8d1811461039d578063b6b55f25146103a6578063cc7a262e146103b957600080fd5b806392e8990e116100d357806392e8990e1461035c5780639513997f146103645780639be65a6014610377578063a0b409051461038a57600080fd5b80638ad1071b1461032c5780638da5cb5b146103355780638f6629151461035357600080fd5b806348cd4cb1116101665780636d0e002c116101405780636d0e002c146102e2578063715018a61461030957806380dc06721461031157806383a5041c1461031957600080fd5b806348cd4cb1146102c35780634a7c01ec146102cc57806366fe9f8a146102d957600080fd5b80633279beab116101a25780633279beab14610236578063392e53cd14610249578063448b7a511461026b578063462293a3146102b057600080fd5b80631959a002146101c95780631aed65531461020a5780632e1a7d4d14610221575b600080fd5b6101f06101d7366004612075565b600c602052600090815260409020805460019091015482565b604080519283526020830191909152015b60405180910390f35b61021360045481565b604051908152602001610201565b61023461022f366004612149565b610410565b005b610234610244366004612149565b6105e3565b60025461025b90610100900460ff1681565b6040519015158152602001610201565b600a5461028b9073ffffffffffffffffffffffffffffffffffffffff1681565b60405173ffffffffffffffffffffffffffffffffffffffff9091168152602001610201565b6102346102be366004612149565b610671565b61021360055481565b60025461025b9060ff1681565b61021360075481565b61028b7f000000000000000000000000000000000000000000000000000000000000000081565b6102346106f4565b610234610781565b6102346103273660046120d8565b610808565b61021360085481565b60005473ffffffffffffffffffffffffffffffffffffffff1661028b565b61021360035481565b61025b610a01565b610234610372366004612179565b610a36565b610234610385366004612075565b610e97565b6102346103983660046120ad565b611212565b61021360065481565b6102346103b4366004612149565b6113eb565b600b5461028b9073ffffffffffffffffffffffffffffffffffffffff1681565b61021360095481565b610234611467565b6102346103f8366004612075565b611560565b61021361040b366004612075565b61168d565b60026001541415610482576040517f08c379a000000000000000000000000000000000000000000000000000000000815260206004820152601f60248201527f5265656e7472616e637947756172643a207265656e7472616e742063616c6c0060448201526064015b60405180910390fd5b6002600155336000908152600c602052604090208054821115610501576040517f08c379a000000000000000000000000000000000000000000000000000000000815260206004820152601b60248201527f416d6f756e7420746f20776974686472617720746f6f206869676800000000006044820152606401610479565b610509611811565b6000816001015460095460035484600001546105259190612258565b61052f919061221f565b6105399190612295565b9050821561057457815461054e908490612295565b8255600b546105749073ffffffffffffffffffffffffffffffffffffffff16338561191f565b80156105845761058481336119f8565b60095460035483546105969190612258565b6105a0919061221f565b600183015560405183815233907f884edad9ce6fa2440d8a54cc123490eb96d2768479d49ff9c7366125a94243649060200160405180910390a250506001805550565b60005473ffffffffffffffffffffffffffffffffffffffff163314610664576040517f08c379a000000000000000000000000000000000000000000000000000000000815260206004820181905260248201527f4f776e61626c653a2063616c6c6572206973206e6f7420746865206f776e65726044820152606401610479565b61066e81336119f8565b50565b600260015414156106de576040517f08c379a000000000000000000000000000000000000000000000000000000000815260206004820152601f60248201527f5265656e7472616e637947756172643a207265656e7472616e742063616c6c006044820152606401610479565b60026001556106ed8132611a88565b5060018055565b60005473ffffffffffffffffffffffffffffffffffffffff163314610775576040517f08c379a000000000000000000000000000000000000000000000000000000000815260206004820181905260248201527f4f776e61626c653a2063616c6c6572206973206e6f7420746865206f776e65726044820152606401610479565b61077f6000611c4d565b565b60005473ffffffffffffffffffffffffffffffffffffffff163314610802576040517f08c379a000000000000000000000000000000000000000000000000000000000815260206004820181905260248201527f4f776e61626c653a2063616c6c6572206973206e6f7420746865206f776e65726044820152606401610479565b43600455565b600254610100900460ff161561087a576040517f08c379a000000000000000000000000000000000000000000000000000000000815260206004820152601360248201527f416c726561647920696e697469616c697a6564000000000000000000000000006044820152606401610479565b3373ffffffffffffffffffffffffffffffffffffffff7f00000000000000000000000000000000000000000000000000000000000000001614610919576040517f08c379a000000000000000000000000000000000000000000000000000000000815260206004820152600b60248201527f4e6f7420666163746f72790000000000000000000000000000000000000000006044820152606401610479565b600280547fffffffffffffffffffffffffffffffffffffffffffffffffffffffffffff00ff16610100179055600b805473ffffffffffffffffffffffffffffffffffffffff808a167fffffffffffffffffffffffff000000000000000000000000000000000000000092831617909255600a8054928916929091169190911790556005859055600484905582156109e057600280547fffffffffffffffffffffffffffffffffffffffffffffffffffffffffffffff00166001179055600783905560088290555b64e8d4a510006009556005546006556109f881611560565b50505050505050565b60025460009060ff161580610a255750600854600554610a219190612207565b4310155b15610a305750600090565b50600190565b60005473ffffffffffffffffffffffffffffffffffffffff163314610ab7576040517f08c379a000000000000000000000000000000000000000000000000000000000815260206004820181905260248201527f4f776e61626c653a2063616c6c6572206973206e6f7420746865206f776e65726044820152606401610479565b6005544310610b22576040517f08c379a000000000000000000000000000000000000000000000000000000000815260206004820152601060248201527f506f6f6c206861732073746172746564000000000000000000000000000000006044820152606401610479565b808210610bb1576040517f08c379a000000000000000000000000000000000000000000000000000000000815260206004820152602e60248201527f4e6577207374617274426c6f636b206d757374206265206c6f7765722074686160448201527f6e206e657720656e64426c6f636b0000000000000000000000000000000000006064820152608401610479565b814310610c40576040517f08c379a000000000000000000000000000000000000000000000000000000000815260206004820152603060248201527f4e6577207374617274426c6f636b206d7573742062652068696768657220746860448201527f616e2063757272656e7420626c6f636b000000000000000000000000000000006064820152608401610479565b600a546040517f70a0823100000000000000000000000000000000000000000000000000000000815230600482015260009173ffffffffffffffffffffffffffffffffffffffff16906370a082319060240160206040518083038186803b158015610caa57600080fd5b505afa158015610cbe573d6000803e3d6000fd5b505050506040513d601f19601f82011682018060405250810190610ce29190612161565b90506000610cf08484612295565b610d0290670de0b6b3a7640000612258565b9050818114610e495781811115610db057600a5473ffffffffffffffffffffffffffffffffffffffff1663306a4bf4610d3b8484612295565b6040517fffffffff0000000000000000000000000000000000000000000000000000000060e084901b168152600481019190915260016024820152604401600060405180830381600087803b158015610d9357600080fd5b505af1158015610da7573d6000803e3d6000fd5b50505050610e49565b600a5473ffffffffffffffffffffffffffffffffffffffff1663306a4bf4610dd88385612295565b6040517fffffffff0000000000000000000000000000000000000000000000000000000060e084901b168152600481019190915260006024820152604401600060405180830381600087803b158015610e3057600080fd5b505af1158015610e44573d6000803e3d6000fd5b505050505b60058490556004839055600684905560408051858152602081018590527f7cd0ab87d19036f3dfadadb232c78aa4879dda3f0c994a9d637532410ee2ce06910160405180910390a150505050565b60005473ffffffffffffffffffffffffffffffffffffffff163314610f18576040517f08c379a000000000000000000000000000000000000000000000000000000000815260206004820181905260248201527f4f776e61626c653a2063616c6c6572206973206e6f7420746865206f776e65726044820152606401610479565b600b5473ffffffffffffffffffffffffffffffffffffffff82811691161415610fc3576040517f08c379a000000000000000000000000000000000000000000000000000000000815260206004820152602760248201527f4f7065726174696f6e733a2043616e6e6f74207265636f766572207374616b6560448201527f6420746f6b656e000000000000000000000000000000000000000000000000006064820152608401610479565b600a5473ffffffffffffffffffffffffffffffffffffffff8281169116141561106e576040517f08c379a000000000000000000000000000000000000000000000000000000000815260206004820152602e60248201527f4f7065726174696f6e733a2043616e6e6f74207265636f766572205073696f6e60448201527f6963205661756c7420746f6b656e0000000000000000000000000000000000006064820152608401610479565b6040517f70a0823100000000000000000000000000000000000000000000000000000000815230600482015260009073ffffffffffffffffffffffffffffffffffffffff8316906370a082319060240160206040518083038186803b1580156110d657600080fd5b505afa1580156110ea573d6000803e3d6000fd5b505050506040513d601f19601f8201168201806040525081019061110e9190612161565b90508061119d576040517f08c379a000000000000000000000000000000000000000000000000000000000815260206004820152602760248201527f4f7065726174696f6e733a2043616e6e6f74207265636f766572207a65726f2060448201527f62616c616e6365000000000000000000000000000000000000000000000000006064820152608401610479565b6111be73ffffffffffffffffffffffffffffffffffffffff8316338361191f565b8173ffffffffffffffffffffffffffffffffffffffff167f14f11966a996e0629572e51064726d2057a80fbd34efc066682c06a71dbb6e988260405161120691815260200190565b60405180910390a25050565b60005473ffffffffffffffffffffffffffffffffffffffff163314611293576040517f08c379a000000000000000000000000000000000000000000000000000000000815260206004820181905260248201527f4f776e61626c653a2063616c6c6572206973206e6f7420746865206f776e65726044820152606401610479565b60025460ff166112ff576040517f08c379a000000000000000000000000000000000000000000000000000000000815260206004820152600b60248201527f4d757374206265207365740000000000000000000000000000000000000000006044820152606401610479565b811561137a576007548111611370576040517f08c379a000000000000000000000000000000000000000000000000000000000815260206004820152601860248201527f4e6577206c696d6974206d7573742062652068696768657200000000000000006044820152606401610479565b60078190556113ac565b600280547fffffffffffffffffffffffffffffffffffffffffffffffffffffffffffffff001683151517905560006007555b7f241f67ee5f41b7a5cabf911367329be7215900f602ebfc47f89dce2a6bcd847c6007546040516113df91815260200190565b60405180910390a15050565b60026001541415611458576040517f08c379a000000000000000000000000000000000000000000000000000000000815260206004820152601f60248201527f5265656e7472616e637947756172643a207265656e7472616e742063616c6c006044820152606401610479565b60026001556106ed8133611a88565b600260015414156114d4576040517f08c379a000000000000000000000000000000000000000000000000000000000815260206004820152601f60248201527f5265656e7472616e637947756172643a207265656e7472616e742063616c6c006044820152606401610479565b60026001908155336000908152600c6020526040812080548282559281019190915590801561152157600b546115219073ffffffffffffffffffffffffffffffffffffffff16338361191f565b815460405190815233907f5fafa99d0643513820be26656b45130b01e1c03062e1266bf36f88cbd3bd96959060200160405180910390a2505060018055565b60005473ffffffffffffffffffffffffffffffffffffffff1633146115e1576040517f08c379a000000000000000000000000000000000000000000000000000000000815260206004820181905260248201527f4f776e61626c653a2063616c6c6572206973206e6f7420746865206f776e65726044820152606401610479565b73ffffffffffffffffffffffffffffffffffffffff8116611684576040517f08c379a000000000000000000000000000000000000000000000000000000000815260206004820152602660248201527f4f776e61626c653a206e6577206f776e657220697320746865207a65726f206160448201527f64647265737300000000000000000000000000000000000000000000000000006064820152608401610479565b61066e81611c4d565b73ffffffffffffffffffffffffffffffffffffffff8181166000908152600c6020526040808220600b5491517f70a08231000000000000000000000000000000000000000000000000000000008152306004820152929390928492909116906370a082319060240160206040518083038186803b15801561170d57600080fd5b505afa158015611721573d6000803e3d6000fd5b505050506040513d601f19601f820116820180604052508101906117459190612161565b90506006544311801561175757508015155b156117de57600061176a60065443611cc2565b61177c90670de0b6b3a7640000612258565b90506000826009548361178f9190612258565b611799919061221f565b6003546117a69190612207565b905083600101546009548286600001546117c09190612258565b6117ca919061221f565b6117d49190612295565b9695505050505050565b600182015460095460035484546117f59190612258565b6117ff919061221f565b6118099190612295565b949350505050565b600654431161181c57565b600b546040517f70a0823100000000000000000000000000000000000000000000000000000000815230600482015260009173ffffffffffffffffffffffffffffffffffffffff16906370a082319060240160206040518083038186803b15801561188657600080fd5b505afa15801561189a573d6000803e3d6000fd5b505050506040513d601f19601f820116820180604052508101906118be9190612161565b9050806118cc575043600655565b60006118da60065443611cc2565b6118ec90670de0b6b3a7640000612258565b905081600954826118fd9190612258565b611907919061221f565b6003546119149190612207565b600355505043600655565b60405173ffffffffffffffffffffffffffffffffffffffff83166024820152604481018290526119f39084907fa9059cbb00000000000000000000000000000000000000000000000000000000906064015b604080517fffffffffffffffffffffffffffffffffffffffffffffffffffffffffffffffe08184030181529190526020810180517bffffffffffffffffffffffffffffffffffffffffffffffffffffffff167fffffffff0000000000000000000000000000000000000000000000000000000090931692909217909152611d03565b505050565b600a546040517f9dc29fac00000000000000000000000000000000000000000000000000000000815273ffffffffffffffffffffffffffffffffffffffff83811660048301526024820185905290911690639dc29fac90604401600060405180830381600087803b158015611a6c57600080fd5b505af1158015611a80573d6000803e3d6000fd5b505050505050565b73ffffffffffffffffffffffffffffffffffffffff81166000908152600c60205260409020611ab5610a01565b600280547fffffffffffffffffffffffffffffffffffffffffffffffffffffffffffffff0016911515918217905560ff161580611aff57506007548154611afc9085612207565b11155b611b65576040517f08c379a000000000000000000000000000000000000000000000000000000000815260206004820152601b60248201527f4465706f7369743a20416d6f756e742061626f7665206c696d697400000000006044820152606401610479565b611b6d611811565b805415611bb857600081600101546009546003548460000154611b909190612258565b611b9a919061221f565b611ba49190612295565b90508015611bb657611bb681846119f8565b505b8215611bf2578054611bcb908490612207565b8155600b54611bf29073ffffffffffffffffffffffffffffffffffffffff16833086611e0f565b6009546003548254611c049190612258565b611c0e919061221f565b600182015560405183815233907fe1fffcc4923d04b559f4d29a8bfc6cda04eb5b0d3c460751c2402c5c5cc9109c9060200160405180910390a2505050565b6000805473ffffffffffffffffffffffffffffffffffffffff8381167fffffffffffffffffffffffff0000000000000000000000000000000000000000831681178455604051919092169283917f8be0079c531659141344cd1fd0a4f28419497f9722a3daafe3b4186f6b6457e09190a35050565b60006004548211611cde57611cd78383612295565b9050611cfd565b6004548310611cef57506000611cfd565b82600454611cd79190612295565b92915050565b6000611d65826040518060400160405280602081526020017f5361666545524332303a206c6f772d6c6576656c2063616c6c206661696c65648152508573ffffffffffffffffffffffffffffffffffffffff16611e739092919063ffffffff16565b8051909150156119f35780806020019051810190611d839190612091565b6119f3576040517f08c379a000000000000000000000000000000000000000000000000000000000815260206004820152602a60248201527f5361666545524332303a204552433230206f7065726174696f6e20646964206e60448201527f6f742073756363656564000000000000000000000000000000000000000000006064820152608401610479565b60405173ffffffffffffffffffffffffffffffffffffffff80851660248301528316604482015260648101829052611e6d9085907f23b872dd0000000000000000000000000000000000000000000000000000000090608401611971565b50505050565b6060611e828484600085611e8c565b90505b9392505050565b606082471015611f1e576040517f08c379a000000000000000000000000000000000000000000000000000000000815260206004820152602660248201527f416464726573733a20696e73756666696369656e742062616c616e636520666f60448201527f722063616c6c00000000000000000000000000000000000000000000000000006064820152608401610479565b73ffffffffffffffffffffffffffffffffffffffff85163b611f9c576040517f08c379a000000000000000000000000000000000000000000000000000000000815260206004820152601d60248201527f416464726573733a2063616c6c20746f206e6f6e2d636f6e74726163740000006044820152606401610479565b6000808673ffffffffffffffffffffffffffffffffffffffff168587604051611fc5919061219a565b60006040518083038185875af1925050503d8060008114612002576040519150601f19603f3d011682016040523d82523d6000602084013e612007565b606091505b5091509150612017828286612022565b979650505050505050565b60608315612031575081611e85565b8251156120415782518084602001fd5b816040517f08c379a000000000000000000000000000000000000000000000000000000000815260040161047991906121b6565b600060208284031215612086578081fd5b8135611e8581612307565b6000602082840312156120a2578081fd5b8151611e8581612329565b600080604083850312156120bf578081fd5b82356120ca81612329565b946020939093013593505050565b600080600080600080600060e0888a0312156120f2578283fd5b87356120fd81612307565b9650602088013561210d81612307565b955060408801359450606088013593506080880135925060a0880135915060c088013561213981612307565b8091505092959891949750929550565b60006020828403121561215a578081fd5b5035919050565b600060208284031215612172578081fd5b5051919050565b6000806040838503121561218b578182fd5b50508035926020909101359150565b600082516121ac8184602087016122ac565b9190910192915050565b60208152600082518060208401526121d58160408501602087016122ac565b601f017fffffffffffffffffffffffffffffffffffffffffffffffffffffffffffffffe0169190910160400192915050565b6000821982111561221a5761221a6122d8565b500190565b600082612253577f4e487b710000000000000000000000000000000000000000000000000000000081526012600452602481fd5b500490565b6000817fffffffffffffffffffffffffffffffffffffffffffffffffffffffffffffffff0483118215151615612290576122906122d8565b500290565b6000828210156122a7576122a76122d8565b500390565b60005b838110156122c75781810151838201526020016122af565b83811115611e6d5750506000910152565b7f4e487b7100000000000000000000000000000000000000000000000000000000600052601160045260246000fd5b73ffffffffffffffffffffffffffffffffffffffff8116811461066e57600080fd5b801515811461066e57600080fdfea26469706673582212202e05e3fbbb724b5b823db00b8a42a52710d9d2120f5ee20ce8ef0ffa08e846b564736f6c63430008040033a2646970667358221220ad40919027529cde1cbf395a83149262fadf4dd133ed50c22796dacb409fa44864736f6c63430008040033",
  "devdoc": {
    "kind": "dev",
    "methods": {
      "owner()": {
        "details": "Returns the address of the current owner."
      },
      "renounceOwnership()": {
        "details": "Leaves the contract without owner. It will not be possible to call `onlyOwner` functions anymore. Can only be called by the current owner. NOTE: Renouncing ownership will leave the contract without an owner, thereby removing any functionality that is only available to the owner."
      },
      "transferOwnership(address)": {
        "details": "Transfers ownership of the contract to a new account (`newOwner`). Can only be called by the current owner."
      }
    },
    "version": 1
  },
  "userdoc": {
    "kind": "user",
    "methods": {},
    "version": 1
  },
  "storageLayout": {
    "storage": [
      {
        "astId": 7,
        "contract": "contracts/PsionicFarmFactory.sol:PsionicFarmFactory",
        "label": "_owner",
        "offset": 0,
        "slot": "0",
        "type": "t_address"
      }
    ],
    "types": {
      "t_address": {
        "encoding": "inplace",
        "label": "address",
        "numberOfBytes": "20"
      }
    }
  }
}