{
  "address": "0x0dB43854E3143b383461a0Df4054d820fc4Be4D2",
  "abi": [
    {
      "inputs": [
        {
          "internalType": "address",
          "name": "_token_address",
          "type": "address"
        },
        {
          "internalType": "bytes32",
          "name": "_merkleRoot",
          "type": "bytes32"
        },
        {
          "internalType": "uint256",
          "name": "_start_time",
          "type": "uint256"
        },
        {
          "internalType": "uint256",
          "name": "_end_time",
          "type": "uint256"
        }
      ],
      "stateMutability": "nonpayable",
      "type": "constructor"
    },
    {
      "anonymous": false,
      "inputs": [
        {
          "indexed": false,
          "internalType": "uint256",
          "name": "amount",
          "type": "uint256"
        },
        {
          "indexed": false,
          "internalType": "uint256",
          "name": "timestamp",
          "type": "uint256"
        }
      ],
      "name": "Claimed",
      "type": "event"
    },
    {
      "anonymous": false,
      "inputs": [
        {
          "indexed": true,
          "internalType": "address",
          "name": "previousOwner",
          "type": "address"
        },
        {
          "indexed": true,
          "internalType": "address",
          "name": "newOwner",
          "type": "address"
        }
      ],
      "name": "OwnershipTransferred",
      "type": "event"
    },
    {
      "anonymous": false,
      "inputs": [
        {
          "indexed": false,
          "internalType": "uint256",
          "name": "total",
          "type": "uint256"
        },
        {
          "indexed": false,
          "internalType": "uint256",
          "name": "timestamp",
          "type": "uint256"
        }
      ],
      "name": "Recharged",
      "type": "event"
    },
    {
      "anonymous": false,
      "inputs": [
        {
          "indexed": false,
          "internalType": "bytes32",
          "name": "previous",
          "type": "bytes32"
        },
        {
          "indexed": false,
          "internalType": "bytes32",
          "name": "now",
          "type": "bytes32"
        }
      ],
      "name": "RootChanged",
      "type": "event"
    },
    {
      "anonymous": false,
      "inputs": [
        {
          "indexed": false,
          "internalType": "uint256",
          "name": "left",
          "type": "uint256"
        },
        {
          "indexed": false,
          "internalType": "uint256",
          "name": "timestamp",
          "type": "uint256"
        }
      ],
      "name": "Withdrawed",
      "type": "event"
    },
    {
      "inputs": [
        {
          "internalType": "uint256",
          "name": "index",
          "type": "uint256"
        },
        {
          "internalType": "address",
          "name": "claimer",
          "type": "address"
        },
        {
          "internalType": "uint256",
          "name": "amount",
          "type": "uint256"
        },
        {
          "internalType": "bytes32[]",
          "name": "merkleProof",
          "type": "bytes32[]"
        }
      ],
      "name": "check",
      "outputs": [
        {
          "internalType": "bool",
          "name": "available",
          "type": "bool"
        },
        {
          "internalType": "uint256",
          "name": "start",
          "type": "uint256"
        },
        {
          "internalType": "uint256",
          "name": "end",
          "type": "uint256"
        },
        {
          "internalType": "uint256",
          "name": "claimable",
          "type": "uint256"
        }
      ],
      "stateMutability": "view",
      "type": "function"
    },
    {
      "inputs": [
        {
          "internalType": "uint256",
          "name": "index",
          "type": "uint256"
        },
        {
          "internalType": "uint256",
          "name": "amount",
          "type": "uint256"
        },
        {
          "internalType": "bytes32[]",
          "name": "merkleProof",
          "type": "bytes32[]"
        }
      ],
      "name": "claim",
      "outputs": [],
      "stateMutability": "nonpayable",
      "type": "function"
    },
    {
      "inputs": [],
      "name": "owner",
      "outputs": [
        {
          "internalType": "address",
          "name": "",
          "type": "address"
        }
      ],
      "stateMutability": "view",
      "type": "function"
    },
    {
      "inputs": [
        {
          "internalType": "uint256",
          "name": "_total",
          "type": "uint256"
        }
      ],
      "name": "recharge",
      "outputs": [],
      "stateMutability": "nonpayable",
      "type": "function"
    },
    {
      "inputs": [],
      "name": "renounceOwnership",
      "outputs": [],
      "stateMutability": "nonpayable",
      "type": "function"
    },
    {
      "inputs": [
        {
          "internalType": "bytes32",
          "name": "root",
          "type": "bytes32"
        }
      ],
      "name": "set_root",
      "outputs": [],
      "stateMutability": "nonpayable",
      "type": "function"
    },
    {
      "inputs": [
        {
          "internalType": "address",
          "name": "newOwner",
          "type": "address"
        }
      ],
      "name": "transferOwnership",
      "outputs": [],
      "stateMutability": "nonpayable",
      "type": "function"
    },
    {
      "inputs": [],
      "name": "withdraw",
      "outputs": [],
      "stateMutability": "nonpayable",
      "type": "function"
    }
  ],
  "transactionHash": "0x757d4d88545d6c5b21ae5ce05d86d5b6602894a969829ce5aaeabe2df3f83ca0",
  "args": [
    "0xe6AeA92Ec3338B57Aa37C2606a194a3D97Ae32Bd",
    "0x3c792f49dc57685a445509da9337db670ac30de4b2b9e25f074b20f2addb72f1",
    1656510596,
    1756510596
  ],
  "numDeployments": 1,
  "solcInputHash": "49047995fc5ca13ac98e5a7a05b4c529",
  "bytecode": "0x60806040523480156200001157600080fd5b5060405162001a2238038062001a2283398101604081905262000034916200019b565b6001600055620000443362000149565b66010000000000008210620000955760405162461bcd60e51b8152602060048201526012602482015271496e76616c69642053746172742054696d6560701b60448201526064015b60405180910390fd5b66010000000000008110620000e05760405162461bcd60e51b815260206004820152601060248201526f496e76616c696420456e642054696d6560801b60448201526064016200008c565b600392909255600480546001600160a01b03908116600160a01b65ffffffffffff948516026001600160d01b031617600160d01b9390941692909202929092176001600160a01b03199081169390911692909217905560028054339216919091179055620001e6565b600180546001600160a01b038381166001600160a01b0319831681179093556040519116919082907f8be0079c531659141344cd1fd0a4f28419497f9722a3daafe3b4186f6b6457e090600090a35050565b60008060008060808587031215620001b1578384fd5b84516001600160a01b0381168114620001c8578485fd5b60208601516040870151606090970151919890975090945092505050565b61182c80620001f66000396000f3fe608060405234801561001057600080fd5b50600436106100885760003560e01c8063e949c9cc1161005b578063e949c9cc146100df578063ef299b0b14610114578063f2fde38b14610127578063fe64d3021461013a57600080fd5b80633ccfd60b1461008d578063715018a6146100975780638da5cb5b1461009f578063ae0b51df146100cc575b600080fd5b61009561014d565b005b6100956104a2565b60015460405173ffffffffffffffffffffffffffffffffffffffff90911681526020015b60405180910390f35b6100956100da3660046115f9565b61052f565b6100f26100ed366004611593565b610989565b60408051941515855260208501939093529183015260608201526080016100c3565b610095610122366004611563565b610b08565b610095610135366004611529565b610d4e565b610095610148366004611563565b610e7e565b60015473ffffffffffffffffffffffffffffffffffffffff1633146101d3576040517f08c379a000000000000000000000000000000000000000000000000000000000815260206004820181905260248201527f4f776e61626c653a2063616c6c6572206973206e6f7420746865206f776e657260448201526064015b60405180910390fd5b6040805160608101825260045473ffffffffffffffffffffffffffffffffffffffff8116825265ffffffffffff740100000000000000000000000000000000000000008204811660208401527a010000000000000000000000000000000000000000000000000000909104169181018290529042116102ae576040517f08c379a000000000000000000000000000000000000000000000000000000000815260206004820152600b60248201527f4e6f74204578706972656400000000000000000000000000000000000000000060448201526064016101ca565b80516040517f70a0823100000000000000000000000000000000000000000000000000000000815230600482015260009173ffffffffffffffffffffffffffffffffffffffff16906370a082319060240160206040518083038186803b15801561031757600080fd5b505afa15801561032b573d6000803e3d6000fd5b505050506040513d601f19601f8201168201806040525081019061034f919061157b565b9050600081116103bb576040517f08c379a000000000000000000000000000000000000000000000000000000000815260206004820152600560248201527f576861743f00000000000000000000000000000000000000000000000000000060448201526064016101ca565b81516040517fa9059cbb0000000000000000000000000000000000000000000000000000000081523360048201526024810183905273ffffffffffffffffffffffffffffffffffffffff9091169063a9059cbb90604401602060405180830381600087803b15801561042c57600080fd5b505af1158015610440573d6000803e3d6000fd5b505050506040513d601f19601f820116820180604052508101906104649190611543565b50604080518281524260208201527f51004219dbd7ac7ea5761611bcf7e1b506eff67ac8f407f5e26bdc31497a9e6591015b60405180910390a15050565b60015473ffffffffffffffffffffffffffffffffffffffff163314610523576040517f08c379a000000000000000000000000000000000000000000000000000000000815260206004820181905260248201527f4f776e61626c653a2063616c6c6572206973206e6f7420746865206f776e657260448201526064016101ca565b61052d6000610f40565b565b6002600054141561059c576040517f08c379a000000000000000000000000000000000000000000000000000000000815260206004820152601f60248201527f5265656e7472616e637947756172643a207265656e7472616e742063616c6c0060448201526064016101ca565b60026000556105aa84610fb7565b15610611576040517f08c379a000000000000000000000000000000000000000000000000000000000815260206004820152600f60248201527f416c726561647920436c61696d6564000000000000000000000000000000000060448201526064016101ca565b60045474010000000000000000000000000000000000000000900465ffffffffffff16421161069c576040517f08c379a000000000000000000000000000000000000000000000000000000000815260206004820152600b60248201527f4e6f74205374617274656400000000000000000000000000000000000000000060448201526064016101ca565b6004547a010000000000000000000000000000000000000000000000000000900465ffffffffffff164210801561070f575060045460059062015180906107039074010000000000000000000000000000000000000000900465ffffffffffff1642611708565b61070d91906116b7565b105b610775576040517f08c379a000000000000000000000000000000000000000000000000000000000815260206004820152600760248201527f457870697265640000000000000000000000000000000000000000000000000060448201526064016101ca565b60408051602081018690527fffffffffffffffffffffffffffffffffffffffff0000000000000000000000003360601b169181019190915260548101849052600090607401604051602081830303815290604052805190602001209050610813838380806020026020016040519081016040528093929190818152602001838360200280828437600092019190915250506003549150849050611001565b610879576040517f08c379a000000000000000000000000000000000000000000000000000000000815260206004820152600c60248201527f4e6f74205665726966696564000000000000000000000000000000000000000060448201526064016101ca565b61088b670de0b6b3a7640000856116cb565b600480546040517fa9059cbb00000000000000000000000000000000000000000000000000000000815233928101929092526024820183905291955073ffffffffffffffffffffffffffffffffffffffff9091169063a9059cbb90604401602060405180830381600087803b15801561090357600080fd5b505af1158015610917573d6000803e3d6000fd5b505050506040513d601f19601f8201168201806040525081019061093b9190611543565b5061094585611019565b604080518581524260208201527fc83b5086ce94ec8d5a88a9f5fea4b18a522bb238ed0d2d8abd959549a80c16b8910160405180910390a150506001600055505050565b60008060008061099889610fb7565b156109ff576040517f08c379a000000000000000000000000000000000000000000000000000000000815260206004820152600f60248201527f416c726561647920436c61696d6564000000000000000000000000000000000060448201526064016101ca565b60408051602081018b90527fffffffffffffffffffffffffffffffffffffffff00000000000000000000000060608b901b169181019190915260548101889052600090607401604051602081830303815290604052805190602001209050610a9e878780806020026020016040519081016040528093929190818152602001838360200280828437600092019190915250506003549150849050611001565b60045490955065ffffffffffff740100000000000000000000000000000000000000008204811695507a01000000000000000000000000000000000000000000000000000090910416925084610af75760009150610afb565b8791505b5095509550955095915050565b60015473ffffffffffffffffffffffffffffffffffffffff163314610b89576040517f08c379a000000000000000000000000000000000000000000000000000000000815260206004820181905260248201527f4f776e61626c653a2063616c6c6572206973206e6f7420746865206f776e657260448201526064016101ca565b604080516060810182526004805473ffffffffffffffffffffffffffffffffffffffff811680845265ffffffffffff740100000000000000000000000000000000000000008304811660208601527a0100000000000000000000000000000000000000000000000000009092049091168385015292517fdd62ed3e00000000000000000000000000000000000000000000000000000000815233918101919091523060248201529091839163dd62ed3e9060440160206040518083038186803b158015610c5557600080fd5b505afa158015610c69573d6000803e3d6000fd5b505050506040513d601f19601f82011682018060405250810190610c8d919061157b565b1015610cf5576040517f08c379a000000000000000000000000000000000000000000000000000000000815260206004820152601160248201527f5745204e454544204d4f5245212121212100000000000000000000000000000060448201526064016101ca565b8051610d199073ffffffffffffffffffffffffffffffffffffffff1633308561106f565b604080518381524260208201527f3d189e703cc41fe2a7fb25f9ac29113df468b8358774d676aef34a3d395b38889101610496565b60015473ffffffffffffffffffffffffffffffffffffffff163314610dcf576040517f08c379a000000000000000000000000000000000000000000000000000000000815260206004820181905260248201527f4f776e61626c653a2063616c6c6572206973206e6f7420746865206f776e657260448201526064016101ca565b73ffffffffffffffffffffffffffffffffffffffff8116610e72576040517f08c379a000000000000000000000000000000000000000000000000000000000815260206004820152602660248201527f4f776e61626c653a206e6577206f776e657220697320746865207a65726f206160448201527f646472657373000000000000000000000000000000000000000000000000000060648201526084016101ca565b610e7b81610f40565b50565b60015473ffffffffffffffffffffffffffffffffffffffff163314610eff576040517f08c379a000000000000000000000000000000000000000000000000000000000815260206004820181905260248201527f4f776e61626c653a2063616c6c6572206973206e6f7420746865206f776e657260448201526064016101ca565b60035460408051918252602082018390527f92f247115807457a9c60b05f44c4a4efb6193b0b9559d171999b156dedb6ecbb910160405180910390a1600355565b6001805473ffffffffffffffffffffffffffffffffffffffff8381167fffffffffffffffffffffffff0000000000000000000000000000000000000000831681179093556040519116919082907f8be0079c531659141344cd1fd0a4f28419497f9722a3daafe3b4186f6b6457e090600090a35050565b6000610fc561010083611784565b6001901b610fd561010084611784565b6001901b60056000610fe9610100876116b7565b81526020019081526020016000205416149050919050565b60008261100e858461110a565b1490505b9392505050565b60056000611029610100846116b7565b815260200190815260200160002054610100826110469190611784565b6001901b176005600061105b610100856116b7565b815260208101919091526040016000205550565b6040805173ffffffffffffffffffffffffffffffffffffffff85811660248301528416604482015260648082018490528251808303909101815260849091019091526020810180517bffffffffffffffffffffffffffffffffffffffffffffffffffffffff167f23b872dd000000000000000000000000000000000000000000000000000000001790526111049085906111a5565b50505050565b600081815b845181101561119d576000858281518110611153577f4e487b7100000000000000000000000000000000000000000000000000000000600052603260045260246000fd5b60200260200101519050808311611179576000838152602082905260409020925061118a565b600081815260208490526040902092505b50806111958161174b565b91505061110f565b509392505050565b6000611207826040518060400160405280602081526020017f5361666545524332303a206c6f772d6c6576656c2063616c6c206661696c65648152508573ffffffffffffffffffffffffffffffffffffffff166112b69092919063ffffffff16565b8051909150156112b157808060200190518101906112259190611543565b6112b1576040517f08c379a000000000000000000000000000000000000000000000000000000000815260206004820152602a60248201527f5361666545524332303a204552433230206f7065726174696f6e20646964206e60448201527f6f7420737563636565640000000000000000000000000000000000000000000060648201526084016101ca565b505050565b60606112c584846000856112cd565b949350505050565b60608247101561135f576040517f08c379a000000000000000000000000000000000000000000000000000000000815260206004820152602660248201527f416464726573733a20696e73756666696369656e742062616c616e636520666f60448201527f722063616c6c000000000000000000000000000000000000000000000000000060648201526084016101ca565b73ffffffffffffffffffffffffffffffffffffffff85163b6113dd576040517f08c379a000000000000000000000000000000000000000000000000000000000815260206004820152601d60248201527f416464726573733a2063616c6c20746f206e6f6e2d636f6e747261637400000060448201526064016101ca565b6000808673ffffffffffffffffffffffffffffffffffffffff168587604051611406919061164a565b60006040518083038185875af1925050503d8060008114611443576040519150601f19603f3d011682016040523d82523d6000602084013e611448565b606091505b5091509150611458828286611463565b979650505050505050565b60608315611472575081611012565b8251156114825782518084602001fd5b816040517f08c379a00000000000000000000000000000000000000000000000000000000081526004016101ca9190611666565b803573ffffffffffffffffffffffffffffffffffffffff811681146114da57600080fd5b919050565b60008083601f8401126114f0578182fd5b50813567ffffffffffffffff811115611507578182fd5b6020830191508360208260051b850101111561152257600080fd5b9250929050565b60006020828403121561153a578081fd5b611012826114b6565b600060208284031215611554578081fd5b81518015158114611012578182fd5b600060208284031215611574578081fd5b5035919050565b60006020828403121561158c578081fd5b5051919050565b6000806000806000608086880312156115aa578081fd5b853594506115ba602087016114b6565b935060408601359250606086013567ffffffffffffffff8111156115dc578182fd5b6115e8888289016114df565b969995985093965092949392505050565b6000806000806060858703121561160e578384fd5b8435935060208501359250604085013567ffffffffffffffff811115611632578283fd5b61163e878288016114df565b95989497509550505050565b6000825161165c81846020870161171f565b9190910192915050565b602081526000825180602084015261168581604085016020870161171f565b601f017fffffffffffffffffffffffffffffffffffffffffffffffffffffffffffffffe0169190910160400192915050565b6000826116c6576116c66117c7565b500490565b6000817fffffffffffffffffffffffffffffffffffffffffffffffffffffffffffffffff048311821515161561170357611703611798565b500290565b60008282101561171a5761171a611798565b500390565b60005b8381101561173a578181015183820152602001611722565b838111156111045750506000910152565b60007fffffffffffffffffffffffffffffffffffffffffffffffffffffffffffffffff82141561177d5761177d611798565b5060010190565b600082611793576117936117c7565b500690565b7f4e487b7100000000000000000000000000000000000000000000000000000000600052601160045260246000fd5b7f4e487b7100000000000000000000000000000000000000000000000000000000600052601260045260246000fdfea2646970667358221220c8767ca38380b95788cc459e81f0f5f01e62410bb49c0850d1d835c76c99d15764736f6c63430008040033",
  "devdoc": {
    "kind": "dev",
    "methods": {
      "owner()": {
        "details": "Returns the address of the current owner."
      },
      "renounceOwnership()": {
        "details": "Leaves the contract without owner. It will not be possible to call `onlyOwner` functions anymore. Can only be called by the current owner. NOTE: Renouncing ownership will leave the contract without an owner, thereby removing any functionality that is only available to the owner."
      },
      "transferOwnership(address)": {
        "details": "Transfers ownership of the contract to a new account (`newOwner`). Can only be called by the current owner."
      }
    },
    "version": 1
  },
  "userdoc": {
    "kind": "user",
    "methods": {},
    "version": 1
  },
  "storageLayout": {
    "storage": [
      {
        "astId": 115,
        "contract": "contracts/ZirconDrop.sol:ZirconDrop",
        "label": "_status",
        "offset": 0,
        "slot": "0",
        "type": "t_uint256"
      },
      {
        "astId": 7,
        "contract": "contracts/ZirconDrop.sol:ZirconDrop",
        "label": "_owner",
        "offset": 0,
        "slot": "1",
        "type": "t_address"
      },
      {
        "astId": 1815,
        "contract": "contracts/ZirconDrop.sol:ZirconDrop",
        "label": "creator",
        "offset": 0,
        "slot": "2",
        "type": "t_address"
      },
      {
        "astId": 1817,
        "contract": "contracts/ZirconDrop.sol:ZirconDrop",
        "label": "merkleRoot",
        "offset": 0,
        "slot": "3",
        "type": "t_bytes32"
      },
      {
        "astId": 1820,
        "contract": "contracts/ZirconDrop.sol:ZirconDrop",
        "label": "info",
        "offset": 0,
        "slot": "4",
        "type": "t_struct(Info)1813_storage"
      },
      {
        "astId": 1824,
        "contract": "contracts/ZirconDrop.sol:ZirconDrop",
        "label": "claimed_bitmap",
        "offset": 0,
        "slot": "5",
        "type": "t_mapping(t_uint256,t_uint256)"
      }
    ],
    "types": {
      "t_address": {
        "encoding": "inplace",
        "label": "address",
        "numberOfBytes": "20"
      },
      "t_bytes32": {
        "encoding": "inplace",
        "label": "bytes32",
        "numberOfBytes": "32"
      },
      "t_mapping(t_uint256,t_uint256)": {
        "encoding": "mapping",
        "key": "t_uint256",
        "label": "mapping(uint256 => uint256)",
        "numberOfBytes": "32",
        "value": "t_uint256"
      },
      "t_struct(Info)1813_storage": {
        "encoding": "inplace",
        "label": "struct ZirconDrop.Info",
        "members": [
          {
            "astId": 1808,
            "contract": "contracts/ZirconDrop.sol:ZirconDrop",
            "label": "token_address",
            "offset": 0,
            "slot": "0",
            "type": "t_address"
          },
          {
            "astId": 1810,
            "contract": "contracts/ZirconDrop.sol:ZirconDrop",
            "label": "start_time",
            "offset": 20,
            "slot": "0",
            "type": "t_uint48"
          },
          {
            "astId": 1812,
            "contract": "contracts/ZirconDrop.sol:ZirconDrop",
            "label": "end_time",
            "offset": 26,
            "slot": "0",
            "type": "t_uint48"
          }
        ],
        "numberOfBytes": "32"
      },
      "t_uint256": {
        "encoding": "inplace",
        "label": "uint256",
        "numberOfBytes": "32"
      },
      "t_uint48": {
        "encoding": "inplace",
        "label": "uint48",
        "numberOfBytes": "6"
      }
    }
  }
}