{
  "address": "0x5FbDB2315678afecb367f032d93F642f64180aa3",
  "abi": [
    {
      "inputs": [
        {
          "internalType": "address",
          "name": "_energyFactory",
          "type": "address"
        }
      ],
      "payable": false,
      "stateMutability": "nonpayable",
      "type": "constructor"
    },
    {
      "anonymous": false,
      "inputs": [
        {
          "indexed": true,
          "internalType": "address",
          "name": "token0",
          "type": "address"
        },
        {
          "indexed": true,
          "internalType": "address",
          "name": "token1",
          "type": "address"
        },
        {
          "indexed": false,
          "internalType": "address",
          "name": "pair",
          "type": "address"
        },
        {
          "indexed": false,
          "internalType": "uint256",
          "name": "",
          "type": "uint256"
        }
      ],
      "name": "PairCreated",
      "type": "event"
    },
    {
      "constant": true,
      "inputs": [
        {
          "internalType": "uint256",
          "name": "",
          "type": "uint256"
        }
      ],
      "name": "allPairs",
      "outputs": [
        {
          "internalType": "address",
          "name": "",
          "type": "address"
        }
      ],
      "payable": false,
      "stateMutability": "view",
      "type": "function"
    },
    {
      "constant": true,
      "inputs": [],
      "name": "allPairsLength",
      "outputs": [
        {
          "internalType": "uint256",
          "name": "",
          "type": "uint256"
        }
      ],
      "payable": false,
      "stateMutability": "view",
      "type": "function"
    },
    {
      "constant": false,
      "inputs": [
        {
          "internalType": "address",
          "name": "tokenA",
          "type": "address"
        },
        {
          "internalType": "address",
          "name": "tokenB",
          "type": "address"
        },
        {
          "internalType": "address",
          "name": "_pylonFactory",
          "type": "address"
        }
      ],
      "name": "createPair",
      "outputs": [
        {
          "internalType": "address",
          "name": "pair",
          "type": "address"
        }
      ],
      "payable": false,
      "stateMutability": "nonpayable",
      "type": "function"
    },
    {
      "constant": true,
      "inputs": [],
      "name": "energyFactory",
      "outputs": [
        {
          "internalType": "address",
          "name": "",
          "type": "address"
        }
      ],
      "payable": false,
      "stateMutability": "view",
      "type": "function"
    },
    {
      "constant": true,
      "inputs": [
        {
          "internalType": "address",
          "name": "",
          "type": "address"
        },
        {
          "internalType": "address",
          "name": "",
          "type": "address"
        }
      ],
      "name": "getPair",
      "outputs": [
        {
          "internalType": "address",
          "name": "",
          "type": "address"
        }
      ],
      "payable": false,
      "stateMutability": "view",
      "type": "function"
    },
    {
      "constant": true,
      "inputs": [],
      "name": "migrator",
      "outputs": [
        {
          "internalType": "address",
          "name": "",
          "type": "address"
        }
      ],
      "payable": false,
      "stateMutability": "view",
      "type": "function"
    },
    {
      "constant": true,
      "inputs": [],
      "name": "pairCodeHash",
      "outputs": [
        {
          "internalType": "bytes32",
          "name": "",
          "type": "bytes32"
        }
      ],
      "payable": false,
      "stateMutability": "pure",
      "type": "function"
    }
  ],
  "transactionHash": "0x69829ae15369e8357492553e6cd80c4f4d3b623b308bac187473da5622ebc615",
  "args": [
    "0xf39Fd6e51aad88F6F4ce6aB8827279cffFb92266"
  ],
  "numDeployments": 1,
  "solcInputHash": "b494003f3f9d9052f620b9c62efc9a5b",
  "bytecode": "0x608060405234801561001057600080fd5b5060405161394e38038061394e8339818101604052602081101561003357600080fd5b5051600180546001600160a01b0319166001600160a01b039092169190911790556138eb806100636000396000f3fe608060405234801561001057600080fd5b506004361061007d5760003560e01c806376f797381161005b57806376f79738146100dd5780637cd07e47146101155780639aab92481461011d578063e6a43905146101255761007d565b806317d1ff9f146100825780631e3dd18b146100a6578063574f2ba3146100c3575b600080fd5b61008a610153565b604080516001600160a01b039092168252519081900360200190f35b61008a600480360360208110156100bc57600080fd5b5035610162565b6100cb610189565b60408051918252519081900360200190f35b61008a600480360360608110156100f357600080fd5b506001600160a01b03813581169160208101358216916040909101351661018f565b61008a610512565b6100cb610521565b61008a6004803603604081101561013b57600080fd5b506001600160a01b0381358116916020013516610553565b6001546001600160a01b031681565b6003818154811061016f57fe5b6000918252602090912001546001600160a01b0316905081565b60035490565b6000826001600160a01b0316846001600160a01b031614156101f8576040805162461bcd60e51b815260206004820152601760248201527f5a463a204944454e544943414c5f414444524553534553000000000000000000604482015290519081900360640190fd5b600080846001600160a01b0316866001600160a01b03161061021b57848661021e565b85855b90925090506001600160a01b03821661027e576040805162461bcd60e51b815260206004820152601060248201527f5a463a205a45524f5f4144445245535300000000000000000000000000000000604482015290519081900360640190fd5b6001600160a01b038281166000908152600260209081526040808320858516845290915290205416156102f8576040805162461bcd60e51b815260206004820152600f60248201527f5a463a20504149525f4558495354530000000000000000000000000000000000604482015290519081900360640190fd5b60606040518060200161030a90610631565b6020820181038252601f19601f8201166040525090506000838360405160200180836001600160a01b03166001600160a01b031660601b8152601401826001600160a01b03166001600160a01b031660601b815260140192505050604051602081830303815290604052805190602001209050808251602084016000f5945060006103978686868a610579565b604080517fc0c53b8b0000000000000000000000000000000000000000000000000000000081526001600160a01b0388811660048301528781166024830152808416604483015291519293509088169163c0c53b8b9160648082019260009290919082900301818387803b15801561040e57600080fd5b505af1158015610422573d6000803e3d6000fd5b505050506001600160a01b0385811660008181526002602081815260408084208a87168086529083528185208054978e167fffffffffffffffffffffffff000000000000000000000000000000000000000098891681179091559383528185208686528352818520805488168517905560038054600181018255958190527fc2575a0e9e593c00f959f8c92f12db2869c3395a3b0502d05e2516446f71f85b90950180549097168417909655925483519283529082015281517f0d3648bd0f6ba80134a33ba9275ac585d9d315f0ad8355cddefde31afa28d0e9929181900390910190a350505050509392505050565b6000546001600160a01b031681565b60006040518060200161053390610631565b6020820181038252601f19601f8201166040525080519060200120905090565b60026020908152600092835260408084209091529082529020546001600160a01b031681565b600154604080517f94a77e5b0000000000000000000000000000000000000000000000000000000081526001600160a01b038781166004830152868116602483015285811660448301528481166064830152915160009392909216916394a77e5b9160848082019260209290919082900301818787803b1580156105fc57600080fd5b505af1158015610610573d6000803e3d6000fd5b505050506040513d602081101561062657600080fd5b505195945050505050565b6132788061063f8339019056fe60806040526001600d5534801561001557600080fd5b506040514690806052613226823960408051918290036052018220828201825260068352652d34b931b7b760d11b6020938401528151808301835260018152603160f81b908401528151808401919091527f94c6df7cbb14f58e7ac6d9fa315f8346b33ef43dae2423c0e0e94673dd9e65ff818301527fc89efdaa54c0f20c7adf612882df0950f5a951637e0307cdcb4c672f298b8bc6606082015260808101949094523060a0808601919091528151808603909101815260c09094019052825192019190912060045550600580546001600160a01b03191633179055613125806101016000396000f3fe608060405234801561001057600080fd5b50600436106101e55760003560e01c80636a6278421161010f578063ba9a7a56116100a2578063d21220a711610071578063d21220a714610604578063d505accf1461060c578063dd62ed3e1461065d578063fff6cae91461068b576101e5565b8063ba9a7a5614610596578063bc25cf771461059e578063c0c53b8b146105c4578063c45a0155146105fc576101e5565b80637ecebe00116100de5780637ecebe00146104fd57806389afcb441461052357806395d89b4114610562578063a9059cbb1461056a576101e5565b80636a627842146104a15780636da99636146104c757806370a08231146104cf5780637464fc3d146104f5576101e5565b806323b872dd116101875780633644e515116101565780633644e5151461043d578063432275e6146104455780635909c0d5146104915780635a3d549314610499576101e5565b806323b872dd146103b35780632ce51090146103e957806330adf81f14610417578063313ce5671461041f576101e5565b8063095ea7b3116101c3578063095ea7b31461032d5780630dfe16811461036d57806311816b041461039157806318160ddd14610399576101e5565b8063022c0d9f146101ea57806306fdde03146102785780630902f1ac146102f5575b600080fd5b6102766004803603608081101561020057600080fd5b8135916020810135916001600160a01b03604083013516919081019060808101606082013564010000000081111561023757600080fd5b82018360208201111561024957600080fd5b8035906020019184600183028401116401000000008311171561026b57600080fd5b509092509050610693565b005b610280610be7565b6040805160208082528351818301528351919283929083019185019080838360005b838110156102ba5781810151838201526020016102a2565b50505050905090810190601f1680156102e75780820380516001836020036101000a031916815260200191505b509250505060405180910390f35b6102fd610c20565b604080516001600160701b03948516815292909316602083015263ffffffff168183015290519081900360600190f35b6103596004803603604081101561034357600080fd5b506001600160a01b038135169060200135610c4a565b604080519115158252519081900360200190f35b610375610c61565b604080516001600160a01b039092168252519081900360200190f35b610276610c70565b6103a1610cc2565b60408051918252519081900360200190f35b610359600480360360608110156103c957600080fd5b506001600160a01b03813581169160208101359091169060400135610cc8565b6103a1600480360360408110156103ff57600080fd5b506001600160a01b0381351690602001351515610d62565b6103a16111f1565b610427611215565b6040805160ff9092168252519081900360200190f35b6103a161121a565b6104736004803603604081101561045b57600080fd5b506001600160a01b0381351690602001351515611220565b60408051938452602084019290925282820152519081900360600190f35b6103a161175d565b6103a1611763565b6103a1600480360360208110156104b757600080fd5b50356001600160a01b0316611769565b610375611bcd565b6103a1600480360360208110156104e557600080fd5b50356001600160a01b0316611bdc565b6103a1611bee565b6103a16004803603602081101561051357600080fd5b50356001600160a01b0316611bf4565b6105496004803603602081101561053957600080fd5b50356001600160a01b0316611c06565b6040805192835260208301919091528051918290030190f35b610280611fa1565b6103596004803603604081101561058057600080fd5b506001600160a01b038135169060200135611fda565b6103a1611fe7565b610276600480360360208110156105b457600080fd5b50356001600160a01b0316611fed565b610276600480360360608110156105da57600080fd5b506001600160a01b038135811691602081013582169160409091013516612158565b61037561220e565b61037561221d565b610276600480360360e081101561062257600080fd5b506001600160a01b03813581169160208101359091169060408101359060608101359060ff6080820135169060a08101359060c0013561222c565b6103a16004803603604081101561067357600080fd5b506001600160a01b0381358116916020013516612454565b610276612471565b600d546001146106de576040805162461bcd60e51b8152602060048201526011602482015270155b9a5cddd85c158c8e881313d0d2d151607a1b604482015290519081900360640190fd5b6000600d55841515806106f15750600084115b61072c5760405162461bcd60e51b8152600401808060200182810382526025815260200180612f786025913960400191505060405180910390fd5b600080610737610c20565b5091509150816001600160701b03168710801561075c5750806001600160701b031686105b6107975760405162461bcd60e51b8152600401808060200182810382526021815260200180612fc16021913960400191505060405180910390fd5b60065460075460009182916001600160a01b039182169190811690891682148015906107d55750806001600160a01b0316896001600160a01b031614155b610826576040805162461bcd60e51b815260206004820152601560248201527f556e697377617056323a20494e56414c49445f544f0000000000000000000000604482015290519081900360640190fd5b8a1561083757610837828a8d6125cc565b891561084857610848818a8c6125cc565b861561090357886001600160a01b03166310d1e85c338d8d8c8c6040518663ffffffff1660e01b815260040180866001600160a01b03166001600160a01b03168152602001858152602001848152602001806020018281038252848482818152602001925080828437600081840152601f19601f8201169050808301925050509650505050505050600060405180830381600087803b1580156108ea57600080fd5b505af11580156108fe573d6000803e3d6000fd5b505050505b604080516370a0823160e01b815230600482015290516001600160a01b038416916370a08231916024808301926020929190829003018186803b15801561094957600080fd5b505afa15801561095d573d6000803e3d6000fd5b505050506040513d602081101561097357600080fd5b5051604080516370a0823160e01b815230600482015290519195506001600160a01b038316916370a0823191602480820192602092909190829003018186803b1580156109bf57600080fd5b505afa1580156109d3573d6000803e3d6000fd5b505050506040513d60208110156109e957600080fd5b5051925060009150506001600160701b0385168a90038311610a0c576000610a1b565b89856001600160701b03160383035b9050600089856001600160701b0316038311610a38576000610a47565b89856001600160701b03160383035b90506000821180610a585750600081115b610a935760405162461bcd60e51b8152600401808060200182810382526024815260200180612f9d6024913960400191505060405180910390fd5b6000610ac7610aa984600363ffffffff61277f16565b610abb876103e863ffffffff61277f16565b9063ffffffff6127eb16565b90506000610adf610aa984600363ffffffff61277f16565b9050610b10620f4240610b046001600160701b038b8116908b1663ffffffff61277f16565b9063ffffffff61277f16565b610b20838363ffffffff61277f16565b1015610b73576040805162461bcd60e51b815260206004820152600c60248201527f556e697377617056323a204b0000000000000000000000000000000000000000604482015290519081900360640190fd5b5050610b8184848888612843565b60408051838152602081018390528082018d9052606081018c905290516001600160a01b038b169133917fd78ad95fa46c994b6551d0da85fc275fe613ce37657fb8d5e3d130840159d8229181900360800190a350506001600d55505050505050505050565b6040518060400160405280600681526020017f5a6972636f6e000000000000000000000000000000000000000000000000000081525081565b6009546001600160701b0380821692600160701b830490911691600160e01b900463ffffffff1690565b6000610c57338484612a20565b5060015b92915050565b6006546001600160a01b031681565b600d54600114610cbb576040805162461bcd60e51b8152602060048201526011602482015270155b9a5cddd85c158c8e881313d0d2d151607a1b604482015290519081900360640190fd5b6001600d55565b60005481565b6001600160a01b038316600090815260026020908152604080832033845290915281205460001914610d4d576001600160a01b0384166000908152600260209081526040808320338452909152902054610d28908363ffffffff6127eb16565b6001600160a01b03851660009081526002602090815260408083203384529091529020555b610d58848484612a82565b5060019392505050565b6000600d54600114610daf576040805162461bcd60e51b8152602060048201526011602482015270155b9a5cddd85c158c8e881313d0d2d151607a1b604482015290519081900360640190fd5b6000600d81905580610dbf610c20565b50600654600754604080516370a0823160e01b815230600482015290519496509294506001600160a01b03918216939116916000918291829186916370a08231916024808301926020929190829003018186803b158015610e1f57600080fd5b505afa158015610e33573d6000803e3d6000fd5b505050506040513d6020811015610e4957600080fd5b5051604080516370a0823160e01b815230600482015290519192506000916001600160a01b038716916370a08231916024808301926020929190829003018186803b158015610e9757600080fd5b505afa158015610eab573d6000803e3d6000fd5b505050506040513d6020811015610ec157600080fd5b505130600090815260016020526040902054909150610ee08989612b3c565b60005480610ef4838663ffffffff61277f16565b81610efb57fe5b04955080610f0f838563ffffffff61277f16565b81610f1657fe5b0494508b15610f8a57610f4085868b6001600160701b031603888d6001600160701b031603612c66565b86019550859a50838b10610f855760405162461bcd60e51b815260040180806020018281038252602981526020018061309d6029913960400191505060405180910390fd5b610ff0565b610fab86878c6001600160701b031603878c6001600160701b031603612c66565b85019450849a50828b10610ff05760405162461bcd60e51b815260040180806020018281038252602981526020018061309d6029913960400191505060405180910390fd5b6000861180156110005750600085115b61103b5760405162461bcd60e51b81526004018080602001828103825260288152602001806130046028913960400191505060405180910390fd5b6110453083612d4a565b8b1561105b57611056888e8d6125cc565b611066565b611066878e8d6125cc565b604080516370a0823160e01b815230600482015290516001600160a01b038a16916370a08231916024808301926020929190829003018186803b1580156110ac57600080fd5b505afa1580156110c0573d6000803e3d6000fd5b505050506040513d60208110156110d657600080fd5b5051604080516370a0823160e01b815230600482015290519195506001600160a01b038916916370a0823191602480820192602092909190829003018186803b15801561112257600080fd5b505afa158015611136573d6000803e3d6000fd5b505050506040513d602081101561114c57600080fd5b5051925061115c84848c8c612843565b600954611182906001600160701b0380821691600160701b90041663ffffffff61277f16565b600c819055508c6001600160a01b0316336001600160a01b03167fdccd412f0b1252819cb1fd330b93224ca42612892bb3f4f789976e6d819364968888604051808381526020018281526020019250505060405180910390a350506001600d5550969998505050505050505050565b7f6e71edae12b1b97f4d1f60370fef10105fa2faae0126114a169c64845d6126c981565b601281565b60045481565b6000806000600d54600114611270576040805162461bcd60e51b8152602060048201526011602482015270155b9a5cddd85c158c8e881313d0d2d151607a1b604482015290519081900360640190fd5b6000600d81905580611280610c20565b50600654604080516370a0823160e01b815230600482015290519395509193506000926001600160a01b03909116916370a08231916024808301926020929190829003018186803b1580156112d457600080fd5b505afa1580156112e8573d6000803e3d6000fd5b505050506040513d60208110156112fe57600080fd5b5051600754604080516370a0823160e01b815230600482015290519293506000926001600160a01b03909216916370a0823191602480820192602092909190829003018186803b15801561135157600080fd5b505afa158015611365573d6000803e3d6000fd5b505050506040513d602081101561137b57600080fd5b50519050611398826001600160701b03861663ffffffff6127eb16565b95506113b3816001600160701b03851663ffffffff6127eb16565b945060018611806113c45750600185115b611415576040805162461bcd60e51b815260206004820152601760248201527f5a503a20496e73756666696369656e7420416d6f756e74000000000000000000604482015290519081900360640190fd5b871561144d576009546114409060028804906001600160701b0380821691600160701b900416612c66565b945060028604955061147b565b611472600286600954919004906001600160701b03600160701b820481169116612c66565b95506002850494505b6114858484612b3c565b600054806116425760055460408051637cd07e4760e01b815290516000926001600160a01b031691637cd07e47916004808301926020929190829003018186803b1580156114d257600080fd5b505afa1580156114e6573d6000803e3d6000fd5b505050506040513d60208110156114fc57600080fd5b50519050336001600160a01b03821614156115c957806001600160a01b03166340dc0e376040518163ffffffff1660e01b815260040160206040518083038186803b15801561154a57600080fd5b505afa15801561155e573d6000803e3d6000fd5b505050506040513d602081101561157457600080fd5b50519850881580159061158957506000198914155b6115c45760405162461bcd60e51b815260040180806020018281038252602181526020018061307c6021913960400191505060405180910390fd5b61163c565b6001600160a01b0381161561160f5760405162461bcd60e51b8152600401808060200182810382526022815260200180612fe26022913960400191505060405180910390fd5b61162d6103e8610abb6116288b8b63ffffffff61277f16565b612de8565b985061163c60006103e8612e3a565b50611691565b61168e6001600160701b03861661165f898463ffffffff61277f16565b8161166657fe5b046001600160701b038616611681898563ffffffff61277f16565b8161168857fe5b04612ed0565b97505b600088116116d05760405162461bcd60e51b815260040180806020018281038252602881526020018061302c6028913960400191505060405180910390fd5b6116da8a89612e3a565b6116e683838787612843565b60095461170c906001600160701b0380821691600160701b90041663ffffffff61277f16565b600c556040805188815260208101889052815133927f4c209b5fc8ad50758f13e2e1088ba56a560dff690a1c6fef26394f4c03821c4f928290030190a250505050506001600d819055509250925092565b600a5481565b600b5481565b6000600d546001146117b6576040805162461bcd60e51b8152602060048201526011602482015270155b9a5cddd85c158c8e881313d0d2d151607a1b604482015290519081900360640190fd5b6000600d819055806117c6610c20565b50600654604080516370a0823160e01b815230600482015290519395509193506000926001600160a01b03909116916370a08231916024808301926020929190829003018186803b15801561181a57600080fd5b505afa15801561182e573d6000803e3d6000fd5b505050506040513d602081101561184457600080fd5b5051600754604080516370a0823160e01b815230600482015290519293506000926001600160a01b03909216916370a0823191602480820192602092909190829003018186803b15801561189757600080fd5b505afa1580156118ab573d6000803e3d6000fd5b505050506040513d60208110156118c157600080fd5b5051905060006118e0836001600160701b03871663ffffffff6127eb16565b905060006118fd836001600160701b03871663ffffffff6127eb16565b90506119098686612b3c565b60005480611ac15760055460408051637cd07e4760e01b815290516000926001600160a01b031691637cd07e47916004808301926020929190829003018186803b15801561195657600080fd5b505afa15801561196a573d6000803e3d6000fd5b505050506040513d602081101561198057600080fd5b50519050336001600160a01b0382161415611a4d57806001600160a01b03166340dc0e376040518163ffffffff1660e01b815260040160206040518083038186803b1580156119ce57600080fd5b505afa1580156119e2573d6000803e3d6000fd5b505050506040513d60208110156119f857600080fd5b505198508815801590611a0d57506000198914155b611a485760405162461bcd60e51b815260040180806020018281038252602181526020018061307c6021913960400191505060405180910390fd5b611abb565b6001600160a01b03811615611a935760405162461bcd60e51b8152600401808060200182810382526022815260200180612fe26022913960400191505060405180910390fd5b611aac6103e8610abb611628878763ffffffff61277f16565b9850611abb60006103e8612e3a565b50611b03565b611b006001600160701b038816611ade858463ffffffff61277f16565b81611ae557fe5b046001600160701b038816611681858563ffffffff61277f16565b97505b60008811611b425760405162461bcd60e51b815260040180806020018281038252602881526020018061302c6028913960400191505060405180910390fd5b611b4c8989612e3a565b611b5885858989612843565b600954611b7e906001600160701b0380821691600160701b90041663ffffffff61277f16565b600c556040805184815260208101849052815133927f4c209b5fc8ad50758f13e2e1088ba56a560dff690a1c6fef26394f4c03821c4f928290030190a250506001600d55509395945050505050565b6008546001600160a01b031681565b60016020526000908152604090205481565b600c5481565b60036020526000908152604090205481565b600080600d54600114611c54576040805162461bcd60e51b8152602060048201526011602482015270155b9a5cddd85c158c8e881313d0d2d151607a1b604482015290519081900360640190fd5b6000600d81905580611c64610c20565b50600654600754604080516370a0823160e01b815230600482015290519496509294506001600160a01b039182169391169160009184916370a08231916024808301926020929190829003018186803b158015611cc057600080fd5b505afa158015611cd4573d6000803e3d6000fd5b505050506040513d6020811015611cea57600080fd5b5051604080516370a0823160e01b815230600482015290519192506000916001600160a01b038516916370a08231916024808301926020929190829003018186803b158015611d3857600080fd5b505afa158015611d4c573d6000803e3d6000fd5b505050506040513d6020811015611d6257600080fd5b505130600090815260016020526040902054909150611d818787612b3c565b60005480611d95838663ffffffff61277f16565b81611d9c57fe5b04995080611db0838563ffffffff61277f16565b81611db757fe5b04985060008a118015611dca5750600089115b611e055760405162461bcd60e51b81526004018080602001828103825260288152602001806130046028913960400191505060405180910390fd5b611e0f3083612d4a565b611e1a868c8c6125cc565b611e25858c8b6125cc565b604080516370a0823160e01b815230600482015290516001600160a01b038816916370a08231916024808301926020929190829003018186803b158015611e6b57600080fd5b505afa158015611e7f573d6000803e3d6000fd5b505050506040513d6020811015611e9557600080fd5b5051604080516370a0823160e01b815230600482015290519195506001600160a01b038716916370a0823191602480820192602092909190829003018186803b158015611ee157600080fd5b505afa158015611ef5573d6000803e3d6000fd5b505050506040513d6020811015611f0b57600080fd5b50519250611f1b84848a8a612843565b600954611f41906001600160701b0380821691600160701b90041663ffffffff61277f16565b600c55604080518b8152602081018b905281516001600160a01b038e169233927fdccd412f0b1252819cb1fd330b93224ca42612892bb3f4f789976e6d81936496929081900390910190a350505050505050506001600d81905550915091565b6040518060400160405280600381526020017f5a5054000000000000000000000000000000000000000000000000000000000081525081565b6000610c57338484612a82565b6103e881565b600d54600114612038576040805162461bcd60e51b8152602060048201526011602482015270155b9a5cddd85c158c8e881313d0d2d151607a1b604482015290519081900360640190fd5b6000600d55600654600754600954604080516370a0823160e01b815230600482015290516001600160a01b0394851694909316926120e792859287926120e2926001600160701b03169185916370a0823191602480820192602092909190829003018186803b1580156120aa57600080fd5b505afa1580156120be573d6000803e3d6000fd5b505050506040513d60208110156120d457600080fd5b50519063ffffffff6127eb16565b6125cc565b600954604080516370a0823160e01b8152306004820152905161214e92849287926120e292600160701b90046001600160701b0316916001600160a01b038616916370a0823191602480820192602092909190829003018186803b1580156120aa57600080fd5b50506001600d5550565b6005546001600160a01b031633146121b7576040805162461bcd60e51b815260206004820152601560248201527f5a6972636f6e506169723a20464f5242494444454e0000000000000000000000604482015290519081900360640190fd5b600680546001600160a01b039485167fffffffffffffffffffffffff000000000000000000000000000000000000000091821617909155600780549385169382169390931790925560088054919093169116179055565b6005546001600160a01b031681565b6007546001600160a01b031681565b42841015612281576040805162461bcd60e51b815260206004820152601260248201527f556e697377617056323a20455850495245440000000000000000000000000000604482015290519081900360640190fd5b6004546001600160a01b0380891660008181526003602090815260408083208054600180820190925582517f6e71edae12b1b97f4d1f60370fef10105fa2faae0126114a169c64845d6126c98186015280840196909652958d166060860152608085018c905260a085019590955260c08085018b90528151808603909101815260e0850182528051908301207f19010000000000000000000000000000000000000000000000000000000000006101008601526101028501969096526101228085019690965280518085039096018652610142840180825286519683019690962095839052610162840180825286905260ff89166101828501526101a284018890526101c28401879052519193926101e280820193601f1981019281900390910190855afa1580156123b7573d6000803e3d6000fd5b5050604051601f1901519150506001600160a01b038116158015906123ed5750886001600160a01b0316816001600160a01b0316145b61243e576040805162461bcd60e51b815260206004820152601c60248201527f556e697377617056323a20494e56414c49445f5349474e415455524500000000604482015290519081900360640190fd5b612449898989612a20565b505050505050505050565b600260209081526000928352604080842090915290825290205481565b600d546001146124bc576040805162461bcd60e51b8152602060048201526011602482015270155b9a5cddd85c158c8e881313d0d2d151607a1b604482015290519081900360640190fd5b6000600d55600654604080516370a0823160e01b81523060048201529051610cbb926001600160a01b0316916370a08231916024808301926020929190829003018186803b15801561250d57600080fd5b505afa158015612521573d6000803e3d6000fd5b505050506040513d602081101561253757600080fd5b5051600754604080516370a0823160e01b815230600482015290516001600160a01b03909216916370a0823191602480820192602092909190829003018186803b15801561258457600080fd5b505afa158015612598573d6000803e3d6000fd5b505050506040513d60208110156125ae57600080fd5b50516009546001600160701b0380821691600160701b900416612843565b604080518082018252601981527f7472616e7366657228616464726573732c75696e74323536290000000000000060209182015281516001600160a01b0385811660248301526044808301869052845180840390910181526064909201845291810180516001600160e01b03167fa9059cbb000000000000000000000000000000000000000000000000000000001781529251815160009460609489169392918291908083835b602083106126925780518252601f199092019160209182019101612673565b6001836020036101000a0380198251168184511680821785525050505050509050019150506000604051808303816000865af19150503d80600081146126f4576040519150601f19603f3d011682016040523d82523d6000602084013e6126f9565b606091505b5091509150818015612727575080511580612727575080806020019051602081101561272457600080fd5b50515b612778576040805162461bcd60e51b815260206004820152601a60248201527f556e697377617056323a205452414e534645525f4641494c4544000000000000604482015290519081900360640190fd5b5050505050565b600081158061279a5750508082028282828161279757fe5b04145b610c5b576040805162461bcd60e51b815260206004820152601460248201527f64732d6d6174682d6d756c2d6f766572666c6f77000000000000000000000000604482015290519081900360640190fd5b80820382811115610c5b576040805162461bcd60e51b815260206004820152601560248201527f64732d6d6174682d7375622d756e646572666c6f770000000000000000000000604482015290519081900360640190fd5b6001600160701b03841180159061286157506001600160701b038311155b6128b2576040805162461bcd60e51b815260206004820152601360248201527f556e697377617056323a204f564552464c4f5700000000000000000000000000604482015290519081900360640190fd5b60095463ffffffff42811691600160e01b900481168203908116158015906128e257506001600160701b03841615155b80156128f657506001600160701b03831615155b15612967578063ffffffff166129248561290f86612ee8565b6001600160e01b03169063ffffffff612efa16565b600a80546001600160e01b03929092169290920201905563ffffffff811661294f8461290f87612ee8565b600b80546001600160e01b0392909216929092020190555b600980546dffffffffffffffffffffffffffff19166001600160701b03888116919091177fffffffff0000000000000000000000000000ffffffffffffffffffffffffffff16600160701b8883168102919091176001600160e01b0316600160e01b63ffffffff871602179283905560408051848416815291909304909116602082015281517f1c411e9a96e071241c2f21f7726b17ae89e3cab4c78be50e062b03a9fffbbad1929181900390910190a1505050505050565b6001600160a01b03808416600081815260026020908152604080832094871680845294825291829020859055815185815291517f8c5be1e5ebec7d5bd14f71427d1e84f3dd0314c0f7b2291e5b200ac8c7c3b9259281900390910190a3505050565b6001600160a01b038316600090815260016020526040902054612aab908263ffffffff6127eb16565b6001600160a01b038085166000908152600160205260408082209390935590841681522054612ae0908263ffffffff612f1f16565b6001600160a01b0380841660008181526001602090815260409182902094909455805185815290519193928716927fddf252ad1be2c89b69c2b068fc378daa952ba7f163c4a11628f55a4df523b3ef92918290030190a3505050565b600c548015612c61576000612b666116286001600160701b0386811690861663ffffffff61277f16565b90506000612b7383612de8565b905080821115612778576000612ba1612b92848463ffffffff6127eb16565b6000549063ffffffff61277f16565b90506000612bc683612bba86600563ffffffff61277f16565b9063ffffffff612f1f16565b90506000818381612bd357fe5b0490508015612c5b57600854612bf2906001600160a01b031682612e3a565b600860009054906101000a90046001600160a01b03166001600160a01b031663ca77ab656040518163ffffffff1660e01b8152600401600060405180830381600087803b158015612c4257600080fd5b505af1158015612c56573d6000803e3d6000fd5b505050505b50505050505b505050565b6000808411612ca65760405162461bcd60e51b815260040180806020018281038252602b8152602001806130c6602b913960400191505060405180910390fd5b600083118015612cb65750600082115b612cf15760405162461bcd60e51b81526004018080602001828103825260288152602001806130546028913960400191505060405180910390fd5b6000612d05856103e563ffffffff61277f16565b90506000612d19828563ffffffff61277f16565b90506000612d3383612bba886103e863ffffffff61277f16565b9050808281612d3e57fe5b04979650505050505050565b6001600160a01b038216600090815260016020526040902054612d73908263ffffffff6127eb16565b6001600160a01b03831660009081526001602052604081209190915554612da0908263ffffffff6127eb16565b60009081556040805183815290516001600160a01b038516917fddf252ad1be2c89b69c2b068fc378daa952ba7f163c4a11628f55a4df523b3ef919081900360200190a35050565b60006003821115612e2b575080600160028204015b81811015612e2557809150600281828581612e1457fe5b040181612e1d57fe5b049050612dfd565b50612e35565b8115612e35575060015b919050565b600054612e4d908263ffffffff612f1f16565b60009081556001600160a01b038316815260016020526040902054612e78908263ffffffff612f1f16565b6001600160a01b03831660008181526001602090815260408083209490945583518581529351929391927fddf252ad1be2c89b69c2b068fc378daa952ba7f163c4a11628f55a4df523b3ef9281900390910190a35050565b6000818310612edf5781612ee1565b825b9392505050565b6001600160701b0316600160701b0290565b60006001600160701b0382166001600160e01b03841681612f1757fe5b049392505050565b80820182811015610c5b576040805162461bcd60e51b815260206004820152601460248201527f64732d6d6174682d6164642d6f766572666c6f77000000000000000000000000604482015290519081900360640190fdfe556e697377617056323a20494e53554646494349454e545f4f55545055545f414d4f554e54556e697377617056323a20494e53554646494349454e545f494e5055545f414d4f554e54556e697377617056323a20494e53554646494349454e545f4c49515549444954595a6972636f6e506169723a204d757374206e6f742068617665206d69677261746f72556e697377617056323a20494e53554646494349454e545f4c49515549444954595f4255524e4544556e697377617056323a20494e53554646494349454e545f4c49515549444954595f4d494e544544556e697377617056324c6962726172793a20494e53554646494349454e545f4c49515549444954595a6972636f6e506169723a204261642064657369726564206c6971756964697479556e697377617056323a20455854454e53494f4e5f4e4f545f454e4f5547485f4c4951554944495459556e697377617056324c6962726172793a20494e53554646494349454e545f494e5055545f414d4f554e54a265627a7a7231582024ce12c1303bf858c21f48b938f97a2a93b0e33bb77851a902e03d7b6d2db77b64736f6c63430005100032454950373132446f6d61696e28737472696e67206e616d652c737472696e672076657273696f6e2c75696e7432353620636861696e49642c6164647265737320766572696679696e67436f6e747261637429a265627a7a7231582098c486ef6028a56e9ab5692940904acb58a4d7634fa79c65c31baf6ef1212a1964736f6c63430005100032",
  "devdoc": {
    "methods": {}
  },
  "userdoc": {
    "methods": {}
  },
  "storageLayout": {
    "storage": [
      {
        "astId": 618,
        "contract": "contracts/ZirconFactory.sol:ZirconFactory",
        "label": "migrator",
        "offset": 0,
        "slot": "0",
        "type": "t_address"
      },
      {
        "astId": 620,
        "contract": "contracts/ZirconFactory.sol:ZirconFactory",
        "label": "energyFactory",
        "offset": 0,
        "slot": "1",
        "type": "t_address"
      },
      {
        "astId": 635,
        "contract": "contracts/ZirconFactory.sol:ZirconFactory",
        "label": "getPair",
        "offset": 0,
        "slot": "2",
        "type": "t_mapping(t_address,t_mapping(t_address,t_address))"
      },
      {
        "astId": 638,
        "contract": "contracts/ZirconFactory.sol:ZirconFactory",
        "label": "allPairs",
        "offset": 0,
        "slot": "3",
        "type": "t_array(t_address)dyn_storage"
      }
    ],
    "types": {
      "t_address": {
        "encoding": "inplace",
        "label": "address",
        "numberOfBytes": "20"
      },
      "t_array(t_address)dyn_storage": {
        "base": "t_address",
        "encoding": "dynamic_array",
        "label": "address[]",
        "numberOfBytes": "32"
      },
      "t_mapping(t_address,t_address)": {
        "encoding": "mapping",
        "key": "t_address",
        "label": "mapping(address => address)",
        "numberOfBytes": "32",
        "value": "t_address"
      },
      "t_mapping(t_address,t_mapping(t_address,t_address))": {
        "encoding": "mapping",
        "key": "t_address",
        "label": "mapping(address => mapping(address => address))",
        "numberOfBytes": "32",
        "value": "t_mapping(t_address,t_address)"
      }
    }
  }
}