{
  "address": "0xe7f1725E7734CE288F8367e1Bb143E90bb3F0512",
  "abi": [
    {
      "inputs": [],
      "payable": false,
      "stateMutability": "nonpayable",
      "type": "constructor"
    },
    {
      "anonymous": false,
      "inputs": [
        {
          "indexed": true,
          "internalType": "address",
          "name": "pair",
          "type": "address"
        },
        {
          "indexed": true,
          "internalType": "address",
          "name": "energy",
          "type": "address"
        },
        {
          "indexed": false,
          "internalType": "address",
          "name": "tokenA",
          "type": "address"
        },
        {
          "indexed": false,
          "internalType": "address",
          "name": "tokenB",
          "type": "address"
        },
        {
          "indexed": false,
          "internalType": "uint256",
          "name": "",
          "type": "uint256"
        }
      ],
      "name": "EnergyCreated",
      "type": "event"
    },
    {
      "constant": true,
      "inputs": [
        {
          "internalType": "uint256",
          "name": "",
          "type": "uint256"
        }
      ],
      "name": "allEnergies",
      "outputs": [
        {
          "internalType": "address",
          "name": "",
          "type": "address"
        }
      ],
      "payable": false,
      "stateMutability": "view",
      "type": "function"
    },
    {
      "constant": true,
      "inputs": [],
      "name": "allEnergiesLength",
      "outputs": [
        {
          "internalType": "uint256",
          "name": "",
          "type": "uint256"
        }
      ],
      "payable": false,
      "stateMutability": "view",
      "type": "function"
    },
    {
      "constant": true,
      "inputs": [
        {
          "internalType": "uint256",
          "name": "",
          "type": "uint256"
        }
      ],
      "name": "allEnergiesRevenue",
      "outputs": [
        {
          "internalType": "address",
          "name": "",
          "type": "address"
        }
      ],
      "payable": false,
      "stateMutability": "view",
      "type": "function"
    },
    {
      "constant": true,
      "inputs": [],
      "name": "allEnergiesRevenueLength",
      "outputs": [
        {
          "internalType": "uint256",
          "name": "",
          "type": "uint256"
        }
      ],
      "payable": false,
      "stateMutability": "view",
      "type": "function"
    },
    {
      "constant": false,
      "inputs": [
        {
          "internalType": "address",
          "name": "_pylon",
          "type": "address"
        },
        {
          "internalType": "address",
          "name": "_pair",
          "type": "address"
        },
        {
          "internalType": "address",
          "name": "_tokenA",
          "type": "address"
        },
        {
          "internalType": "address",
          "name": "_tokenB",
          "type": "address"
        }
      ],
      "name": "createEnergy",
      "outputs": [
        {
          "internalType": "address",
          "name": "energy",
          "type": "address"
        }
      ],
      "payable": false,
      "stateMutability": "nonpayable",
      "type": "function"
    },
    {
      "constant": false,
      "inputs": [
        {
          "internalType": "address",
          "name": "_pair",
          "type": "address"
        },
        {
          "internalType": "address",
          "name": "_tokenA",
          "type": "address"
        },
        {
          "internalType": "address",
          "name": "_tokenB",
          "type": "address"
        },
        {
          "internalType": "address",
          "name": "_pylonFactory",
          "type": "address"
        }
      ],
      "name": "createEnergyRev",
      "outputs": [
        {
          "internalType": "address",
          "name": "energy",
          "type": "address"
        }
      ],
      "payable": false,
      "stateMutability": "nonpayable",
      "type": "function"
    },
    {
      "constant": true,
      "inputs": [],
      "name": "energyCodeHash",
      "outputs": [
        {
          "internalType": "bytes32",
          "name": "",
          "type": "bytes32"
        }
      ],
      "payable": false,
      "stateMutability": "pure",
      "type": "function"
    },
    {
      "constant": true,
      "inputs": [],
      "name": "energyRevenueCodeHash",
      "outputs": [
        {
          "internalType": "bytes32",
          "name": "",
          "type": "bytes32"
        }
      ],
      "payable": false,
      "stateMutability": "pure",
      "type": "function"
    },
    {
      "constant": true,
      "inputs": [
        {
          "internalType": "address",
          "name": "",
          "type": "address"
        },
        {
          "internalType": "address",
          "name": "",
          "type": "address"
        }
      ],
      "name": "getEnergy",
      "outputs": [
        {
          "internalType": "address",
          "name": "",
          "type": "address"
        }
      ],
      "payable": false,
      "stateMutability": "view",
      "type": "function"
    },
    {
      "constant": true,
      "inputs": [
        {
          "internalType": "address",
          "name": "",
          "type": "address"
        },
        {
          "internalType": "address",
          "name": "",
          "type": "address"
        }
      ],
      "name": "getEnergyRevenue",
      "outputs": [
        {
          "internalType": "address",
          "name": "",
          "type": "address"
        }
      ],
      "payable": false,
      "stateMutability": "view",
      "type": "function"
    }
  ],
  "transactionHash": "0xc59c8fd92bef22a2b9db71e8d228debf41163c3efdea8506485765f444743ee9",
  "args": [],
  "numDeployments": 1,
  "solcInputHash": "b494003f3f9d9052f620b9c62efc9a5b",
  "bytecode": "0x608060405234801561001057600080fd5b50612854806100206000396000f3fe608060405234801561001057600080fd5b50600436106100be5760003560e01c806394a77e5b11610076578063a2669ce71161005b578063a2669ce7146101c8578063cd2ba964146101d0578063f732ff4b146101ed576100be565b806394a77e5b1461016d578063957ddb16146101ab576100be565b806388413ca0116100a757806388413ca0146100e55780639172e7841461012f5780639364a296146100dd576100be565b80634dd81442146100c357806373e56b14146100dd575b600080fd5b6100cb61021b565b60408051918252519081900360200190f35b6100cb610221565b610113600480360360408110156100fb57600080fd5b506001600160a01b0381358116916020013516610253565b604080516001600160a01b039092168252519081900360200190f35b6101136004803603608081101561014557600080fd5b506001600160a01b038135811691602081013582169160408201358116916060013516610279565b6101136004803603608081101561018357600080fd5b506001600160a01b03813581169160208101358216916040820135811691606001351661068e565b610113600480360360208110156101c157600080fd5b5035610bc0565b6100cb610be7565b610113600480360360208110156101e657600080fd5b5035610bed565b6101136004803603604081101561020357600080fd5b506001600160a01b0381358116916020013516610bfa565b60035490565b60006040518060200161023390610d9e565b6020820181038252601f19601f8201166040525080519060200120905090565b60016020908152600092835260408084209091529082529020546001600160a01b031681565b6000816001600160a01b0316836001600160a01b031614156102e2576040805162461bcd60e51b815260206004820152601560248201527f5a463a204944454e544943414c5f414444524553530000000000000000000000604482015290519081900360640190fd5b6001600160a01b0385161580159061030257506001600160a01b03841615155b610353576040805162461bcd60e51b815260206004820152601060248201527f5a453a205a45524f5f4144445245535300000000000000000000000000000000604482015290519081900360640190fd5b6001600160a01b03838116600090815260208181526040808320868516845290915290205416156103cb576040805162461bcd60e51b815260206004820152601160248201527f5a453a20454e455247595f455849535453000000000000000000000000000000604482015290519081900360640190fd5b6060604051806020016103dd90610d9e565b601f1982820381018352601f909101166040528051909150610446576040805162461bcd60e51b815260206004820181905260248201527f437265617465323a2062797465636f6465206c656e677468206973207a65726f604482015290519081900360640190fd5b6000858560405160200180836001600160a01b03166001600160a01b031660601b8152601401826001600160a01b03166001600160a01b031660601b815260140192505050604051602081830303815290604052805190602001209050808251602084016000f592506001600160a01b03831661050a576040805162461bcd60e51b815260206004820152601960248201527f437265617465323a204661696c6564206f6e206465706c6f7900000000000000604482015290519081900360640190fd5b604080517fe77fc7a40000000000000000000000000000000000000000000000000000000081526001600160a01b038981166004830152888116602483015287811660448301528681166064838101919091526084830152600060a4830181905260c4830181905292519086169263e77fc7a49260e4808201939182900301818387803b15801561059a57600080fd5b505af11580156105ae573d6000803e3d6000fd5b5050506001600160a01b038087166000818152602081815260408083208a86168085529083528184208054878c167fffffffffffffffffffffffff0000000000000000000000000000000000000000918216811790925560028054600181018255968190527f405787fa12a823e0f2b7631cc41b3ba8828b3321ca811111fa75cd3aa3bb5ace90960180549091168217905593548251958652928501528381019190915251909350918916917f3b4e72e4103178db6cd2e27320e98d9afdd1ab6f078b707886d1bf92b9fd8b259181900360600190a35050949350505050565b6000826001600160a01b0316846001600160a01b031614156106f7576040805162461bcd60e51b815260206004820152601560248201527f5a463a204944454e544943414c5f414444524553530000000000000000000000604482015290519081900360640190fd5b6001600160a01b038516610752576040805162461bcd60e51b815260206004820152601060248201527f5a453a205a45524f5f4144445245535300000000000000000000000000000000604482015290519081900360640190fd5b600080846001600160a01b0316866001600160a01b031610610775578486610778565b85855b6001600160a01b038083166000908152600160209081526040808320848616845290915290205492945090925016156107f8576040805162461bcd60e51b815260206004820152601160248201527f5a453a20454e455247595f455849535453000000000000000000000000000000604482015290519081900360640190fd5b60606040518060200161080a90610dab565b601f1982820381018352601f909101166040528051909150610873576040805162461bcd60e51b815260206004820181905260248201527f437265617465323a2062797465636f6465206c656e677468206973207a65726f604482015290519081900360640190fd5b6040805160608a811b6bffffffffffffffffffffffff1990811660208085019190915287831b821660348501529186901b1660488301528251808303603c018152605c9092019092528051908201208251909182919084016000f594506001600160a01b03851661092b576040805162461bcd60e51b815260206004820152601960248201527f437265617465323a204661696c6564206f6e206465706c6f7900000000000000604482015290519081900360640190fd5b6000610937858b610c1d565b90506000610945858c610c1d565b9050600061095587878e8c610cd8565b9050600061096587898f8d610cd8565b9050886001600160a01b031663358764768e8a8a888888886040518863ffffffff1660e01b815260040180886001600160a01b03166001600160a01b03168152602001876001600160a01b03166001600160a01b03168152602001866001600160a01b03166001600160a01b03168152602001856001600160a01b03166001600160a01b03168152602001846001600160a01b03166001600160a01b03168152602001836001600160a01b03166001600160a01b03168152602001826001600160a01b03166001600160a01b03168152602001975050505050505050600060405180830381600087803b158015610a5b57600080fd5b505af1158015610a6f573d6000803e3d6000fd5b5050505088600160008a6001600160a01b03166001600160a01b031681526020019081526020016000206000896001600160a01b03166001600160a01b0316815260200190815260200160002060006101000a8154816001600160a01b0302191690836001600160a01b0316021790555060038990806001815401808255809150509060018203906000526020600020016000909192909190916101000a8154816001600160a01b0302191690836001600160a01b0316021790555050886001600160a01b03168d6001600160a01b03167f3b4e72e4103178db6cd2e27320e98d9afdd1ab6f078b707886d1bf92b9fd8b258a8a60028054905060405180846001600160a01b03166001600160a01b03168152602001836001600160a01b03166001600160a01b03168152602001828152602001935050505060405180910390a35050505050505050949350505050565b60028181548110610bcd57fe5b6000918252602090912001546001600160a01b0316905081565b60025490565b60038181548110610bcd57fe5b60006020818152928152604080822090935290815220546001600160a01b031681565b604080516bffffffffffffffffffffffff19606094851b811660208084019190915293851b166034820152815160288183030181526048820183528051908401207fff0000000000000000000000000000000000000000000000000000000000000060688301523090941b6069820152607d8101939093527f81043c0db8282f4e470aff61021f78b5a8a006d217071feb6f144233227db70a609d808501919091528151808503909101815260bd9093019052815191012090565b604080516bffffffffffffffffffffffff19606096871b811660208084019190915295871b8116603483015293861b841660488201528151603c818303018152605c820183528051908601207fff00000000000000000000000000000000000000000000000000000000000000607c8301529290951b909216607d85015260918401527fdafecbd0ed75ac7fb2fb3ddfc42dbd7f1e93400a67b26df7d15e3b43dc9d960360b1808501919091528151808503909101815260d19093019052815191012090565b610d4980610db983390190565b610d1e80611b028339019056fe608060405234801561001057600080fd5b50600980546001600160a01b03191633179055610d17806100326000396000f3fe608060405234801561001057600080fd5b50600436106100675760003560e01c806382c99e461161005057806382c99e46146100a5578063d538a2e7146100c2578063e77fc7a4146100ca57610067565b80630269b9ca1461006c57806353097ea71461009b575b600080fd5b6100896004803603602081101561008257600080fd5b503561011c565b60408051918252519081900360200190f35b6100a3610224565b005b610089600480360360208110156100bb57600080fd5b503561027d565b6100a3610378565b6100a3600480360360e08110156100e057600080fd5b506001600160a01b0381358116916020810135821691604082013581169160608101359091169060808101359060a08101359060c001356103c7565b6007546008546000919066b1a2bc2ec500008381861161014e57610149868303600a63ffffffff61067916565b610161565b610161828703600a63ffffffff61067916565b905067063eb89da4ed00008611158061018257506707a1fe16027700008610155b156101d15768015af1d78b58c400006101c282670de0b6b3a76400006101ae878363ffffffff61067916565b816101b557fe5b049063ffffffff61067916565b816101c957fe5b04945061021b565b61021884670de0b6b3a764000061020460246101f886846101ae878363ffffffff61067916565b9063ffffffff61067916565b8161020b57fe5b049063ffffffff6106eb16565b94505b50505050919050565b6001546001600160a01b03163314610273576040805162461bcd60e51b815260206004820152600d60248201526c2d229d102737ba10283cb637b760991b604482015290519081900360640190fd5b61027b610743565b565b600080546001600160a01b031633146102cd576040805162461bcd60e51b815260206004820152600d60248201526c2d229d102737ba10283cb637b760991b604482015290519081900360640190fd5b6005548211156102df576005546102e1565b815b90508015610373576001546040805163a9059cbb60e01b81523360048201526024810184905290516001600160a01b039092169163a9059cbb916044808201926020929091908290030181600087803b15801561033d57600080fd5b505af1158015610351573d6000803e3d6000fd5b505050506040513d602081101561036757600080fd5b50506005805482900390555b919050565b6000546001600160a01b03163314610273576040805162461bcd60e51b815260206004820152600d60248201526c2d229d102737ba10283cb637b760991b604482015290519081900360640190fd5b6009546001600160a01b03163314610426576040805162461bcd60e51b815260206004820152601160248201527f5a6972636f6e3a20464f5242494444454e000000000000000000000000000000604482015290519081900360640190fd5b6000856001600160a01b0316876001600160a01b0316630dfe16816040518163ffffffff1660e01b815260040160206040518083038186803b15801561046b57600080fd5b505afa15801561047f573d6000803e3d6000fd5b505050506040513d602081101561049557600080fd5b50516001600160a01b0316149050600080826104b25786886104b5565b87875b60408051610120810182526001600160a01b03808f168083528e8216602080850182905283881685870181905293871660608601819052608086018f9052600160a0870181905260c0870181905260e087018f90526101009096018d9052600080547fffffffffffffffffffffffff00000000000000000000000000000000000000009081168617825587548116909417875560028054851690961790955560038054909316811790925560048e8155600586905560069590955560078d905560088c9055855163095ea7b360e01b81529485019290925260fd60248501529351959750939550919363095ea7b39360448084019491938390030190829087803b1580156105c257600080fd5b505af11580156105d6573d6000803e3d6000fd5b505050506040513d60208110156105ec57600080fd5b50506040805163095ea7b360e01b81526001600160a01b038c8116600483015260fd60248301529151918b169163095ea7b3916044808201926020929091908290030181600087803b15801561064157600080fd5b505af1158015610655573d6000803e3d6000fd5b505050506040513d602081101561066b57600080fd5b505050505050505050505050565b60008115806106945750508082028282828161069157fe5b04145b6106e5576040805162461bcd60e51b815260206004820152601460248201527f64732d6d6174682d6d756c2d6f766572666c6f77000000000000000000000000604482015290519081900360640190fd5b92915050565b808201828110156106e5576040805162461bcd60e51b815260206004820152601460248201527f64732d6d6174682d6164642d6f766572666c6f77000000000000000000000000604482015290519081900360640190fd5b600a54600154604080516370a0823160e01b815230600482015290516000936107d29390926001600160a01b03909116916370a0823191602480820192602092909190829003018186803b15801561079a57600080fd5b505afa1580156107ae573d6000803e3d6000fd5b505050506040513d60208110156107c457600080fd5b50519063ffffffff610a1b16565b60015460008054604080516370a0823160e01b81526001600160a01b039283166004820152905194955091939216916370a0823191602480820192602092909190829003018186803b15801561082757600080fd5b505afa15801561083b573d6000803e3d6000fd5b505050506040513d602081101561085157600080fd5b5051600154604080517f18160ddd00000000000000000000000000000000000000000000000000000000815290519293506000926001600160a01b03909216916318160ddd91600480820192602092909190829003018186803b1580156108b757600080fd5b505afa1580156108cb573d6000803e3d6000fd5b505050506040513d60208110156108e157600080fd5b505190506000816108f8848663ffffffff61067916565b816108ff57fe5b0490506103e861091d6000600401548361067990919063ffffffff16565b8161092457fe5b600580549290910490910190556004546103e8906109459083908303610679565b8161094c57fe5b60068054929091049091019055610961610a73565b6000610973838563ffffffff6106eb16565b905082610986868363ffffffff61067916565b8161098d57fe5b60068054929091049091019055600154604080516370a0823160e01b815230600482015290516001600160a01b03909216916370a0823191602480820192602092909190829003018186803b1580156109e557600080fd5b505afa1580156109f9573d6000803e3d6000fd5b505050506040513d6020811015610a0f57600080fd5b5051600a555050505050565b808203828111156106e5576040805162461bcd60e51b815260206004820152601560248201527f64732d6d6174682d7375622d756e646572666c6f770000000000000000000000604482015290519081900360640190fd5b60015460008054604080516370a0823160e01b81526001600160a01b0392831660048201529051929391909116916370a0823191602480820192602092909190829003018186803b158015610ac757600080fd5b505afa158015610adb573d6000803e3d6000fd5b505050506040513d6020811015610af157600080fd5b5051600554909150811015610b30576005546001546000549183900391610b25916001600160a01b03908116911683610b33565b600580549190910390555b50565b604080518082018252601981527f7472616e7366657228616464726573732c75696e74323536290000000000000060209182015281516001600160a01b0385811660248301526044808301869052845180840390910181526064909201845291810180517bffffffffffffffffffffffffffffffffffffffffffffffffffffffff1663a9059cbb60e01b1781529251815160009460609489169392918291908083835b60208310610bf55780518252601f199092019160209182019101610bd6565b6001836020036101000a0380198251168184511680821785525050505050509050019150506000604051808303816000865af19150503d8060008114610c57576040519150601f19603f3d011682016040523d82523d6000602084013e610c5c565b606091505b5091509150818015610c8a575080511580610c8a5750808060200190516020811015610c8757600080fd5b50515b610cdb576040805162461bcd60e51b815260206004820152601d60248201527f5a6972636f6e2050796c6f6e3a205452414e534645525f4641494c4544000000604482015290519081900360640190fd5b505050505056fea265627a7a723158206bda49a73ed256726d2ba92ecd389d2e9679aae478c9bc6a530aabe3ce04a2eb64736f6c63430005100032608060405234801561001057600080fd5b506000805460ff19166001179055600280546001600160a01b03191633179055610cdf8061003f6000396000f3fe608060405234801561001057600080fd5b506004361061004c5760003560e01c80633587647614610051578063bf047ead146100ab578063ca77ab65146100cf578063cd3293de146100d7575b600080fd5b6100a9600480360360e081101561006757600080fd5b506001600160a01b038135811691602081013582169160408201358116916060810135821691608082013581169160a081013582169160c090910135166100f1565b005b6100b36102ad565b604080516001600160a01b039092168252519081900360200190f35b6100a96102bc565b6100df6107fd565b60408051918252519081900360200190f35b6002546001600160a01b03163314610150576040805162461bcd60e51b815260206004820152601860248201527f5a45523a204e6f742070726f7065726c792063616c6c65640000000000000000604482015290519081900360640190fd5b6000866001600160a01b0316886001600160a01b0316630dfe16816040518163ffffffff1660e01b815260040160206040518083038186803b15801561019557600080fd5b505afa1580156101a9573d6000803e3d6000fd5b505050506040513d60208110156101bf57600080fd5b50516001600160a01b0316149050600080826101dc5788886101df565b88885b6040805160e0810182526001600160a01b039d8e16808252938e1660208201819052928e16918101829052998d1660608b01819052988d1660808b01819052978d1660a08b0181905296909c1660c0909901899052600380547fffffffffffffffffffffffff000000000000000000000000000000000000000090811690931790556004805483169091179055600580548216909b17909a55505060068054891690941790935560078054881690921790915560088054871690911790555060098054909416179092555050565b6002546001600160a01b031681565b6003546001600160a01b0316331461031b576040805162461bcd60e51b815260206004820152600d60248201527f5a453a204e6f742050796c6f6e00000000000000000000000000000000000000604482015290519081900360640190fd5b60005460ff16610372576040805162461bcd60e51b815260206004820152601f60248201527f5265656e7472616e637947756172643a207265656e7472616e742063616c6c00604482015290519081900360640190fd5b6000805460ff19168155600354604080516370a0823160e01b815230600482015290516001600160a01b03909216916370a0823191602480820192602092909190829003018186803b1580156103c757600080fd5b505afa1580156103db573d6000803e3d6000fd5b505050506040513d60208110156103f157600080fd5b505160408051808201909152600c81527f7a65723a2042616c616e6365000000000000000000000000000000000000000060208201529091506104349082610803565b600154811161048a576040805162461bcd60e51b815260206004820152600d60248201527f5a45523a20526576657274656400000000000000000000000000000000000000604482015290519081900360640190fd5b600354600854604080516370a0823160e01b81526001600160a01b039283166004820152905160009392909216916370a0823191602480820192602092909190829003018186803b1580156104de57600080fd5b505afa1580156104f2573d6000803e3d6000fd5b505050506040513d602081101561050857600080fd5b5051600354600954604080516370a0823160e01b81526001600160a01b039283166004820152905193945060009391909216916370a08231916024808301926020929190829003018186803b15801561056057600080fd5b505afa158015610574573d6000803e3d6000fd5b505050506040513d602081101561058a57600080fd5b5051600354604080517f18160ddd00000000000000000000000000000000000000000000000000000000815290519293506000926001600160a01b03909216916318160ddd91600480820192602092909190829003018186803b1580156105f057600080fd5b505afa158015610604573d6000803e3d6000fd5b505050506040513d602081101561061a57600080fd5b505160015490915060009061063690869063ffffffff6108ce16565b905060008261064b838763ffffffff61092c16565b8161065257fe5b049050600083610668848763ffffffff61092c16565b8161066f57fe5b60408051808201909152600b81527f7a65723a3a70796c6f6e3000000000000000000000000000000000000000000060208201526008549290910492506106c09184906001600160a01b0316610998565b60408051808201909152600b81527f7a65723a3a70796c6f6e31000000000000000000000000000000000000000000602082015260095461070c919083906001600160a01b0316610998565b61074b6040518060400160405280600b81526020017f7a65723a3a616d6f756e7400000000000000000000000000000000000000000081525084610803565b600354600654610768916001600160a01b03908116911684610a7e565b600354600754610785916001600160a01b03908116911683610a7e565b6107a5610798838363ffffffff610c3116565b889063ffffffff6108ce16565b600181905560408051808201909152600c81527f7a65723a3a72657365727665000000000000000000000000000000000000000060208201526107e791610803565b50506000805460ff191660011790555050505050565b60015481565b6108ca82826040516024018080602001838152602001828103825284818151815260200191508051906020019080838360005b8381101561084e578181015183820152602001610836565b50505050905090810190601f16801561087b5780820380516001836020036101000a031916815260200191505b5060408051601f198184030181529190526020810180516001600160e01b03167f9710a9d0000000000000000000000000000000000000000000000000000000001790529350610c8992505050565b5050565b80820382811115610926576040805162461bcd60e51b815260206004820152601560248201527f64732d6d6174682d7375622d756e646572666c6f770000000000000000000000604482015290519081900360640190fd5b92915050565b60008115806109475750508082028282828161094457fe5b04145b610926576040805162461bcd60e51b815260206004820152601460248201527f64732d6d6174682d6d756c2d6f766572666c6f77000000000000000000000000604482015290519081900360640190fd5b610a798383836040516024018080602001848152602001836001600160a01b03166001600160a01b03168152602001828103825285818151815260200191508051906020019080838360005b838110156109fc5781810151838201526020016109e4565b50505050905090810190601f168015610a295780820380516001836020036101000a031916815260200191505b5060408051601f198184030181529190526020810180516001600160e01b03167fe3849f79000000000000000000000000000000000000000000000000000000001790529450610c899350505050565b505050565b604080518082018252601981527f7472616e7366657228616464726573732c75696e74323536290000000000000060209182015281516001600160a01b0385811660248301526044808301869052845180840390910181526064909201845291810180516001600160e01b03167fa9059cbb000000000000000000000000000000000000000000000000000000001781529251815160009460609489169392918291908083835b60208310610b445780518252601f199092019160209182019101610b25565b6001836020036101000a0380198251168184511680821785525050505050509050019150506000604051808303816000865af19150503d8060008114610ba6576040519150601f19603f3d011682016040523d82523d6000602084013e610bab565b606091505b5091509150818015610bd9575080511580610bd95750808060200190516020811015610bd657600080fd5b50515b610c2a576040805162461bcd60e51b815260206004820152601d60248201527f5a6972636f6e2050796c6f6e3a205452414e534645525f4641494c4544000000604482015290519081900360640190fd5b5050505050565b80820182811015610926576040805162461bcd60e51b815260206004820152601460248201527f64732d6d6174682d6164642d6f766572666c6f77000000000000000000000000604482015290519081900360640190fd5b80516a636f6e736f6c652e6c6f67602083016000808483855afa505050505056fea265627a7a72315820618566d99a40d5dd72683c355fe064324ed6d41e2dd429d0b80a2bc4173ca95364736f6c63430005100032a265627a7a72315820a1cd96136fbe18c85ac0059d119295ba71bce9af314ee199e33797790bcb2edc64736f6c63430005100032",
  "devdoc": {
    "methods": {}
  },
  "userdoc": {
    "methods": {}
  },
  "storageLayout": {
    "storage": [
      {
        "astId": 6262,
        "contract": "contracts/energy/ZirconEnergyFactory.sol:ZirconEnergyFactory",
        "label": "getEnergy",
        "offset": 0,
        "slot": "0",
        "type": "t_mapping(t_address,t_mapping(t_address,t_address))"
      },
      {
        "astId": 6268,
        "contract": "contracts/energy/ZirconEnergyFactory.sol:ZirconEnergyFactory",
        "label": "getEnergyRevenue",
        "offset": 0,
        "slot": "1",
        "type": "t_mapping(t_address,t_mapping(t_address,t_address))"
      },
      {
        "astId": 6271,
        "contract": "contracts/energy/ZirconEnergyFactory.sol:ZirconEnergyFactory",
        "label": "allEnergies",
        "offset": 0,
        "slot": "2",
        "type": "t_array(t_address)dyn_storage"
      },
      {
        "astId": 6274,
        "contract": "contracts/energy/ZirconEnergyFactory.sol:ZirconEnergyFactory",
        "label": "allEnergiesRevenue",
        "offset": 0,
        "slot": "3",
        "type": "t_array(t_address)dyn_storage"
      }
    ],
    "types": {
      "t_address": {
        "encoding": "inplace",
        "label": "address",
        "numberOfBytes": "20"
      },
      "t_array(t_address)dyn_storage": {
        "base": "t_address",
        "encoding": "dynamic_array",
        "label": "address[]",
        "numberOfBytes": "32"
      },
      "t_mapping(t_address,t_address)": {
        "encoding": "mapping",
        "key": "t_address",
        "label": "mapping(address => address)",
        "numberOfBytes": "32",
        "value": "t_address"
      },
      "t_mapping(t_address,t_mapping(t_address,t_address))": {
        "encoding": "mapping",
        "key": "t_address",
        "label": "mapping(address => mapping(address => address))",
        "numberOfBytes": "32",
        "value": "t_mapping(t_address,t_address)"
      }
    }
  }
}