{
  "address": "0xD5c9f873D212aAd20BF1ea207285c383dDD63Fd3",
  "abi": [
    {
      "inputs": [
        {
          "internalType": "address",
          "name": "factory",
          "type": "address"
        },
        {
          "internalType": "address",
          "name": "tokenA",
          "type": "address"
        },
        {
          "internalType": "address",
          "name": "tokenB",
          "type": "address"
        },
        {
          "internalType": "address",
          "name": "pair",
          "type": "address"
        }
      ],
      "name": "isInitialized",
      "outputs": [
        {
          "internalType": "bool",
          "name": "initialized",
          "type": "bool"
        }
      ],
      "stateMutability": "view",
      "type": "function"
    },
    {
      "inputs": [
        {
          "internalType": "uint256",
          "name": "reserve",
          "type": "uint256"
        },
        {
          "internalType": "uint256",
          "name": "reservePylon",
          "type": "uint256"
        },
        {
          "internalType": "uint256",
          "name": "syncPercentage",
          "type": "uint256"
        },
        {
          "internalType": "uint256",
          "name": "maxBase",
          "type": "uint256"
        },
        {
          "internalType": "uint256",
          "name": "ptt",
          "type": "uint256"
        },
        {
          "internalType": "uint256",
          "name": "ptb",
          "type": "uint256"
        }
      ],
      "name": "maximumSync",
      "outputs": [
        {
          "internalType": "uint256",
          "name": "maximum",
          "type": "uint256"
        }
      ],
      "stateMutability": "pure",
      "type": "function"
    },
    {
      "inputs": [
        {
          "internalType": "uint256",
          "name": "toConvert",
          "type": "uint256"
        },
        {
          "internalType": "uint256",
          "name": "ptt",
          "type": "uint256"
        },
        {
          "internalType": "uint256",
          "name": "ptb",
          "type": "uint256"
        }
      ],
      "name": "translate",
      "outputs": [
        {
          "internalType": "uint256",
          "name": "amount",
          "type": "uint256"
        }
      ],
      "stateMutability": "pure",
      "type": "function"
    }
  ],
  "transactionHash": "0x39d0fd1b4d52f8143f65e956fd3d4252982dc7cf35a791605d3a7b1c5ad8dccc",
  "args": [],
  "numDeployments": 1,
  "solcInputHash": "9bcf0bae6fd744b89238071ab7a89808",
  "bytecode": "0x610410610026600b82828239805160001a60731461001957fe5b30600052607381538281f3fe730000000000000000000000000000000000000000301460806040526004361061004b5760003560e01c80631852eecc146100505780632f95f76a146100af5780634f497041146100ea575b600080fd5b61009b6004803603608081101561006657600080fd5b5073ffffffffffffffffffffffffffffffffffffffff8135811691602081013582169160408201358116916060013516610125565b604080519115158252519081900360200190f35b6100d8600480360360608110156100c557600080fd5b50803590602081013590604001356101b0565b60408051918252519081900360200190f35b6100d8600480360360c081101561010057600080fd5b5080359060208101359060408101359060608101359060808101359060a001356101e9565b600061013385858585610246565b73ffffffffffffffffffffffffffffffffffffffff1663158ef93e6040518163ffffffff1660e01b815260040160206040518083038186803b15801561017857600080fd5b505afa15801561018c573d6000803e3d6000fd5b505050506040513d60208110156101a257600080fd5b505160011495945050505050565b60008215806101bd575081155b6101df57826101d2858463ffffffff61031016565b816101d957fe5b046101e1565b835b949350505050565b6000806101f78885856101b0565b905080158061020557508087115b6102385761023387606461021f848a63ffffffff61031016565b8161022657fe5b049063ffffffff61038216565b61023a565b845b98975050505050505050565b604080516bffffffffffffffffffffffff19606095861b811660208084019190915294861b8116603483015292851b831660488201528151603c818303018152605c820183528051908501207fff00000000000000000000000000000000000000000000000000000000000000607c8301529590941b909116607d84015260918301939093527f70f02a62a722d5aa3660572da0f56438b960ee9e435f9763634cc49a149bb95360b1808401919091528351808403909101815260d1909201909252805191012090565b600081158061032b5750508082028282828161032857fe5b04145b61037c576040805162461bcd60e51b815260206004820152601460248201527f64732d6d6174682d6d756c2d6f766572666c6f77000000000000000000000000604482015290519081900360640190fd5b92915050565b8082038281111561037c576040805162461bcd60e51b815260206004820152601560248201527f64732d6d6174682d7375622d756e646572666c6f770000000000000000000000604482015290519081900360640190fdfea2646970667358221220b89e611bd585f07a9cf2079a25236938718e06c53c6eb423ae2bf4821be0549064736f6c63430006060033",
  "devdoc": {
    "methods": {}
  },
  "userdoc": {
    "methods": {}
  },
  "storageLayout": {
    "storage": [],
    "types": null
  }
}