{
  "address": "0x9EEF815346E0E156CF89Ae21987FA760892A5D8c",
  "abi": [
    {
      "inputs": [
        {
          "internalType": "address",
          "name": "_factory",
          "type": "address"
        },
        {
          "internalType": "address",
          "name": "_pylonFactory",
          "type": "address"
        },
        {
          "internalType": "address",
          "name": "_WETH",
          "type": "address"
        }
      ],
      "stateMutability": "nonpayable",
      "type": "constructor"
    },
    {
      "inputs": [],
      "name": "WETH",
      "outputs": [
        {
          "internalType": "address",
          "name": "",
          "type": "address"
        }
      ],
      "stateMutability": "view",
      "type": "function"
    },
    {
      "inputs": [
        {
          "internalType": "address",
          "name": "tokenA",
          "type": "address"
        },
        {
          "internalType": "address",
          "name": "tokenB",
          "type": "address"
        },
        {
          "internalType": "uint256",
          "name": "amountADesired",
          "type": "uint256"
        },
        {
          "internalType": "uint256",
          "name": "amountBDesired",
          "type": "uint256"
        },
        {
          "internalType": "uint256",
          "name": "amountAMin",
          "type": "uint256"
        },
        {
          "internalType": "uint256",
          "name": "amountBMin",
          "type": "uint256"
        },
        {
          "internalType": "bool",
          "name": "isAnchor",
          "type": "bool"
        },
        {
          "internalType": "address",
          "name": "to",
          "type": "address"
        },
        {
          "internalType": "uint256",
          "name": "deadline",
          "type": "uint256"
        }
      ],
      "name": "addAsyncLiquidity",
      "outputs": [
        {
          "internalType": "uint256",
          "name": "amountA",
          "type": "uint256"
        },
        {
          "internalType": "uint256",
          "name": "amountB",
          "type": "uint256"
        },
        {
          "internalType": "uint256",
          "name": "liquidity",
          "type": "uint256"
        }
      ],
      "stateMutability": "nonpayable",
      "type": "function"
    },
    {
      "inputs": [
        {
          "internalType": "address",
          "name": "tokenA",
          "type": "address"
        },
        {
          "internalType": "address",
          "name": "tokenB",
          "type": "address"
        },
        {
          "internalType": "uint256",
          "name": "amountDesired",
          "type": "uint256"
        },
        {
          "internalType": "bool",
          "name": "isAnchor",
          "type": "bool"
        },
        {
          "internalType": "address",
          "name": "to",
          "type": "address"
        },
        {
          "internalType": "uint256",
          "name": "deadline",
          "type": "uint256"
        }
      ],
      "name": "addAsyncLiquidity100",
      "outputs": [
        {
          "internalType": "uint256",
          "name": "liquidity",
          "type": "uint256"
        }
      ],
      "stateMutability": "nonpayable",
      "type": "function"
    },
    {
      "inputs": [
        {
          "internalType": "address",
          "name": "token",
          "type": "address"
        },
        {
          "internalType": "bool",
          "name": "isAnchor",
          "type": "bool"
        },
        {
          "internalType": "address",
          "name": "to",
          "type": "address"
        },
        {
          "internalType": "uint256",
          "name": "deadline",
          "type": "uint256"
        }
      ],
      "name": "addAsyncLiquidity100ETH",
      "outputs": [
        {
          "internalType": "uint256",
          "name": "liquidity",
          "type": "uint256"
        }
      ],
      "stateMutability": "payable",
      "type": "function"
    },
    {
      "inputs": [
        {
          "internalType": "address",
          "name": "token",
          "type": "address"
        },
        {
          "internalType": "uint256",
          "name": "amountDesiredToken",
          "type": "uint256"
        },
        {
          "internalType": "uint256",
          "name": "amountTokenMin",
          "type": "uint256"
        },
        {
          "internalType": "uint256",
          "name": "amountETHMin",
          "type": "uint256"
        },
        {
          "internalType": "bool",
          "name": "isAnchor",
          "type": "bool"
        },
        {
          "internalType": "bool",
          "name": "shouldReceiveAnchor",
          "type": "bool"
        },
        {
          "internalType": "address",
          "name": "to",
          "type": "address"
        },
        {
          "internalType": "uint256",
          "name": "deadline",
          "type": "uint256"
        }
      ],
      "name": "addAsyncLiquidityETH",
      "outputs": [
        {
          "internalType": "uint256",
          "name": "amountA",
          "type": "uint256"
        },
        {
          "internalType": "uint256",
          "name": "amountB",
          "type": "uint256"
        },
        {
          "internalType": "uint256",
          "name": "liquidity",
          "type": "uint256"
        }
      ],
      "stateMutability": "payable",
      "type": "function"
    },
    {
      "inputs": [
        {
          "internalType": "address",
          "name": "tokenA",
          "type": "address"
        },
        {
          "internalType": "address",
          "name": "tokenB",
          "type": "address"
        },
        {
          "internalType": "uint256",
          "name": "amountDesired",
          "type": "uint256"
        },
        {
          "internalType": "bool",
          "name": "isAnchor",
          "type": "bool"
        },
        {
          "internalType": "address",
          "name": "to",
          "type": "address"
        },
        {
          "internalType": "uint256",
          "name": "deadline",
          "type": "uint256"
        }
      ],
      "name": "addSyncLiquidity",
      "outputs": [
        {
          "internalType": "uint256",
          "name": "amount",
          "type": "uint256"
        },
        {
          "internalType": "uint256",
          "name": "liquidity",
          "type": "uint256"
        }
      ],
      "stateMutability": "nonpayable",
      "type": "function"
    },
    {
      "inputs": [
        {
          "internalType": "address",
          "name": "token",
          "type": "address"
        },
        {
          "internalType": "bool",
          "name": "isAnchor",
          "type": "bool"
        },
        {
          "internalType": "address",
          "name": "to",
          "type": "address"
        },
        {
          "internalType": "uint256",
          "name": "deadline",
          "type": "uint256"
        }
      ],
      "name": "addSyncLiquidityETH",
      "outputs": [
        {
          "internalType": "uint256",
          "name": "liquidity",
          "type": "uint256"
        }
      ],
      "stateMutability": "payable",
      "type": "function"
    },
    {
      "inputs": [],
      "name": "factory",
      "outputs": [
        {
          "internalType": "address",
          "name": "",
          "type": "address"
        }
      ],
      "stateMutability": "view",
      "type": "function"
    },
    {
      "inputs": [
        {
          "internalType": "address",
          "name": "tokenA",
          "type": "address"
        },
        {
          "internalType": "address",
          "name": "tokenB",
          "type": "address"
        },
        {
          "internalType": "uint256",
          "name": "amountDesiredA",
          "type": "uint256"
        },
        {
          "internalType": "uint256",
          "name": "amountDesiredB",
          "type": "uint256"
        },
        {
          "internalType": "address",
          "name": "to",
          "type": "address"
        },
        {
          "internalType": "uint256",
          "name": "deadline",
          "type": "uint256"
        }
      ],
      "name": "init",
      "outputs": [
        {
          "internalType": "uint256",
          "name": "amountA",
          "type": "uint256"
        },
        {
          "internalType": "uint256",
          "name": "amountB",
          "type": "uint256"
        }
      ],
      "stateMutability": "nonpayable",
      "type": "function"
    },
    {
      "inputs": [
        {
          "internalType": "address",
          "name": "token",
          "type": "address"
        },
        {
          "internalType": "uint256",
          "name": "amountDesiredToken",
          "type": "uint256"
        },
        {
          "internalType": "bool",
          "name": "isAnchor",
          "type": "bool"
        },
        {
          "internalType": "address",
          "name": "to",
          "type": "address"
        },
        {
          "internalType": "uint256",
          "name": "deadline",
          "type": "uint256"
        }
      ],
      "name": "initETH",
      "outputs": [
        {
          "internalType": "uint256",
          "name": "amountA",
          "type": "uint256"
        },
        {
          "internalType": "uint256",
          "name": "amountB",
          "type": "uint256"
        }
      ],
      "stateMutability": "payable",
      "type": "function"
    },
    {
      "inputs": [],
      "name": "pylonFactory",
      "outputs": [
        {
          "internalType": "address",
          "name": "",
          "type": "address"
        }
      ],
      "stateMutability": "view",
      "type": "function"
    },
    {
      "inputs": [
        {
          "internalType": "address",
          "name": "tokenA",
          "type": "address"
        },
        {
          "internalType": "address",
          "name": "tokenB",
          "type": "address"
        },
        {
          "internalType": "uint256",
          "name": "liquidity",
          "type": "uint256"
        },
        {
          "internalType": "uint256",
          "name": "amountAMin",
          "type": "uint256"
        },
        {
          "internalType": "uint256",
          "name": "amountBMin",
          "type": "uint256"
        },
        {
          "internalType": "bool",
          "name": "isAnchor",
          "type": "bool"
        },
        {
          "internalType": "address",
          "name": "to",
          "type": "address"
        },
        {
          "internalType": "uint256",
          "name": "deadline",
          "type": "uint256"
        }
      ],
      "name": "removeLiquidityAsync",
      "outputs": [
        {
          "internalType": "uint256",
          "name": "amountA",
          "type": "uint256"
        },
        {
          "internalType": "uint256",
          "name": "amountB",
          "type": "uint256"
        }
      ],
      "stateMutability": "nonpayable",
      "type": "function"
    },
    {
      "inputs": [
        {
          "internalType": "address",
          "name": "token",
          "type": "address"
        },
        {
          "internalType": "uint256",
          "name": "liquidity",
          "type": "uint256"
        },
        {
          "internalType": "uint256",
          "name": "amountTokenMin",
          "type": "uint256"
        },
        {
          "internalType": "uint256",
          "name": "amountETHMin",
          "type": "uint256"
        },
        {
          "internalType": "bool",
          "name": "isAnchor",
          "type": "bool"
        },
        {
          "internalType": "bool",
          "name": "shouldBurnAnchor",
          "type": "bool"
        },
        {
          "internalType": "address",
          "name": "to",
          "type": "address"
        },
        {
          "internalType": "uint256",
          "name": "deadline",
          "type": "uint256"
        }
      ],
      "name": "removeLiquidityAsyncETH",
      "outputs": [
        {
          "internalType": "uint256",
          "name": "amountToken",
          "type": "uint256"
        },
        {
          "internalType": "uint256",
          "name": "amountETH",
          "type": "uint256"
        }
      ],
      "stateMutability": "nonpayable",
      "type": "function"
    },
    {
      "inputs": [
        {
          "internalType": "address",
          "name": "tokenA",
          "type": "address"
        },
        {
          "internalType": "address",
          "name": "tokenB",
          "type": "address"
        },
        {
          "internalType": "uint256",
          "name": "liquidity",
          "type": "uint256"
        },
        {
          "internalType": "uint256",
          "name": "amountMin",
          "type": "uint256"
        },
        {
          "internalType": "bool",
          "name": "shouldReceiveAnchor",
          "type": "bool"
        },
        {
          "internalType": "address",
          "name": "to",
          "type": "address"
        },
        {
          "internalType": "uint256",
          "name": "deadline",
          "type": "uint256"
        }
      ],
      "name": "removeLiquiditySync",
      "outputs": [
        {
          "internalType": "uint256",
          "name": "amount",
          "type": "uint256"
        }
      ],
      "stateMutability": "nonpayable",
      "type": "function"
    },
    {
      "inputs": [
        {
          "internalType": "address",
          "name": "token",
          "type": "address"
        },
        {
          "internalType": "uint256",
          "name": "liquidity",
          "type": "uint256"
        },
        {
          "internalType": "uint256",
          "name": "amountMin",
          "type": "uint256"
        },
        {
          "internalType": "bool",
          "name": "isAnchor",
          "type": "bool"
        },
        {
          "internalType": "bool",
          "name": "shouldRemoveAnchor",
          "type": "bool"
        },
        {
          "internalType": "address",
          "name": "to",
          "type": "address"
        },
        {
          "internalType": "uint256",
          "name": "deadline",
          "type": "uint256"
        }
      ],
      "name": "removeLiquiditySyncETH",
      "outputs": [
        {
          "internalType": "uint256",
          "name": "amount",
          "type": "uint256"
        }
      ],
      "stateMutability": "nonpayable",
      "type": "function"
    },
    {
      "stateMutability": "payable",
      "type": "receive"
    }
  ],
  "transactionHash": "0x0b483722fecb6ed068c71395da2036b516561649d188b187f9bbfc39f270ecff",
  "args": [
    "0xF78a75304f405B7d84B00Ce990E62113c77582d1",
    "0x19Da0E8b44374770Ce289F0117BD4e951250d025",
    "0x1cCA05459311ac2087b2e05B5D04121cd2A5640f"
  ],
  "numDeployments": 1,
  "solcInputHash": "9bcf0bae6fd744b89238071ab7a89808",
  "bytecode": "0x60e060405234801561001057600080fd5b506040516139523803806139528339818101604052606081101561003357600080fd5b50805160208201516040909201516001600160601b0319606083811b821660805282811b821660c05284901b1660a0526001600160a01b0391821692821691166137f561015d6000398060fc52806108dd5280610908528061096b5280610a025280610fe85280611013528061105552806110ec52806112ad52806112d8528061131a52806113b152806118b45280611b875280611bb25280611c225280611ca25280611e815280611eb55280611f135280612009528061203452806120b752508061161f5280611705528061214d5280612176528061231d52806123eb52806124bb52806128b7528061299d5280612be85280612cce5250806114db5280611b00528061219c52806121d3528061234752806127735280612aa45280612dcd52506137f56000f3fe6080604052600436106100ec5760003560e01c8063ad5c46481161008a578063e7ec4b8411610059578063e7ec4b84146104a8578063ed1d080f146104ff578063ef68f27f14610563578063ef8863b4146105c257610125565b8063ad5c464814610380578063bb6eea2f146103b1578063bb8d336214610408578063c45a01551461049357610125565b806359b9a98b116100c657806359b9a98b1461024d5780636cb7fce6146102b15780637deeae3d146102ed57806383a9a1491461032957610125565b8063119438711461012a578063230e9bca1461019b57806359b11df7146101f857610125565b3661012557336001600160a01b037f0000000000000000000000000000000000000000000000000000000000000000161461012357fe5b005b600080fd5b34801561013657600080fd5b50610189600480360360e081101561014d57600080fd5b506001600160a01b0381358116916020810135821691604082013591606081013591608082013515159160a08101359091169060c001356105d7565b60408051918252519081900360200190f35b6101df600480360360a08110156101b157600080fd5b506001600160a01b03813581169160208101359160408201351515916060810135909116906080013561087a565b6040805192835260208301919091528051918290030190f35b34801561020457600080fd5b506101df600480360360c081101561021b57600080fd5b506001600160a01b03813581169160208101358216916040820135916060810135916080820135169060a00135610b04565b34801561025957600080fd5b506101df600480360361010081101561027157600080fd5b506001600160a01b038135811691602081013582169160408201359160608101359160808201359160a081013515159160c0820135169060e00135610c47565b610189600480360360808110156102c757600080fd5b506001600160a01b03813581169160208101351515916040820135169060600135610f31565b6101896004803603608081101561030357600080fd5b506001600160a01b038135811691602081013515159160408201351690606001356111f6565b34801561033557600080fd5b50610189600480360360c081101561034c57600080fd5b506001600160a01b038135811691602081013582169160408201359160608101351515916080820135169060a00135611482565b34801561038c57600080fd5b506103956118b2565b604080516001600160a01b039092168252519081900360200190f35b3480156103bd57600080fd5b506101df600480360360c08110156103d457600080fd5b506001600160a01b038135811691602081013582169160408201359160608101351515916080820135169060a001356118d6565b34801561041457600080fd5b50610475600480360361012081101561042c57600080fd5b506001600160a01b038135811691602081013582169160408201359160608101359160808201359160a08101359160c082013515159160e08101359091169061010001356119ee565b60408051938452602084019290925282820152519081900360600190f35b34801561049f57600080fd5b50610395611afe565b61047560048036036101008110156104bf57600080fd5b506001600160a01b038135811691602081013591604082013591606081013591608082013515159160a081013515159160c0820135169060e00135611b22565b34801561050b57600080fd5b506101df600480360361010081101561052357600080fd5b506001600160a01b038135811691602081013591604082013591606081013591608082013515159160a081013515159160c0820135169060e00135611e1f565b34801561056f57600080fd5b50610189600480360360e081101561058657600080fd5b506001600160a01b0381358116916020810135916040820135916060810135151591608082013515159160a08101359091169060c00135611fa7565b3480156105ce57600080fd5b5061039561214b565b6000814281101561062a576040805162461bcd60e51b8152602060048201526018602482015277155b9a5cddd85c158c949bdd5d195c8e881156141254915160421b604482015290519081900360640190fd5b60006106368a8a61216f565b9050856106a757806001600160a01b03166306e53aec6040518163ffffffff1660e01b815260040160206040518083038186803b15801561067657600080fd5b505afa15801561068a573d6000803e3d6000fd5b505050506040513d60208110156106a057600080fd5b505161070d565b806001600160a01b03166322e489a46040518163ffffffff1660e01b815260040160206040518083038186803b1580156106e057600080fd5b505afa1580156106f4573d6000803e3d6000fd5b505050506040513d602081101561070a57600080fd5b50515b604080516323b872dd60e01b81523360048201526001600160a01b038481166024830152604482018c9052915192909116916323b872dd916064808201926020929091908290030181600087803b15801561076757600080fd5b505af115801561077b573d6000803e3d6000fd5b505050506040513d602081101561079157600080fd5b5050604080517fba7b3dea0000000000000000000000000000000000000000000000000000000081526001600160a01b038781166004830152881515602483015291519183169163ba7b3dea916044808201926020929091908290030181600087803b15801561080057600080fd5b505af1158015610814573d6000803e3d6000fd5b505050506040513d602081101561082a57600080fd5b505192508683101561086d5760405162461bcd60e51b81526004018080602001828103825260248152602001806136fc6024913960400191505060405180910390fd5b5050979650505050505050565b60008082428110156108ce576040805162461bcd60e51b8152602060048201526018602482015277155b9a5cddd85c158c949bdd5d195c8e881156141254915160421b604482015290519081900360640190fd5b6000866108db57886108fd565b7f00000000000000000000000000000000000000000000000000000000000000005b905060008761092c577f000000000000000000000000000000000000000000000000000000000000000061092e565b895b9050600061093c83836121ce565b9150508861094a578961094c565b345b955088610959573461095b565b895b94506109698b33838d61253c565b7f00000000000000000000000000000000000000000000000000000000000000006001600160a01b031663d0e30db0346040518263ffffffff1660e01b81526004016000604051808303818588803b1580156109c457600080fd5b505af11580156109d8573d6000803e3d6000fd5b50506040805163a9059cbb60e01b81526001600160a01b03868116600483015234602483015291517f0000000000000000000000000000000000000000000000000000000000000000909216945063a9059cbb935060448082019350602092918290030181600087803b158015610a4e57600080fd5b505af1158015610a62573d6000803e3d6000fd5b505050506040513d6020811015610a7857600080fd5b5051610a8057fe5b60408051633ca5007160e21b81526001600160a01b038a8116600483015282519084169263f29401c492602480820193918290030181600087803b158015610ac757600080fd5b505af1158015610adb573d6000803e3d6000fd5b505050506040513d6040811015610af157600080fd5b50959b949a509398505050505050505050565b6000808242811015610b58576040805162461bcd60e51b8152602060048201526018602482015277155b9a5cddd85c158c949bdd5d195c8e881156141254915160421b604482015290519081900360640190fd5b6000610b648a8a6121ce565b915050610ba66040518060400160405280600d81526020017f70796c6f6e20616464726573730000000000000000000000000000000000000081525082612699565b879350869250610bb88a33838761253c565b610bc48933838661253c565b60408051633ca5007160e21b81526001600160a01b03888116600483015282519084169263f29401c492602480820193918290030181600087803b158015610c0b57600080fd5b505af1158015610c1f573d6000803e3d6000fd5b505050506040513d6040811015610c3557600080fd5b50939a92995091975050505050505050565b6000808242811015610c9b576040805162461bcd60e51b8152602060048201526018602482015277155b9a5cddd85c158c949bdd5d195c8e881156141254915160421b604482015290519081900360640190fd5b6000610ca78c8c61216f565b905086610d1857806001600160a01b03166306e53aec6040518163ffffffff1660e01b815260040160206040518083038186803b158015610ce757600080fd5b505afa158015610cfb573d6000803e3d6000fd5b505050506040513d6020811015610d1157600080fd5b5051610d7e565b806001600160a01b03166322e489a46040518163ffffffff1660e01b815260040160206040518083038186803b158015610d5157600080fd5b505afa158015610d65573d6000803e3d6000fd5b505050506040513d6020811015610d7b57600080fd5b50515b604080516323b872dd60e01b81523360048201526001600160a01b038481166024830152604482018e9052915192909116916323b872dd916064808201926020929091908290030181600087803b158015610dd857600080fd5b505af1158015610dec573d6000803e3d6000fd5b505050506040513d6020811015610e0257600080fd5b5050604080517fc561cf4f0000000000000000000000000000000000000000000000000000000081526001600160a01b038881166004830152891515602483015282519084169263c561cf4f92604480820193918290030181600087803b158015610e6c57600080fd5b505af1158015610e80573d6000803e3d6000fd5b505050506040513d6040811015610e9657600080fd5b508051602090910151909450925088841015610ee35760405162461bcd60e51b815260040180806020018281038252602681526020018061376d6026913960400191505060405180910390fd5b87831015610f225760405162461bcd60e51b81526004018080602001828103825260268152602001806136d66026913960400191505060405180910390fd5b50509850989650505050505050565b60008142811015610f84576040805162461bcd60e51b8152602060048201526018602482015277155b9a5cddd85c158c949bdd5d195c8e881156141254915160421b604482015290519081900360640190fd5b60003411610fd9576040805162461bcd60e51b815260206004820152600f60248201527f5a50523a205a45524f2d56414c55450000000000000000000000000000000000604482015290519081900360640190fd5b600085610fe65786611008565b7f00000000000000000000000000000000000000000000000000000000000000005b9050600086611037577f0000000000000000000000000000000000000000000000000000000000000000611039565b875b9050611045828261276d565b6000611051838361216f565b90507f00000000000000000000000000000000000000000000000000000000000000006001600160a01b031663d0e30db0346040518263ffffffff1660e01b81526004016000604051808303818588803b1580156110ae57600080fd5b505af11580156110c2573d6000803e3d6000fd5b50506040805163a9059cbb60e01b81526001600160a01b03868116600483015234602483015291517f0000000000000000000000000000000000000000000000000000000000000000909216945063a9059cbb935060448082019350602092918290030181600087803b15801561113857600080fd5b505af115801561114c573d6000803e3d6000fd5b505050506040513d602081101561116257600080fd5b505161116a57fe5b6040805163ac9370f360e01b81526001600160a01b0389811660048301528a15602483015291519183169163ac9370f3916044808201926020929091908290030181600087803b1580156111bd57600080fd5b505af11580156111d1573d6000803e3d6000fd5b505050506040513d60208110156111e757600080fd5b50519998505050505050505050565b60008142811015611249576040805162461bcd60e51b8152602060048201526018602482015277155b9a5cddd85c158c949bdd5d195c8e881156141254915160421b604482015290519081900360640190fd5b6000341161129e576040805162461bcd60e51b815260206004820152600f60248201527f5a50523a205a45524f2d56414c55450000000000000000000000000000000000604482015290519081900360640190fd5b6000856112ab57866112cd565b7f00000000000000000000000000000000000000000000000000000000000000005b90506000866112fc577f00000000000000000000000000000000000000000000000000000000000000006112fe565b875b905061130a828261276d565b6000611316838361216f565b90507f00000000000000000000000000000000000000000000000000000000000000006001600160a01b031663d0e30db0346040518263ffffffff1660e01b81526004016000604051808303818588803b15801561137357600080fd5b505af1158015611387573d6000803e3d6000fd5b50506040805163a9059cbb60e01b81526001600160a01b03868116600483015234602483015291517f0000000000000000000000000000000000000000000000000000000000000000909216945063a9059cbb935060448082019350602092918290030181600087803b1580156113fd57600080fd5b505af1158015611411573d6000803e3d6000fd5b505050506040513d602081101561142757600080fd5b505161142f57fe5b604080516346a3871160e11b81526001600160a01b0389811660048301528a156024830152915191831691638d470e22916044808201926020929091908290030181600087803b1580156111bd57600080fd5b600081428110156114d5576040805162461bcd60e51b8152602060048201526018602482015277155b9a5cddd85c158c949bdd5d195c8e881156141254915160421b604482015290519081900360640190fd5b878760007f00000000000000000000000000000000000000000000000000000000000000006001600160a01b031663e6a4390584846040518363ffffffff1660e01b815260040180836001600160a01b03166001600160a01b03168152602001826001600160a01b03166001600160a01b031681526020019250505060206040518083038186803b15801561156957600080fd5b505afa15801561157d573d6000803e3d6000fd5b505050506040513d602081101561159357600080fd5b505190506001600160a01b0381166115f2576040805162461bcd60e51b815260206004820152601560248201527f5a50523a2050616972204e6f7420437265617465640000000000000000000000604482015290519081900360640190fd5b60408051630e0f297360e01b81526001600160a01b038581166004830152848116602483015291516000927f00000000000000000000000000000000000000000000000000000000000000001691630e0f2973916044808301926020929190829003018186803b15801561166557600080fd5b505afa158015611679573d6000803e3d6000fd5b505050506040513d602081101561168f57600080fd5b50516001600160a01b031614156116ed576040805162461bcd60e51b815260206004820152601660248201527f5a50523a2050796c6f6e206e6f74206372656174656400000000000000000000604482015290519081900360640190fd5b60408051630614bbb360e21b81526001600160a01b037f0000000000000000000000000000000000000000000000000000000000000000811660048301528086166024830152808516604483015283166064820152905173D5c9f873D212aAd20BF1ea207285c383dDD63Fd391631852eecc916084808301926020929190829003018186803b15801561177f57600080fd5b505af4158015611793573d6000803e3d6000fd5b505050506040513d60208110156117a957600080fd5b50516117fc576040805162461bcd60e51b815260206004820152601a60248201527f5a50523a2050796c6f6e204e6f7420496e697469616c697a6564000000000000604482015290519081900360640190fd5b60006118088c8c61216f565b905061182289611818578c61181a565b8b5b33838d61253c565b6040805163ac9370f360e01b81526001600160a01b038a811660048301528b1515602483015291519183169163ac9370f3916044808201926020929091908290030181600087803b15801561187657600080fd5b505af115801561188a573d6000803e3d6000fd5b505050506040513d60208110156118a057600080fd5b50519c9b505050505050505050505050565b7f000000000000000000000000000000000000000000000000000000000000000081565b600080824281101561192a576040805162461bcd60e51b8152602060048201526018602482015277155b9a5cddd85c158c949bdd5d195c8e881156141254915160421b604482015290519081900360640190fd5b611934898961276d565b86925060006119438a8a61216f565b905061195d87611953578a611955565b895b33838761253c565b604080516346a3871160e11b81526001600160a01b0388811660048301528915156024830152915191831691638d470e22916044808201926020929091908290030181600087803b1580156119b157600080fd5b505af11580156119c5573d6000803e3d6000fd5b505050506040513d60208110156119db57600080fd5b5051939a93995092975050505050505050565b60008060008342811015611a44576040805162461bcd60e51b8152602060048201526018602482015277155b9a5cddd85c158c949bdd5d195c8e881156141254915160421b604482015290519081900360640190fd5b611a528d8d8d8d8d8d612a9b565b90945092506000611a658e8e8787612ee5565b604080516319e6ef2760e11b81526001600160a01b038a811660048301528b151560248301529151929350908316916333cdde4e916044808201926020929091908290030181600087803b158015611abc57600080fd5b505af1158015611ad0573d6000803e3d6000fd5b505050506040513d6020811015611ae657600080fd5b5051949e939d50939b50919950505050505050505050565b7f000000000000000000000000000000000000000000000000000000000000000081565b60008060008342811015611b78576040805162461bcd60e51b8152602060048201526018602482015277155b9a5cddd85c158c949bdd5d195c8e881156141254915160421b604482015290519081900360640190fd5b600088611b85578c611ba7565b7f00000000000000000000000000000000000000000000000000000000000000005b9050600089611bd6577f0000000000000000000000000000000000000000000000000000000000000000611bd8565b8d5b9050611be98d348e8e8e8787612f13565b90965094506000611bfa838361216f565b9050611c208b611c0a5783611c0c565b825b33838e611c19578a611c1b565b895b61253c565b7f00000000000000000000000000000000000000000000000000000000000000006001600160a01b031663d0e30db08c611c5a5787611c5c565b885b6040518263ffffffff1660e01b81526004016000604051808303818588803b158015611c8757600080fd5b505af1158015611c9b573d6000803e3d6000fd5b50505050507f00000000000000000000000000000000000000000000000000000000000000006001600160a01b031663a9059cbb828d611cdb5788611cdd565b895b6040518363ffffffff1660e01b815260040180836001600160a01b03166001600160a01b0316815260200182815260200192505050602060405180830381600087803b158015611d2c57600080fd5b505af1158015611d40573d6000803e3d6000fd5b505050506040513d6020811015611d5657600080fd5b5051611d5e57fe5b604080516319e6ef2760e11b81526001600160a01b038b811660048301528c151560248301529151918316916333cdde4e916044808201926020929091908290030181600087803b158015611db257600080fd5b505af1158015611dc6573d6000803e3d6000fd5b505050506040513d6020811015611ddc57600080fd5b505194508a9050611ded5784611def565b855b341115611e0e57611e0e338b611e055786611e07565b875b3403612f80565b505050985098509895505050505050565b6000808242811015611e73576040805162461bcd60e51b8152602060048201526018602482015277155b9a5cddd85c158c949bdd5d195c8e881156141254915160421b604482015290519081900360640190fd5b600080611ee08915611ea5577f0000000000000000000000000000000000000000000000000000000000000000611ea7565b8d5b8a15611eb3578e611ed5565b7f00000000000000000000000000000000000000000000000000000000000000005b8e8e8e8d308d610c47565b915091508815611ef05780611ef2565b815b94508815611f005781611f02565b805b93505050611f118b8685613078565b7f00000000000000000000000000000000000000000000000000000000000000006001600160a01b0316632e1a7d4d836040518263ffffffff1660e01b815260040180828152602001915050600060405180830381600087803b158015611f7757600080fd5b505af1158015611f8b573d6000803e3d6000fd5b50505050611f998583612f80565b509850989650505050505050565b60008142811015611ffa576040805162461bcd60e51b8152602060048201526018602482015277155b9a5cddd85c158c949bdd5d195c8e881156141254915160421b604482015290519081900360640190fd5b6000866120075789612029565b7f00000000000000000000000000000000000000000000000000000000000000005b9050600087612058577f000000000000000000000000000000000000000000000000000000000000000061205a565b8a5b905061209282828c8c8b8d801561206e57508c5b8061208057508c15801561208057508d155b61208a573061208c565b8b5b8b6105d7565b935087801561209f575086155b806120b057508680156120b0575087155b1561213d577f00000000000000000000000000000000000000000000000000000000000000006001600160a01b0316632e1a7d4d856040518263ffffffff1660e01b815260040180828152602001915050600060405180830381600087803b15801561211b57600080fd5b505af115801561212f573d6000803e3d6000fd5b5050505061213d8685612f80565b505050979650505050505050565b7f000000000000000000000000000000000000000000000000000000000000000081565b60006121c77f000000000000000000000000000000000000000000000000000000000000000084846121c27f000000000000000000000000000000000000000000000000000000000000000088886131c5565b61329d565b9392505050565b6000807f00000000000000000000000000000000000000000000000000000000000000006001600160a01b031663e6a4390585856040518363ffffffff1660e01b815260040180836001600160a01b03166001600160a01b03168152602001826001600160a01b03166001600160a01b031681526020019250505060206040518083038186803b15801561226157600080fd5b505afa158015612275573d6000803e3d6000fd5b505050506040513d602081101561228b57600080fd5b505160408051808201909152600c81527f706169722061646472657373000000000000000000000000000000000000000060208201529092506122ce9083612699565b6001600160a01b0382166123c157604080517f76f797380000000000000000000000000000000000000000000000000000000081526001600160a01b03868116600483015285811660248301527f00000000000000000000000000000000000000000000000000000000000000008116604483015291517f0000000000000000000000000000000000000000000000000000000000000000909216916376f79738916064808201926020929091908290030181600087803b15801561239257600080fd5b505af11580156123a6573d6000803e3d6000fd5b505050506040513d60208110156123bc57600080fd5b505191505b60408051630e0f297360e01b81526001600160a01b038681166004830152858116602483015291517f000000000000000000000000000000000000000000000000000000000000000090921691630e0f297391604480820192602092909190829003018186803b15801561243457600080fd5b505afa158015612448573d6000803e3d6000fd5b505050506040513d602081101561245e57600080fd5b505190506001600160a01b03811661253557604080517f79281abe0000000000000000000000000000000000000000000000000000000081526001600160a01b0384811660048301528681166024830152858116604483015291517f0000000000000000000000000000000000000000000000000000000000000000909216916379281abe916064808201926020929091908290030181600087803b15801561250657600080fd5b505af115801561251a573d6000803e3d6000fd5b505050506040513d602081101561253057600080fd5b505190505b9250929050565b604080516001600160a01b0385811660248301528481166044830152606480830185905283518084039091018152608490920183526020820180516001600160e01b03166323b872dd60e01b17815292518251600094606094938a169392918291908083835b602083106125c15780518252601f1990920191602091820191016125a2565b6001836020036101000a0380198251168184511680821785525050505050509050019150506000604051808303816000865af19150503d8060008114612623576040519150601f19603f3d011682016040523d82523d6000602084013e612628565b606091505b5091509150818015612656575080511580612656575080806020019051602081101561265357600080fd5b50515b6126915760405162461bcd60e51b815260040180806020018281038252603181526020018061364c6031913960400191505060405180910390fd5b505050505050565b604080516001600160a01b0383166044820152602481019182528351606482015283516127699285928592829160840190602086019080838360005b838110156126ed5781810151838201526020016126d5565b50505050905090810190601f16801561271a5780820380516001836020036101000a031916815260200191505b5060408051601f198184030181529190526020810180516001600160e01b03167f319af33300000000000000000000000000000000000000000000000000000000179052935061336792505050565b5050565b818160007f00000000000000000000000000000000000000000000000000000000000000006001600160a01b031663e6a4390584846040518363ffffffff1660e01b815260040180836001600160a01b03166001600160a01b03168152602001826001600160a01b03166001600160a01b031681526020019250505060206040518083038186803b15801561280157600080fd5b505afa158015612815573d6000803e3d6000fd5b505050506040513d602081101561282b57600080fd5b505190506001600160a01b03811661288a576040805162461bcd60e51b815260206004820152601560248201527f5a50523a2050616972204e6f7420437265617465640000000000000000000000604482015290519081900360640190fd5b60408051630e0f297360e01b81526001600160a01b038581166004830152848116602483015291516000927f00000000000000000000000000000000000000000000000000000000000000001691630e0f2973916044808301926020929190829003018186803b1580156128fd57600080fd5b505afa158015612911573d6000803e3d6000fd5b505050506040513d602081101561292757600080fd5b50516001600160a01b03161415612985576040805162461bcd60e51b815260206004820152601660248201527f5a50523a2050796c6f6e206e6f74206372656174656400000000000000000000604482015290519081900360640190fd5b60408051630614bbb360e21b81526001600160a01b037f0000000000000000000000000000000000000000000000000000000000000000811660048301528086166024830152808516604483015283166064820152905173D5c9f873D212aAd20BF1ea207285c383dDD63Fd391631852eecc916084808301926020929190829003018186803b158015612a1757600080fd5b505af4158015612a2b573d6000803e3d6000fd5b505050506040513d6020811015612a4157600080fd5b5051612a94576040805162461bcd60e51b815260206004820152601a60248201527f5a50523a2050796c6f6e204e6f7420496e697469616c697a6564000000000000604482015290519081900360640190fd5b5050505050565b600080878760007f00000000000000000000000000000000000000000000000000000000000000006001600160a01b031663e6a4390584846040518363ffffffff1660e01b815260040180836001600160a01b03166001600160a01b03168152602001826001600160a01b03166001600160a01b031681526020019250505060206040518083038186803b158015612b3257600080fd5b505afa158015612b46573d6000803e3d6000fd5b505050506040513d6020811015612b5c57600080fd5b505190506001600160a01b038116612bbb576040805162461bcd60e51b815260206004820152601560248201527f5a50523a2050616972204e6f7420437265617465640000000000000000000000604482015290519081900360640190fd5b60408051630e0f297360e01b81526001600160a01b038581166004830152848116602483015291516000927f00000000000000000000000000000000000000000000000000000000000000001691630e0f2973916044808301926020929190829003018186803b158015612c2e57600080fd5b505afa158015612c42573d6000803e3d6000fd5b505050506040513d6020811015612c5857600080fd5b50516001600160a01b03161415612cb6576040805162461bcd60e51b815260206004820152601660248201527f5a50523a2050796c6f6e206e6f74206372656174656400000000000000000000604482015290519081900360640190fd5b60408051630614bbb360e21b81526001600160a01b037f0000000000000000000000000000000000000000000000000000000000000000811660048301528086166024830152808516604483015283166064820152905173D5c9f873D212aAd20BF1ea207285c383dDD63Fd391631852eecc916084808301926020929190829003018186803b158015612d4857600080fd5b505af4158015612d5c573d6000803e3d6000fd5b505050506040513d6020811015612d7257600080fd5b5051612dc5576040805162461bcd60e51b815260206004820152601a60248201527f5a50523a2050796c6f6e204e6f7420496e697469616c697a6564000000000000604482015290519081900360640190fd5b600080612df37f00000000000000000000000000000000000000000000000000000000000000008e8e613388565b91509150816000148015612e05575080155b15612e15578a9650899550612ed5565b6000612e228c8484613456565b90508a8111612e755788811015612e6a5760405162461bcd60e51b81526004018080602001828103825260268152602001806136d66026913960400191505060405180910390fd5b8b9750955085612ed3565b6000612e828c8486613456565b90508c811115612e8e57fe5b8a811015612ecd5760405162461bcd60e51b815260040180806020018281038252602681526020018061376d6026913960400191505060405180910390fd5b97508a96505b505b5050505050965096945050505050565b6000612ef1858561216f565b9050612eff8533838661253c565b612f0b8433838561253c565b949350505050565b60008060008515612f245788612f26565b895b905060008615612f36578a612f38565b895b905060008715612f485788612f4a565b895b905060008815612f5a578a612f5c565b895b9050612f6c888886868686612a9b565b909e909d509b505050505050505050505050565b604080516000808252602082019092526001600160a01b0384169083906040518082805190602001908083835b60208310612fcc5780518252601f199092019160209182019101612fad565b6001836020036101000a03801982511681845116808217855250505050505090500191505060006040518083038185875af1925050503d806000811461302e576040519150601f19603f3d011682016040523d82523d6000602084013e613033565b606091505b50509050806130735760405162461bcd60e51b815260040180806020018281038252603481526020018061367d6034913960400191505060405180910390fd5b505050565b604080516001600160a01b038481166024830152604480830185905283518084039091018152606490920183526020820180516001600160e01b031663a9059cbb60e01b178152925182516000946060949389169392918291908083835b602083106130f55780518252601f1990920191602091820191016130d6565b6001836020036101000a0380198251168184511680821785525050505050509050019150506000604051808303816000865af19150503d8060008114613157576040519150601f19603f3d011682016040523d82523d6000602084013e61315c565b606091505b509150915081801561318a57508051158061318a575080806020019051602081101561318757600080fd5b50515b612a945760405162461bcd60e51b815260040180806020018281038252602d815260200180613793602d913960400191505060405180910390fd5b60008060006131d48585613502565b604080516bffffffffffffffffffffffff19606094851b811660208084019190915293851b81166034830152825160288184030181526048830184528051908501207fff0000000000000000000000000000000000000000000000000000000000000060688401529a90941b9093166069840152607d8301989098527f0731dee119e38b0e51b64db5eef1ff812d2dc2d0de19e86f49e177147c19063f609d808401919091528851808403909101815260bd909201909752805196019590952095945050505050565b604080516bffffffffffffffffffffffff19606095861b811660208084019190915294861b8116603483015292851b831660488201528151603c818303018152605c820183528051908501207fff00000000000000000000000000000000000000000000000000000000000000607c8301529590941b909116607d84015260918301939093527f70f02a62a722d5aa3660572da0f56438b960ee9e435f9763634cc49a149bb95360b1808401919091528351808403909101815260d1909201909252805191012090565b80516a636f6e736f6c652e6c6f67602083016000808483855afa5050505050565b60008060006133978585613502565b5090506000806133a88888886131c5565b6001600160a01b0316630902f1ac6040518163ffffffff1660e01b815260040160606040518083038186803b1580156133e057600080fd5b505afa1580156133f4573d6000803e3d6000fd5b505050506040513d606081101561340a57600080fd5b5080516020909101516dffffffffffffffffffffffffffff91821693501690506001600160a01b0387811690841614613444578082613447565b81815b90999098509650505050505050565b60008084116134965760405162461bcd60e51b81526004018080602001828103825260258152602001806137486025913960400191505060405180910390fd5b6000831180156134a65750600082115b6134e15760405162461bcd60e51b81526004018080602001828103825260288152602001806137206028913960400191505060405180910390fd5b826134f2858463ffffffff6135d916565b816134f957fe5b04949350505050565b600080826001600160a01b0316846001600160a01b031614156135565760405162461bcd60e51b81526004018080602001828103825260258152602001806136b16025913960400191505060405180910390fd5b826001600160a01b0316846001600160a01b031610613576578284613579565b83835b90925090506001600160a01b038216612535576040805162461bcd60e51b815260206004820152601e60248201527f556e697377617056324c6962726172793a205a45524f5f414444524553530000604482015290519081900360640190fd5b60008115806135f4575050808202828282816135f157fe5b04145b613645576040805162461bcd60e51b815260206004820152601460248201527f64732d6d6174682d6d756c2d6f766572666c6f77000000000000000000000000604482015290519081900360640190fd5b9291505056fe5472616e7366657248656c7065723a3a7472616e7366657246726f6d3a207472616e7366657246726f6d206661696c65645472616e7366657248656c7065723a3a736166655472616e736665724554483a20455448207472616e73666572206661696c6564556e697377617056324c6962726172793a204944454e544943414c5f414444524553534553556e69737761705632526f757465723a20494e53554646494349454e545f425f414d4f554e54556e69737761705632526f757465723a20494e53554646494349454e545f414d4f554e54556e697377617056324c6962726172793a20494e53554646494349454e545f4c4951554944495459556e697377617056324c6962726172793a20494e53554646494349454e545f414d4f554e54556e69737761705632526f757465723a20494e53554646494349454e545f415f414d4f554e545472616e7366657248656c7065723a3a736166655472616e736665723a207472616e73666572206661696c6564a26469706673582212202870b9c4d8c6e916bf7aba7086ac13abe52afffb8f87ea3b9b7465a3457273f564736f6c63430006060033",
  "deployedBytecode": "0x6080604052600436106100ec5760003560e01c8063ad5c46481161008a578063e7ec4b8411610059578063e7ec4b84146104a8578063ed1d080f146104ff578063ef68f27f14610563578063ef8863b4146105c257610125565b8063ad5c464814610380578063bb6eea2f146103b1578063bb8d336214610408578063c45a01551461049357610125565b806359b9a98b116100c657806359b9a98b1461024d5780636cb7fce6146102b15780637deeae3d146102ed57806383a9a1491461032957610125565b8063119438711461012a578063230e9bca1461019b57806359b11df7146101f857610125565b3661012557336001600160a01b037f0000000000000000000000000000000000000000000000000000000000000000161461012357fe5b005b600080fd5b34801561013657600080fd5b50610189600480360360e081101561014d57600080fd5b506001600160a01b0381358116916020810135821691604082013591606081013591608082013515159160a08101359091169060c001356105d7565b60408051918252519081900360200190f35b6101df600480360360a08110156101b157600080fd5b506001600160a01b03813581169160208101359160408201351515916060810135909116906080013561087a565b6040805192835260208301919091528051918290030190f35b34801561020457600080fd5b506101df600480360360c081101561021b57600080fd5b506001600160a01b03813581169160208101358216916040820135916060810135916080820135169060a00135610b04565b34801561025957600080fd5b506101df600480360361010081101561027157600080fd5b506001600160a01b038135811691602081013582169160408201359160608101359160808201359160a081013515159160c0820135169060e00135610c47565b610189600480360360808110156102c757600080fd5b506001600160a01b03813581169160208101351515916040820135169060600135610f31565b6101896004803603608081101561030357600080fd5b506001600160a01b038135811691602081013515159160408201351690606001356111f6565b34801561033557600080fd5b50610189600480360360c081101561034c57600080fd5b506001600160a01b038135811691602081013582169160408201359160608101351515916080820135169060a00135611482565b34801561038c57600080fd5b506103956118b2565b604080516001600160a01b039092168252519081900360200190f35b3480156103bd57600080fd5b506101df600480360360c08110156103d457600080fd5b506001600160a01b038135811691602081013582169160408201359160608101351515916080820135169060a001356118d6565b34801561041457600080fd5b50610475600480360361012081101561042c57600080fd5b506001600160a01b038135811691602081013582169160408201359160608101359160808201359160a08101359160c082013515159160e08101359091169061010001356119ee565b60408051938452602084019290925282820152519081900360600190f35b34801561049f57600080fd5b50610395611afe565b61047560048036036101008110156104bf57600080fd5b506001600160a01b038135811691602081013591604082013591606081013591608082013515159160a081013515159160c0820135169060e00135611b22565b34801561050b57600080fd5b506101df600480360361010081101561052357600080fd5b506001600160a01b038135811691602081013591604082013591606081013591608082013515159160a081013515159160c0820135169060e00135611e1f565b34801561056f57600080fd5b50610189600480360360e081101561058657600080fd5b506001600160a01b0381358116916020810135916040820135916060810135151591608082013515159160a08101359091169060c00135611fa7565b3480156105ce57600080fd5b5061039561214b565b6000814281101561062a576040805162461bcd60e51b8152602060048201526018602482015277155b9a5cddd85c158c949bdd5d195c8e881156141254915160421b604482015290519081900360640190fd5b60006106368a8a61216f565b9050856106a757806001600160a01b03166306e53aec6040518163ffffffff1660e01b815260040160206040518083038186803b15801561067657600080fd5b505afa15801561068a573d6000803e3d6000fd5b505050506040513d60208110156106a057600080fd5b505161070d565b806001600160a01b03166322e489a46040518163ffffffff1660e01b815260040160206040518083038186803b1580156106e057600080fd5b505afa1580156106f4573d6000803e3d6000fd5b505050506040513d602081101561070a57600080fd5b50515b604080516323b872dd60e01b81523360048201526001600160a01b038481166024830152604482018c9052915192909116916323b872dd916064808201926020929091908290030181600087803b15801561076757600080fd5b505af115801561077b573d6000803e3d6000fd5b505050506040513d602081101561079157600080fd5b5050604080517fba7b3dea0000000000000000000000000000000000000000000000000000000081526001600160a01b038781166004830152881515602483015291519183169163ba7b3dea916044808201926020929091908290030181600087803b15801561080057600080fd5b505af1158015610814573d6000803e3d6000fd5b505050506040513d602081101561082a57600080fd5b505192508683101561086d5760405162461bcd60e51b81526004018080602001828103825260248152602001806136fc6024913960400191505060405180910390fd5b5050979650505050505050565b60008082428110156108ce576040805162461bcd60e51b8152602060048201526018602482015277155b9a5cddd85c158c949bdd5d195c8e881156141254915160421b604482015290519081900360640190fd5b6000866108db57886108fd565b7f00000000000000000000000000000000000000000000000000000000000000005b905060008761092c577f000000000000000000000000000000000000000000000000000000000000000061092e565b895b9050600061093c83836121ce565b9150508861094a578961094c565b345b955088610959573461095b565b895b94506109698b33838d61253c565b7f00000000000000000000000000000000000000000000000000000000000000006001600160a01b031663d0e30db0346040518263ffffffff1660e01b81526004016000604051808303818588803b1580156109c457600080fd5b505af11580156109d8573d6000803e3d6000fd5b50506040805163a9059cbb60e01b81526001600160a01b03868116600483015234602483015291517f0000000000000000000000000000000000000000000000000000000000000000909216945063a9059cbb935060448082019350602092918290030181600087803b158015610a4e57600080fd5b505af1158015610a62573d6000803e3d6000fd5b505050506040513d6020811015610a7857600080fd5b5051610a8057fe5b60408051633ca5007160e21b81526001600160a01b038a8116600483015282519084169263f29401c492602480820193918290030181600087803b158015610ac757600080fd5b505af1158015610adb573d6000803e3d6000fd5b505050506040513d6040811015610af157600080fd5b50959b949a509398505050505050505050565b6000808242811015610b58576040805162461bcd60e51b8152602060048201526018602482015277155b9a5cddd85c158c949bdd5d195c8e881156141254915160421b604482015290519081900360640190fd5b6000610b648a8a6121ce565b915050610ba66040518060400160405280600d81526020017f70796c6f6e20616464726573730000000000000000000000000000000000000081525082612699565b879350869250610bb88a33838761253c565b610bc48933838661253c565b60408051633ca5007160e21b81526001600160a01b03888116600483015282519084169263f29401c492602480820193918290030181600087803b158015610c0b57600080fd5b505af1158015610c1f573d6000803e3d6000fd5b505050506040513d6040811015610c3557600080fd5b50939a92995091975050505050505050565b6000808242811015610c9b576040805162461bcd60e51b8152602060048201526018602482015277155b9a5cddd85c158c949bdd5d195c8e881156141254915160421b604482015290519081900360640190fd5b6000610ca78c8c61216f565b905086610d1857806001600160a01b03166306e53aec6040518163ffffffff1660e01b815260040160206040518083038186803b158015610ce757600080fd5b505afa158015610cfb573d6000803e3d6000fd5b505050506040513d6020811015610d1157600080fd5b5051610d7e565b806001600160a01b03166322e489a46040518163ffffffff1660e01b815260040160206040518083038186803b158015610d5157600080fd5b505afa158015610d65573d6000803e3d6000fd5b505050506040513d6020811015610d7b57600080fd5b50515b604080516323b872dd60e01b81523360048201526001600160a01b038481166024830152604482018e9052915192909116916323b872dd916064808201926020929091908290030181600087803b158015610dd857600080fd5b505af1158015610dec573d6000803e3d6000fd5b505050506040513d6020811015610e0257600080fd5b5050604080517fc561cf4f0000000000000000000000000000000000000000000000000000000081526001600160a01b038881166004830152891515602483015282519084169263c561cf4f92604480820193918290030181600087803b158015610e6c57600080fd5b505af1158015610e80573d6000803e3d6000fd5b505050506040513d6040811015610e9657600080fd5b508051602090910151909450925088841015610ee35760405162461bcd60e51b815260040180806020018281038252602681526020018061376d6026913960400191505060405180910390fd5b87831015610f225760405162461bcd60e51b81526004018080602001828103825260268152602001806136d66026913960400191505060405180910390fd5b50509850989650505050505050565b60008142811015610f84576040805162461bcd60e51b8152602060048201526018602482015277155b9a5cddd85c158c949bdd5d195c8e881156141254915160421b604482015290519081900360640190fd5b60003411610fd9576040805162461bcd60e51b815260206004820152600f60248201527f5a50523a205a45524f2d56414c55450000000000000000000000000000000000604482015290519081900360640190fd5b600085610fe65786611008565b7f00000000000000000000000000000000000000000000000000000000000000005b9050600086611037577f0000000000000000000000000000000000000000000000000000000000000000611039565b875b9050611045828261276d565b6000611051838361216f565b90507f00000000000000000000000000000000000000000000000000000000000000006001600160a01b031663d0e30db0346040518263ffffffff1660e01b81526004016000604051808303818588803b1580156110ae57600080fd5b505af11580156110c2573d6000803e3d6000fd5b50506040805163a9059cbb60e01b81526001600160a01b03868116600483015234602483015291517f0000000000000000000000000000000000000000000000000000000000000000909216945063a9059cbb935060448082019350602092918290030181600087803b15801561113857600080fd5b505af115801561114c573d6000803e3d6000fd5b505050506040513d602081101561116257600080fd5b505161116a57fe5b6040805163ac9370f360e01b81526001600160a01b0389811660048301528a15602483015291519183169163ac9370f3916044808201926020929091908290030181600087803b1580156111bd57600080fd5b505af11580156111d1573d6000803e3d6000fd5b505050506040513d60208110156111e757600080fd5b50519998505050505050505050565b60008142811015611249576040805162461bcd60e51b8152602060048201526018602482015277155b9a5cddd85c158c949bdd5d195c8e881156141254915160421b604482015290519081900360640190fd5b6000341161129e576040805162461bcd60e51b815260206004820152600f60248201527f5a50523a205a45524f2d56414c55450000000000000000000000000000000000604482015290519081900360640190fd5b6000856112ab57866112cd565b7f00000000000000000000000000000000000000000000000000000000000000005b90506000866112fc577f00000000000000000000000000000000000000000000000000000000000000006112fe565b875b905061130a828261276d565b6000611316838361216f565b90507f00000000000000000000000000000000000000000000000000000000000000006001600160a01b031663d0e30db0346040518263ffffffff1660e01b81526004016000604051808303818588803b15801561137357600080fd5b505af1158015611387573d6000803e3d6000fd5b50506040805163a9059cbb60e01b81526001600160a01b03868116600483015234602483015291517f0000000000000000000000000000000000000000000000000000000000000000909216945063a9059cbb935060448082019350602092918290030181600087803b1580156113fd57600080fd5b505af1158015611411573d6000803e3d6000fd5b505050506040513d602081101561142757600080fd5b505161142f57fe5b604080516346a3871160e11b81526001600160a01b0389811660048301528a156024830152915191831691638d470e22916044808201926020929091908290030181600087803b1580156111bd57600080fd5b600081428110156114d5576040805162461bcd60e51b8152602060048201526018602482015277155b9a5cddd85c158c949bdd5d195c8e881156141254915160421b604482015290519081900360640190fd5b878760007f00000000000000000000000000000000000000000000000000000000000000006001600160a01b031663e6a4390584846040518363ffffffff1660e01b815260040180836001600160a01b03166001600160a01b03168152602001826001600160a01b03166001600160a01b031681526020019250505060206040518083038186803b15801561156957600080fd5b505afa15801561157d573d6000803e3d6000fd5b505050506040513d602081101561159357600080fd5b505190506001600160a01b0381166115f2576040805162461bcd60e51b815260206004820152601560248201527f5a50523a2050616972204e6f7420437265617465640000000000000000000000604482015290519081900360640190fd5b60408051630e0f297360e01b81526001600160a01b038581166004830152848116602483015291516000927f00000000000000000000000000000000000000000000000000000000000000001691630e0f2973916044808301926020929190829003018186803b15801561166557600080fd5b505afa158015611679573d6000803e3d6000fd5b505050506040513d602081101561168f57600080fd5b50516001600160a01b031614156116ed576040805162461bcd60e51b815260206004820152601660248201527f5a50523a2050796c6f6e206e6f74206372656174656400000000000000000000604482015290519081900360640190fd5b60408051630614bbb360e21b81526001600160a01b037f0000000000000000000000000000000000000000000000000000000000000000811660048301528086166024830152808516604483015283166064820152905173__$6f4b38e22cf6b26129418bae2c930c4a30$__91631852eecc916084808301926020929190829003018186803b15801561177f57600080fd5b505af4158015611793573d6000803e3d6000fd5b505050506040513d60208110156117a957600080fd5b50516117fc576040805162461bcd60e51b815260206004820152601a60248201527f5a50523a2050796c6f6e204e6f7420496e697469616c697a6564000000000000604482015290519081900360640190fd5b60006118088c8c61216f565b905061182289611818578c61181a565b8b5b33838d61253c565b6040805163ac9370f360e01b81526001600160a01b038a811660048301528b1515602483015291519183169163ac9370f3916044808201926020929091908290030181600087803b15801561187657600080fd5b505af115801561188a573d6000803e3d6000fd5b505050506040513d60208110156118a057600080fd5b50519c9b505050505050505050505050565b7f000000000000000000000000000000000000000000000000000000000000000081565b600080824281101561192a576040805162461bcd60e51b8152602060048201526018602482015277155b9a5cddd85c158c949bdd5d195c8e881156141254915160421b604482015290519081900360640190fd5b611934898961276d565b86925060006119438a8a61216f565b905061195d87611953578a611955565b895b33838761253c565b604080516346a3871160e11b81526001600160a01b0388811660048301528915156024830152915191831691638d470e22916044808201926020929091908290030181600087803b1580156119b157600080fd5b505af11580156119c5573d6000803e3d6000fd5b505050506040513d60208110156119db57600080fd5b5051939a93995092975050505050505050565b60008060008342811015611a44576040805162461bcd60e51b8152602060048201526018602482015277155b9a5cddd85c158c949bdd5d195c8e881156141254915160421b604482015290519081900360640190fd5b611a528d8d8d8d8d8d612a9b565b90945092506000611a658e8e8787612ee5565b604080516319e6ef2760e11b81526001600160a01b038a811660048301528b151560248301529151929350908316916333cdde4e916044808201926020929091908290030181600087803b158015611abc57600080fd5b505af1158015611ad0573d6000803e3d6000fd5b505050506040513d6020811015611ae657600080fd5b5051949e939d50939b50919950505050505050505050565b7f000000000000000000000000000000000000000000000000000000000000000081565b60008060008342811015611b78576040805162461bcd60e51b8152602060048201526018602482015277155b9a5cddd85c158c949bdd5d195c8e881156141254915160421b604482015290519081900360640190fd5b600088611b85578c611ba7565b7f00000000000000000000000000000000000000000000000000000000000000005b9050600089611bd6577f0000000000000000000000000000000000000000000000000000000000000000611bd8565b8d5b9050611be98d348e8e8e8787612f13565b90965094506000611bfa838361216f565b9050611c208b611c0a5783611c0c565b825b33838e611c19578a611c1b565b895b61253c565b7f00000000000000000000000000000000000000000000000000000000000000006001600160a01b031663d0e30db08c611c5a5787611c5c565b885b6040518263ffffffff1660e01b81526004016000604051808303818588803b158015611c8757600080fd5b505af1158015611c9b573d6000803e3d6000fd5b50505050507f00000000000000000000000000000000000000000000000000000000000000006001600160a01b031663a9059cbb828d611cdb5788611cdd565b895b6040518363ffffffff1660e01b815260040180836001600160a01b03166001600160a01b0316815260200182815260200192505050602060405180830381600087803b158015611d2c57600080fd5b505af1158015611d40573d6000803e3d6000fd5b505050506040513d6020811015611d5657600080fd5b5051611d5e57fe5b604080516319e6ef2760e11b81526001600160a01b038b811660048301528c151560248301529151918316916333cdde4e916044808201926020929091908290030181600087803b158015611db257600080fd5b505af1158015611dc6573d6000803e3d6000fd5b505050506040513d6020811015611ddc57600080fd5b505194508a9050611ded5784611def565b855b341115611e0e57611e0e338b611e055786611e07565b875b3403612f80565b505050985098509895505050505050565b6000808242811015611e73576040805162461bcd60e51b8152602060048201526018602482015277155b9a5cddd85c158c949bdd5d195c8e881156141254915160421b604482015290519081900360640190fd5b600080611ee08915611ea5577f0000000000000000000000000000000000000000000000000000000000000000611ea7565b8d5b8a15611eb3578e611ed5565b7f00000000000000000000000000000000000000000000000000000000000000005b8e8e8e8d308d610c47565b915091508815611ef05780611ef2565b815b94508815611f005781611f02565b805b93505050611f118b8685613078565b7f00000000000000000000000000000000000000000000000000000000000000006001600160a01b0316632e1a7d4d836040518263ffffffff1660e01b815260040180828152602001915050600060405180830381600087803b158015611f7757600080fd5b505af1158015611f8b573d6000803e3d6000fd5b50505050611f998583612f80565b509850989650505050505050565b60008142811015611ffa576040805162461bcd60e51b8152602060048201526018602482015277155b9a5cddd85c158c949bdd5d195c8e881156141254915160421b604482015290519081900360640190fd5b6000866120075789612029565b7f00000000000000000000000000000000000000000000000000000000000000005b9050600087612058577f000000000000000000000000000000000000000000000000000000000000000061205a565b8a5b905061209282828c8c8b8d801561206e57508c5b8061208057508c15801561208057508d155b61208a573061208c565b8b5b8b6105d7565b935087801561209f575086155b806120b057508680156120b0575087155b1561213d577f00000000000000000000000000000000000000000000000000000000000000006001600160a01b0316632e1a7d4d856040518263ffffffff1660e01b815260040180828152602001915050600060405180830381600087803b15801561211b57600080fd5b505af115801561212f573d6000803e3d6000fd5b5050505061213d8685612f80565b505050979650505050505050565b7f000000000000000000000000000000000000000000000000000000000000000081565b60006121c77f000000000000000000000000000000000000000000000000000000000000000084846121c27f000000000000000000000000000000000000000000000000000000000000000088886131c5565b61329d565b9392505050565b6000807f00000000000000000000000000000000000000000000000000000000000000006001600160a01b031663e6a4390585856040518363ffffffff1660e01b815260040180836001600160a01b03166001600160a01b03168152602001826001600160a01b03166001600160a01b031681526020019250505060206040518083038186803b15801561226157600080fd5b505afa158015612275573d6000803e3d6000fd5b505050506040513d602081101561228b57600080fd5b505160408051808201909152600c81527f706169722061646472657373000000000000000000000000000000000000000060208201529092506122ce9083612699565b6001600160a01b0382166123c157604080517f76f797380000000000000000000000000000000000000000000000000000000081526001600160a01b03868116600483015285811660248301527f00000000000000000000000000000000000000000000000000000000000000008116604483015291517f0000000000000000000000000000000000000000000000000000000000000000909216916376f79738916064808201926020929091908290030181600087803b15801561239257600080fd5b505af11580156123a6573d6000803e3d6000fd5b505050506040513d60208110156123bc57600080fd5b505191505b60408051630e0f297360e01b81526001600160a01b038681166004830152858116602483015291517f000000000000000000000000000000000000000000000000000000000000000090921691630e0f297391604480820192602092909190829003018186803b15801561243457600080fd5b505afa158015612448573d6000803e3d6000fd5b505050506040513d602081101561245e57600080fd5b505190506001600160a01b03811661253557604080517f79281abe0000000000000000000000000000000000000000000000000000000081526001600160a01b0384811660048301528681166024830152858116604483015291517f0000000000000000000000000000000000000000000000000000000000000000909216916379281abe916064808201926020929091908290030181600087803b15801561250657600080fd5b505af115801561251a573d6000803e3d6000fd5b505050506040513d602081101561253057600080fd5b505190505b9250929050565b604080516001600160a01b0385811660248301528481166044830152606480830185905283518084039091018152608490920183526020820180516001600160e01b03166323b872dd60e01b17815292518251600094606094938a169392918291908083835b602083106125c15780518252601f1990920191602091820191016125a2565b6001836020036101000a0380198251168184511680821785525050505050509050019150506000604051808303816000865af19150503d8060008114612623576040519150601f19603f3d011682016040523d82523d6000602084013e612628565b606091505b5091509150818015612656575080511580612656575080806020019051602081101561265357600080fd5b50515b6126915760405162461bcd60e51b815260040180806020018281038252603181526020018061364c6031913960400191505060405180910390fd5b505050505050565b604080516001600160a01b0383166044820152602481019182528351606482015283516127699285928592829160840190602086019080838360005b838110156126ed5781810151838201526020016126d5565b50505050905090810190601f16801561271a5780820380516001836020036101000a031916815260200191505b5060408051601f198184030181529190526020810180516001600160e01b03167f319af33300000000000000000000000000000000000000000000000000000000179052935061336792505050565b5050565b818160007f00000000000000000000000000000000000000000000000000000000000000006001600160a01b031663e6a4390584846040518363ffffffff1660e01b815260040180836001600160a01b03166001600160a01b03168152602001826001600160a01b03166001600160a01b031681526020019250505060206040518083038186803b15801561280157600080fd5b505afa158015612815573d6000803e3d6000fd5b505050506040513d602081101561282b57600080fd5b505190506001600160a01b03811661288a576040805162461bcd60e51b815260206004820152601560248201527f5a50523a2050616972204e6f7420437265617465640000000000000000000000604482015290519081900360640190fd5b60408051630e0f297360e01b81526001600160a01b038581166004830152848116602483015291516000927f00000000000000000000000000000000000000000000000000000000000000001691630e0f2973916044808301926020929190829003018186803b1580156128fd57600080fd5b505afa158015612911573d6000803e3d6000fd5b505050506040513d602081101561292757600080fd5b50516001600160a01b03161415612985576040805162461bcd60e51b815260206004820152601660248201527f5a50523a2050796c6f6e206e6f74206372656174656400000000000000000000604482015290519081900360640190fd5b60408051630614bbb360e21b81526001600160a01b037f0000000000000000000000000000000000000000000000000000000000000000811660048301528086166024830152808516604483015283166064820152905173__$6f4b38e22cf6b26129418bae2c930c4a30$__91631852eecc916084808301926020929190829003018186803b158015612a1757600080fd5b505af4158015612a2b573d6000803e3d6000fd5b505050506040513d6020811015612a4157600080fd5b5051612a94576040805162461bcd60e51b815260206004820152601a60248201527f5a50523a2050796c6f6e204e6f7420496e697469616c697a6564000000000000604482015290519081900360640190fd5b5050505050565b600080878760007f00000000000000000000000000000000000000000000000000000000000000006001600160a01b031663e6a4390584846040518363ffffffff1660e01b815260040180836001600160a01b03166001600160a01b03168152602001826001600160a01b03166001600160a01b031681526020019250505060206040518083038186803b158015612b3257600080fd5b505afa158015612b46573d6000803e3d6000fd5b505050506040513d6020811015612b5c57600080fd5b505190506001600160a01b038116612bbb576040805162461bcd60e51b815260206004820152601560248201527f5a50523a2050616972204e6f7420437265617465640000000000000000000000604482015290519081900360640190fd5b60408051630e0f297360e01b81526001600160a01b038581166004830152848116602483015291516000927f00000000000000000000000000000000000000000000000000000000000000001691630e0f2973916044808301926020929190829003018186803b158015612c2e57600080fd5b505afa158015612c42573d6000803e3d6000fd5b505050506040513d6020811015612c5857600080fd5b50516001600160a01b03161415612cb6576040805162461bcd60e51b815260206004820152601660248201527f5a50523a2050796c6f6e206e6f74206372656174656400000000000000000000604482015290519081900360640190fd5b60408051630614bbb360e21b81526001600160a01b037f0000000000000000000000000000000000000000000000000000000000000000811660048301528086166024830152808516604483015283166064820152905173__$6f4b38e22cf6b26129418bae2c930c4a30$__91631852eecc916084808301926020929190829003018186803b158015612d4857600080fd5b505af4158015612d5c573d6000803e3d6000fd5b505050506040513d6020811015612d7257600080fd5b5051612dc5576040805162461bcd60e51b815260206004820152601a60248201527f5a50523a2050796c6f6e204e6f7420496e697469616c697a6564000000000000604482015290519081900360640190fd5b600080612df37f00000000000000000000000000000000000000000000000000000000000000008e8e613388565b91509150816000148015612e05575080155b15612e15578a9650899550612ed5565b6000612e228c8484613456565b90508a8111612e755788811015612e6a5760405162461bcd60e51b81526004018080602001828103825260268152602001806136d66026913960400191505060405180910390fd5b8b9750955085612ed3565b6000612e828c8486613456565b90508c811115612e8e57fe5b8a811015612ecd5760405162461bcd60e51b815260040180806020018281038252602681526020018061376d6026913960400191505060405180910390fd5b97508a96505b505b5050505050965096945050505050565b6000612ef1858561216f565b9050612eff8533838661253c565b612f0b8433838561253c565b949350505050565b60008060008515612f245788612f26565b895b905060008615612f36578a612f38565b895b905060008715612f485788612f4a565b895b905060008815612f5a578a612f5c565b895b9050612f6c888886868686612a9b565b909e909d509b505050505050505050505050565b604080516000808252602082019092526001600160a01b0384169083906040518082805190602001908083835b60208310612fcc5780518252601f199092019160209182019101612fad565b6001836020036101000a03801982511681845116808217855250505050505090500191505060006040518083038185875af1925050503d806000811461302e576040519150601f19603f3d011682016040523d82523d6000602084013e613033565b606091505b50509050806130735760405162461bcd60e51b815260040180806020018281038252603481526020018061367d6034913960400191505060405180910390fd5b505050565b604080516001600160a01b038481166024830152604480830185905283518084039091018152606490920183526020820180516001600160e01b031663a9059cbb60e01b178152925182516000946060949389169392918291908083835b602083106130f55780518252601f1990920191602091820191016130d6565b6001836020036101000a0380198251168184511680821785525050505050509050019150506000604051808303816000865af19150503d8060008114613157576040519150601f19603f3d011682016040523d82523d6000602084013e61315c565b606091505b509150915081801561318a57508051158061318a575080806020019051602081101561318757600080fd5b50515b612a945760405162461bcd60e51b815260040180806020018281038252602d815260200180613793602d913960400191505060405180910390fd5b60008060006131d48585613502565b604080516bffffffffffffffffffffffff19606094851b811660208084019190915293851b81166034830152825160288184030181526048830184528051908501207fff0000000000000000000000000000000000000000000000000000000000000060688401529a90941b9093166069840152607d8301989098527f0731dee119e38b0e51b64db5eef1ff812d2dc2d0de19e86f49e177147c19063f609d808401919091528851808403909101815260bd909201909752805196019590952095945050505050565b604080516bffffffffffffffffffffffff19606095861b811660208084019190915294861b8116603483015292851b831660488201528151603c818303018152605c820183528051908501207fff00000000000000000000000000000000000000000000000000000000000000607c8301529590941b909116607d84015260918301939093527f70f02a62a722d5aa3660572da0f56438b960ee9e435f9763634cc49a149bb95360b1808401919091528351808403909101815260d1909201909252805191012090565b80516a636f6e736f6c652e6c6f67602083016000808483855afa5050505050565b60008060006133978585613502565b5090506000806133a88888886131c5565b6001600160a01b0316630902f1ac6040518163ffffffff1660e01b815260040160606040518083038186803b1580156133e057600080fd5b505afa1580156133f4573d6000803e3d6000fd5b505050506040513d606081101561340a57600080fd5b5080516020909101516dffffffffffffffffffffffffffff91821693501690506001600160a01b0387811690841614613444578082613447565b81815b90999098509650505050505050565b60008084116134965760405162461bcd60e51b81526004018080602001828103825260258152602001806137486025913960400191505060405180910390fd5b6000831180156134a65750600082115b6134e15760405162461bcd60e51b81526004018080602001828103825260288152602001806137206028913960400191505060405180910390fd5b826134f2858463ffffffff6135d916565b816134f957fe5b04949350505050565b600080826001600160a01b0316846001600160a01b031614156135565760405162461bcd60e51b81526004018080602001828103825260258152602001806136b16025913960400191505060405180910390fd5b826001600160a01b0316846001600160a01b031610613576578284613579565b83835b90925090506001600160a01b038216612535576040805162461bcd60e51b815260206004820152601e60248201527f556e697377617056324c6962726172793a205a45524f5f414444524553530000604482015290519081900360640190fd5b60008115806135f4575050808202828282816135f157fe5b04145b613645576040805162461bcd60e51b815260206004820152601460248201527f64732d6d6174682d6d756c2d6f766572666c6f77000000000000000000000000604482015290519081900360640190fd5b9291505056fe5472616e7366657248656c7065723a3a7472616e7366657246726f6d3a207472616e7366657246726f6d206661696c65645472616e7366657248656c7065723a3a736166655472616e736665724554483a20455448207472616e73666572206661696c6564556e697377617056324c6962726172793a204944454e544943414c5f414444524553534553556e69737761705632526f757465723a20494e53554646494349454e545f425f414d4f554e54556e69737761705632526f757465723a20494e53554646494349454e545f414d4f554e54556e697377617056324c6962726172793a20494e53554646494349454e545f4c4951554944495459556e697377617056324c6962726172793a20494e53554646494349454e545f414d4f554e54556e69737761705632526f757465723a20494e53554646494349454e545f415f414d4f554e545472616e7366657248656c7065723a3a736166655472616e736665723a207472616e73666572206661696c6564a26469706673582212202870b9c4d8c6e916bf7aba7086ac13abe52afffb8f87ea3b9b7465a3457273f564736f6c63430006060033",
  "libraries": {
    "ZirconPeripheralLibrary": "0xD5c9f873D212aAd20BF1ea207285c383dDD63Fd3"
  },
  "devdoc": {
    "methods": {}
  },
  "userdoc": {
    "methods": {}
  },
  "storageLayout": {
    "storage": [],
    "types": null
  }
}