{
  "address": "0xe36f5fABDA5c5aF8e9aaD6b1371DfddE037aABE5",
  "abi": [
    {
      "inputs": [
        {
          "internalType": "address",
          "name": "_factory",
          "type": "address"
        },
        {
          "internalType": "address",
          "name": "_energyFactory",
          "type": "address"
        }
      ],
      "payable": false,
      "stateMutability": "nonpayable",
      "type": "constructor"
    },
    {
      "anonymous": false,
      "inputs": [
        {
          "indexed": true,
          "internalType": "address",
          "name": "token0",
          "type": "address"
        },
        {
          "indexed": true,
          "internalType": "address",
          "name": "token1",
          "type": "address"
        },
        {
          "indexed": false,
          "internalType": "address",
          "name": "poolToken0",
          "type": "address"
        },
        {
          "indexed": false,
          "internalType": "address",
          "name": "poolToken1",
          "type": "address"
        },
        {
          "indexed": false,
          "internalType": "address",
          "name": "pylon",
          "type": "address"
        },
        {
          "indexed": false,
          "internalType": "address",
          "name": "pair",
          "type": "address"
        }
      ],
      "name": "PylonCreated",
      "type": "event"
    },
    {
      "constant": false,
      "inputs": [
        {
          "internalType": "address",
          "name": "_pairAddress",
          "type": "address"
        },
        {
          "internalType": "address",
          "name": "_tokenA",
          "type": "address"
        },
        {
          "internalType": "address",
          "name": "_tokenB",
          "type": "address"
        }
      ],
      "name": "addPylon",
      "outputs": [
        {
          "internalType": "address",
          "name": "pylonAddress",
          "type": "address"
        }
      ],
      "payable": false,
      "stateMutability": "nonpayable",
      "type": "function"
    },
    {
      "constant": true,
      "inputs": [
        {
          "internalType": "uint256",
          "name": "",
          "type": "uint256"
        }
      ],
      "name": "allPylons",
      "outputs": [
        {
          "internalType": "address",
          "name": "",
          "type": "address"
        }
      ],
      "payable": false,
      "stateMutability": "view",
      "type": "function"
    },
    {
      "constant": true,
      "inputs": [],
      "name": "allPylonsLength",
      "outputs": [
        {
          "internalType": "uint256",
          "name": "",
          "type": "uint256"
        }
      ],
      "payable": false,
      "stateMutability": "view",
      "type": "function"
    },
    {
      "constant": true,
      "inputs": [],
      "name": "deltaGammaMinFee",
      "outputs": [
        {
          "internalType": "uint256",
          "name": "",
          "type": "uint256"
        }
      ],
      "payable": false,
      "stateMutability": "view",
      "type": "function"
    },
    {
      "constant": true,
      "inputs": [],
      "name": "deltaGammaThreshold",
      "outputs": [
        {
          "internalType": "uint256",
          "name": "",
          "type": "uint256"
        }
      ],
      "payable": false,
      "stateMutability": "view",
      "type": "function"
    },
    {
      "constant": true,
      "inputs": [],
      "name": "energyFactory",
      "outputs": [
        {
          "internalType": "address",
          "name": "",
          "type": "address"
        }
      ],
      "payable": false,
      "stateMutability": "view",
      "type": "function"
    },
    {
      "constant": true,
      "inputs": [],
      "name": "factory",
      "outputs": [
        {
          "internalType": "address",
          "name": "",
          "type": "address"
        }
      ],
      "payable": false,
      "stateMutability": "view",
      "type": "function"
    },
    {
      "constant": true,
      "inputs": [],
      "name": "feeToSetter",
      "outputs": [
        {
          "internalType": "address",
          "name": "",
          "type": "address"
        }
      ],
      "payable": false,
      "stateMutability": "view",
      "type": "function"
    },
    {
      "constant": true,
      "inputs": [
        {
          "internalType": "address",
          "name": "",
          "type": "address"
        },
        {
          "internalType": "address",
          "name": "",
          "type": "address"
        }
      ],
      "name": "getPylon",
      "outputs": [
        {
          "internalType": "address",
          "name": "",
          "type": "address"
        }
      ],
      "payable": false,
      "stateMutability": "view",
      "type": "function"
    },
    {
      "constant": true,
      "inputs": [],
      "name": "maximumPercentageSync",
      "outputs": [
        {
          "internalType": "uint256",
          "name": "",
          "type": "uint256"
        }
      ],
      "payable": false,
      "stateMutability": "view",
      "type": "function"
    },
    {
      "constant": true,
      "inputs": [],
      "name": "muUpdatePeriod",
      "outputs": [
        {
          "internalType": "uint256",
          "name": "",
          "type": "uint256"
        }
      ],
      "payable": false,
      "stateMutability": "view",
      "type": "function"
    },
    {
      "constant": true,
      "inputs": [],
      "name": "pylonCodeHash",
      "outputs": [
        {
          "internalType": "bytes32",
          "name": "",
          "type": "bytes32"
        }
      ],
      "payable": false,
      "stateMutability": "pure",
      "type": "function"
    },
    {
      "constant": false,
      "inputs": [
        {
          "internalType": "uint256",
          "name": "_deltaGammaMinFee",
          "type": "uint256"
        }
      ],
      "name": "setDeltaGammaMinFee",
      "outputs": [],
      "payable": false,
      "stateMutability": "nonpayable",
      "type": "function"
    },
    {
      "constant": false,
      "inputs": [
        {
          "internalType": "uint256",
          "name": "_deltaGammaThreshold",
          "type": "uint256"
        }
      ],
      "name": "setDeltaGammaThreshold",
      "outputs": [],
      "payable": false,
      "stateMutability": "nonpayable",
      "type": "function"
    },
    {
      "constant": false,
      "inputs": [
        {
          "internalType": "address",
          "name": "_feeToSetter",
          "type": "address"
        }
      ],
      "name": "setFeeToSetter",
      "outputs": [],
      "payable": false,
      "stateMutability": "nonpayable",
      "type": "function"
    },
    {
      "constant": false,
      "inputs": [
        {
          "internalType": "uint256",
          "name": "_maximumPercentageSync",
          "type": "uint256"
        }
      ],
      "name": "setMaximumPercentageSync",
      "outputs": [],
      "payable": false,
      "stateMutability": "nonpayable",
      "type": "function"
    }
  ],
  "transactionHash": "0xb8415c9a2157bfb5b4d93298d8e24c32331857f69665f0dbaf5dd60a04dc1ba0",
  "args": [
    "0xC1113597F0841708518b92b5704C99eAA816Edd9",
    "0xF0e104ad900a52D90e7e737AC6B27a1c201A7640"
  ],
  "numDeployments": 2,
  "solcInputHash": "f48515f8802bde1eee02701e6e31aebc",
  "bytecode": "0x608060405234801561001057600080fd5b50604051615fac380380615fac8339818101604052604081101561003357600080fd5b508051602090910151600280546001600160a01b039384166001600160a01b03199182161790915560038054939092169216919091179055600a600555668e1bc9bf0400006006556105dc60075560f0600855615f17806100956000396000f3fe608060405234801561001057600080fd5b50600436106101005760003560e01c806379281abe11610097578063a3ad52b811610066578063a3ad52b814610233578063afc3743f1461023b578063be25db5a14610258578063c45a01551461027557610100565b806379281abe146101c557806379459801146101fd578063966545e814610205578063a2e74af61461020d57610100565b80635942f95e116100d35780635942f95e146101795780635d58ab44146101815780636c0fb018146101a0578063734e3912146101a857610100565b8063094b7415146101055780630e0f29731461012957806317d1ff9f146101575780632be90b321461015f575b600080fd5b61010d61027d565b604080516001600160a01b039092168252519081900360200190f35b61010d6004803603604081101561013f57600080fd5b506001600160a01b038135811691602001351661028c565b61010d6102af565b6101676102be565b60408051918252519081900360200190f35b6101676102c4565b61019e6004803603602081101561019757600080fd5b50356102ca565b005b61016761031e565b61019e600480360360208110156101be57600080fd5b5035610324565b61010d600480360360608110156101db57600080fd5b506001600160a01b038135811691602081013582169160409091013516610378565b6101676106e7565b6101676106ed565b61019e6004803603602081101561022357600080fd5b50356001600160a01b031661071f565b610167610790565b61010d6004803603602081101561025157600080fd5b5035610796565b61019e6004803603602081101561026e57600080fd5b50356107bd565b61010d610811565b6004546001600160a01b031681565b60006020818152928152604080822090935290815220546001600160a01b031681565b6003546001600160a01b031681565b60075481565b60065481565b6004546001600160a01b03163314610319576040805162461bcd60e51b815260206004820152600d60248201526c2d231d102327a92124a22222a760991b604482015290519081900360640190fd5b600555565b60015490565b6004546001600160a01b03163314610373576040805162461bcd60e51b815260206004820152600d60248201526c2d231d102327a92124a22222a760991b604482015290519081900360640190fd5b600655565b6000816001600160a01b0316836001600160a01b031614156103e1576040805162461bcd60e51b815260206004820152601760248201527f5a463a204944454e544943414c5f414444524553534553000000000000000000604482015290519081900360640190fd5b6001600160a01b038381166000908152602081815260408083208685168452909152902054161561044c576040805162461bcd60e51b815260206004820152601060248201526f5a463a2050594c4f4e5f45584953545360801b604482015290519081900360640190fd5b610457838386610820565b9050600061046584836108af565b9050600061047384846108af565b9050600061048384888888610949565b60025460408051631ac3b23b60e11b81526001600160a01b03878116600483015286811660248301528a8116604483015289811660648301528b8116608483015292831660a482015282841660c482015290519293509086169163358764769160e48082019260009290919082900301818387803b15801561050457600080fd5b505af1158015610518573d6000803e3d6000fd5b505060408051633fb3e5cd60e21b81526001600160a01b038a811660048301528b8116602483015288811660448301526000606483018190529251908816945063fecf973493506084808301939282900301818387803b15801561057b57600080fd5b505af115801561058f573d6000803e3d6000fd5b505060408051633fb3e5cd60e21b81526001600160a01b0389811660048301528b811660248301528881166044830152600160648301529151918616935063fecf9734925060848082019260009290919082900301818387803b1580156105f557600080fd5b505af1158015610609573d6000803e3d6000fd5b5050604080516001600160a01b0387811682528681166020830152888116828401528b811660608301529151828a169450918a1692507fab83557b3a718996d408afe08287d09bafed3590c7ae61a430d518d3199d4590919081900360800190a35050506001600160a01b03928316600090815260208181526040808320948616835293905291822080549382166001600160a01b0319948516811790915560018054808201825593527fb10e2d527612073b26eecdfd717e6a320cf44b4afac2b0732d9fcbe2b7fa0cf69092018054909316909117909155919050565b60085481565b6000604051806020016106ff906109e8565b6020820181038252601f19601f8201166040525080519060200120905090565b6004546001600160a01b0316331461076e576040805162461bcd60e51b815260206004820152600d60248201526c2d231d102327a92124a22222a760991b604482015290519081900360640190fd5b600480546001600160a01b0319166001600160a01b0392909216919091179055565b60055481565b600181815481106107a357fe5b6000918252602090912001546001600160a01b0316905081565b6004546001600160a01b0316331461080c576040805162461bcd60e51b815260206004820152600d60248201526c2d231d102327a92124a22222a760991b604482015290519081900360640190fd5b600755565b6002546001600160a01b031681565b6000606060405180602001610834906109e8565b601f1982820381018352601f9091011660408181526bffffffffffffffffffffffff19606089811b821660208581019190915289821b831660348601529088901b90911660488401528151603c818503018152605c909301909152815191810191909120825192935091829184016000f59695505050505050565b60006060604051806020016108c3906109f5565b6020820181038252601f19601f8201166040525090506000848460405160200180836001600160a01b03166001600160a01b031660601b8152601401826001600160a01b03166001600160a01b031660601b815260140192505050604051602081830303815290604052805190602001209050808251602084016000f595945050505050565b6003546040805163245cb9e160e21b81526001600160a01b03878116600483015286811660248301528581166044830152848116606483015291516000939290921691639172e7849160848082019260209290919082900301818787803b1580156109b357600080fd5b505af11580156109c7573d6000803e3d6000fd5b505050506040513d60208110156109dd57600080fd5b505195945050505050565b6146fb80610a0383390190565b610de5806150fe8339019056fe6080604052662386f26fc10000601555600060165534801561002057600080fd5b506000805460ff19166001179055600480546001600160a01b031916331790556146ac8061004f6000396000f3fe608060405234801561001057600080fd5b50600436106101cf5760003560e01c8063966dae0e11610104578063ba7b3dea116100a2578063ed6b92cd11610071578063ed6b92cd1461045d578063efefd9f914610465578063f29401c41461046d578063fef9349214610493576101cf565b8063ba7b3dea146103d8578063ba9a7a5614610406578063c561cf4f1461040e578063e845d4e514610455576101cf565b8063a8b08982116100de578063a8b0898214610392578063ac9370f31461039a578063b32b3d92146103c8578063b7073003146103d0576101cf565b8063966dae0e1461037a57806397ed64db146103825780639892c7f11461038a576101cf565b806333cdde4e11610171578063590f921d1161014b578063590f921d1461032057806387d9b853146103285780638d470e22146103305780638ffa32361461035e576101cf565b806333cdde4e1461026a5780633587647614610298578063402d82c1146102f2576101cf565b8063158ef93e116101ad578063158ef93e14610238578063192b65d81461025257806322e489a41461025a5780633339dc1a14610262576101cf565b806306e53aec146101d457806308acbe82146101f85780630a22d5f314610200575b600080fd5b6101dc61049b565b604080516001600160a01b039092168252519081900360200190f35b6101dc6104aa565b6102086104b9565b604080516001600160701b03948516815292909316602083015263ffffffff168183015290519081900360600190f35b6102406104e3565b60408051918252519081900360200190f35b6102406104e9565b6101dc6104ef565b6102406104fe565b6102406004803603604081101561028057600080fd5b506001600160a01b0381351690602001351515610504565b6102f0600480360360e08110156102ae57600080fd5b506001600160a01b038135811691602081013582169160408201358116916060810135821691608082013581169160a081013582169160c09091013516610927565b005b6102fa610aef565b604080516001600160a01b03938416815291909216602082015281519081900390910190f35b610240610b05565b610240610b0b565b6102406004803603604081101561034657600080fd5b506001600160a01b0381351690602001351515610b11565b610366610d9c565b604080519115158252519081900360200190f35b6101dc610dac565b610240610dbb565b6101dc610dc1565b6101dc610dd0565b610240600480360360408110156103b057600080fd5b506001600160a01b0381351690602001351515610ddf565b61024061126b565b610240611271565b610240600480360360408110156103ee57600080fd5b506001600160a01b0381351690602001351515611277565b6102406116f1565b61043c6004803603604081101561042457600080fd5b506001600160a01b03813516906020013515156116f7565b6040805192835260208301919091528051918290030190f35b610240611bf9565b610240611bff565b610240611c05565b61043c6004803603602081101561048357600080fd5b50356001600160a01b0316611c0b565b610240611f82565b6006546001600160a01b031681565b6008546001600160a01b031681565b6014546001600160701b0380821692600160701b830490911691600160e01b900463ffffffff1690565b60165481565b60095481565b6007546001600160a01b031681565b600c5481565b6000805460ff1661054a576040805162461bcd60e51b815260206004820152601f60248201526000805160206145bf833981519152604482015290519081900360640190fd5b6000805460ff191690556016546001146105a1576040805162461bcd60e51b815260206004820152601360248201527216940e881393d5081253925512505312569151606a1b604482015290519081900360640190fd5b6105a9611f88565b6000826105c1576006546001600160a01b03166105ce565b6007546001600160a01b03165b90506000806105db6104b9565b50600154604080516370a0823160e01b81523060048201529051939550919350600092839283926001600160a01b0316916370a0823191602480820192602092909190829003018186803b15801561063257600080fd5b505afa158015610646573d6000803e3d6000fd5b505050506040513d602081101561065c57600080fd5b5051600254604080516370a0823160e01b815230600482015290519293506000926001600160a01b03909216916370a0823191602480820192602092909190829003018186803b1580156106af57600080fd5b505afa1580156106c3573d6000803e3d6000fd5b505050506040513d60208110156106d957600080fd5b505190506106f6826001600160701b03881663ffffffff61236e16565b9350610711816001600160701b03871663ffffffff61236e16565b925061071e8460006123c4565b935061072b8360016123c4565b925060008061073c86868d8c612558565b915091508199508a156107525760098054820190555b505050506000811180156107665750600082115b6107a8576040805162461bcd60e51b815260206004820152600e60248201526d0b4a074409c9ea8be8a9c9eaa8e960931b604482015290519081900360640190fd5b6001546003546107c5916001600160a01b03908116911684612754565b6002546003546107e2916001600160a01b03908116911683612754565b600354604080516335313c2160e11b815230600482015290516001600160a01b0390921691636a627842916024808201926020929091908290030181600087803b15801561082f57600080fd5b505af1158015610843573d6000803e3d6000fd5b505050506040513d602081101561085957600080fd5b5050604080516340c10f1960e01b81526001600160a01b038a81166004830152602482018990529151918716916340c10f199160448082019260009290919082900301818387803b1580156108ad57600080fd5b505af11580156108c1573d6000803e3d6000fd5b5050604080513381526020810186905280820185905290517f9a36e9f82fd3ab4ec26a87598c0f7f4519b7895fa6a0bca1968b486ee019b0829350908190036060019150a161090e6128e4565b50506000805460ff191660011790555091949350505050565b60005460ff1661096c576040805162461bcd60e51b815260206004820152601f60248201526000805160206145bf833981519152604482015290519081900360640190fd5b6000805460ff191690556004546001600160a01b031633146109c5576040805162461bcd60e51b815260206004820152600d60248201526c2d281d102327a92124a22222a760991b604482015290519081900360640190fd5b600680546001600160a01b03808a166001600160a01b031992831617909255600780548984169083161790556003805486841692168217905560408051630dfe168160e01b8152905192881692630dfe168191600481810192602092909190829003018186803b158015610a3857600080fd5b505afa158015610a4c573d6000803e3d6000fd5b505050506040513d6020811015610a6257600080fd5b505160088054604080518082019091526001600160a01b03998a16808252988a166020909101819052600180546001600160a01b0319908116909a178155600280548b16909217909155600580548a16978b169790971790965560ff60a01b191691881692909214600160a01b0217909416941693909317909155506000805460ff191690911790555050565b6001546002546001600160a01b03918216911682565b60105481565b60125481565b6000601654600114610b60576040805162461bcd60e51b815260206004820152601360248201527216940e881393d5081253925512505312569151606a1b604482015290519081900360640190fd5b60005460ff16610ba5576040805162461bcd60e51b815260206004820152601f60248201526000805160206145bf833981519152604482015290519081900360640190fd5b6000805460ff19169055610bb7611f88565b600080610bc26104b9565b5091509150600080610bd56000806129b0565b915091506000808715610ca957600254604080516370a0823160e01b815230600482015290516000926001600160a01b0316916370a08231916024808301926020929190829003018186803b158015610c2d57600080fd5b505afa158015610c41573d6000803e3d6000fd5b505050506040513d6020811015610c5757600080fd5b50519050610c74816001600160701b03881663ffffffff61236e16565b600754909350610c9d9084906001600160701b0389169087906001600160a01b03168e8e6129f5565b9098509150610d6b9050565b600154604080516370a0823160e01b815230600482015290516000926001600160a01b0316916370a08231916024808301926020929190829003018186803b158015610cf457600080fd5b505afa158015610d08573d6000803e3d6000fd5b505050506040513d6020811015610d1e57600080fd5b50519050610d3b816001600160701b03891663ffffffff61236e16565b600654909350610d649084906001600160701b038a169088906001600160a01b03168e8e6129f5565b9098509150505b8715610d7a5760098054820190555b610d82612c6a565b50506000805460ff19166001179055509295945050505050565b600854600160a01b900460ff1681565b6004546001600160a01b031681565b600a5481565b6005546001600160a01b031681565b6003546001600160a01b031681565b6000805460ff16610e25576040805162461bcd60e51b815260206004820152601f60248201526000805160206145bf833981519152604482015290519081900360640190fd5b6000805460ff19169055601654600114610e7c576040805162461bcd60e51b815260206004820152601360248201527216940e881393d5081253925512505312569151606a1b604482015290519081900360640190fd5b610e84611f88565b600080610e8f6104b9565b509150915060008415610f3657600254604080516370a0823160e01b815230600482015290516000926001600160a01b0316916370a08231916024808301926020929190829003018186803b158015610ee757600080fd5b505afa158015610efb573d6000803e3d6000fd5b505050506040513d6020811015610f1157600080fd5b50519050610f2e816001600160701b03851663ffffffff61236e16565b915050610fcc565b600154604080516370a0823160e01b815230600482015290516000926001600160a01b0316916370a08231916024808301926020929190829003018186803b158015610f8157600080fd5b505afa158015610f95573d6000803e3d6000fd5b505050506040513d6020811015610fab57600080fd5b50519050610fc8816001600160701b03861663ffffffff61236e16565b9150505b610fd681866123c4565b90506000811161102d576040805162461bcd60e51b815260206004820152601760248201527f5a503a20494e53554646494349454e545f414d4f554e54000000000000000000604482015290519081900360640190fd5b61106585611046576001546001600160a01b0316611053565b6002546001600160a01b03165b6003546001600160a01b031683612754565b6000806110728388612f9b565b915091506000806110a784848b8c611095576006546001600160a01b03166110a2565b6007546001600160a01b03165b612558565b9150915081975088156110bd5760098054820190555b6003546008546001600160a01b039091169063432275e6903090600160a01b900460ff166110eb578b6110ee565b8b155b6040518363ffffffff1660e01b815260040180836001600160a01b03166001600160a01b031681526020018215151515815260200192505050606060405180830381600087803b15801561114157600080fd5b505af1158015611155573d6000803e3d6000fd5b505050506040513d606081101561116b57600080fd5b50899050611184576006546001600160a01b0316611191565b6007546001600160a01b03165b6001600160a01b03166340c10f198b8a6040518363ffffffff1660e01b815260040180836001600160a01b03166001600160a01b0316815260200182815260200192505050600060405180830381600087803b1580156111f057600080fd5b505af1158015611204573d6000803e3d6000fd5b50505050505050506112146128e4565b60408051338152602081018390528615158183015290517f1889e9c3cb9a926b5ab9da8b1f34e8883f1c84e43a61525a2551c32d779213279181900360600190a150506000805460ff191660011790555092915050565b60115481565b600d5481565b6000805460ff166112bd576040805162461bcd60e51b815260206004820152601f60248201526000805160206145bf833981519152604482015290519081900360640190fd5b6000805460ff19169055601654600114611314576040805162461bcd60e51b815260206004820152601360248201527216940e881393d5081253925512505312569151606a1b604482015290519081900360640190fd5b61131c611f88565b600082611334576006546001600160a01b0316611341565b6007546001600160a01b03165b604080516370a0823160e01b815230600482015290519192506000916001600160a01b038416916370a08231916024808301926020929190829003018186803b15801561138d57600080fd5b505afa1580156113a1573d6000803e3d6000fd5b505050506040513d60208110156113b757600080fd5b5051905080611406576040805162461bcd60e51b8152602060048201526016602482015275494e53554646494349454e545f4c495155494449545960501b604482015290519081900360640190fd5b6000826001600160a01b03166318160ddd6040518163ffffffff1660e01b815260040160206040518083038186803b15801561144157600080fd5b505afa158015611455573d6000803e3d6000fd5b505050506040513d602081101561146b57600080fd5b5051600354909150869086906001600160a01b031660008061148e848789613018565b9150915061149c81856123c4565b98506114cb846114b7576001546001600160a01b03166114c4565b6002546001600160a01b03165b868b612754565b868210156115f75760006114e5888463ffffffff61236e16565b905060006114f486838a6130b8565b90506114ff81613320565b90506000861561151857611512826133ee565b90925090505b611523868784612754565b600854600090600160a01b900460ff1661153d5787611540565b87155b604080516302ce510960e41b81526001600160a01b038c8116600483015283151560248301529151929350600092918a1691632ce510909160448082019260209290919082900301818787803b15801561159957600080fd5b505af11580156115ad573d6000803e3d6000fd5b505050506040513d60208110156115c357600080fd5b50519d8e019d90506115f1826115da5760006115dc565b815b836115e757826115ea565b60005b858d613474565b50505050505b60408051632770a7eb60e21b81523060048201526024810189905290516001600160a01b038a1691639dc29fac91604480830192600092919082900301818387803b15801561164557600080fd5b505af1158015611659573d6000803e3d6000fd5b505050505050505050841561169257600954819061167d908463ffffffff61357616565b8161168457fe5b600980549290910490910390555b61169a612c6a565b60408051338152602081018690528615158183015290517f5cf7281eb36e25a92ffd0cff3089777ca0cb41d28e8c7158c234b1eae9a07ed29181900360600190a150506000805460ff191660011790555092915050565b6103e881565b60008054819060ff1661173f576040805162461bcd60e51b815260206004820152601f60248201526000805160206145bf833981519152604482015290519081900360640190fd5b6000805460ff19169055601654600114611796576040805162461bcd60e51b815260206004820152601360248201527216940e881393d5081253925512505312569151606a1b604482015290519081900360640190fd5b61179e611f88565b6000836117b6576006546001600160a01b03166117c3565b6007546001600160a01b03165b604080516370a0823160e01b815230600482015290519192506000916001600160a01b038416916370a08231916024808301926020929190829003018186803b15801561180f57600080fd5b505afa158015611823573d6000803e3d6000fd5b505050506040513d602081101561183957600080fd5b5051905080611880576040805162461bcd60e51b815260206004820152600e60248201526d0b4a074409c9ea8be8a9c9eaa8e960931b604482015290519081900360640190fd5b6000826001600160a01b03166318160ddd6040518163ffffffff1660e01b815260040160206040518083038186803b1580156118bb57600080fd5b505afa1580156118cf573d6000803e3d6000fd5b505050506040513d60208110156118e557600080fd5b50519050600080806118f56104b9565b506001600160701b031691506001600160701b0316915060006119196000806129b0565b50905060008a6119895761196a84670de0b6b3a7640000611956600a5461194a60028861357690919063ffffffff16565b9063ffffffff61357616565b8161195d57fe5b049063ffffffff6135d916565b61197a878663ffffffff61357616565b8161198157fe5b0486036119a7565b60095461199c878563ffffffff61357616565b816119a357fe5b0486035b90508087106119ea576040805162461bcd60e51b815260206004820152600a60248201526916940e88115610d1515160b21b604482015290519081900360640190fd5b5060006119f88b88886130b8565b9050611a0381613320565b90508a15611a1957611a14816133ee565b955090505b600354611a30906001600160a01b03168083612754565b50506003546040805163226bf2d160e21b81526001600160a01b038d811660048301528251600096508695509316926389afcb449260248084019391929182900301818787803b158015611a8357600080fd5b505af1158015611a97573d6000803e3d6000fd5b505050506040513d6040811015611aad57600080fd5b5080516020909101516008549193509150600160a01b900460ff16611ad25780611ad4565b815b600854909850600160a01b900460ff16611aee5781611af0565b805b9650611afe8888858d613474565b60408051632770a7eb60e21b81523060048201526024810187905290516001600160a01b03881691639dc29fac91604480830192600092919082900301818387803b158015611b4c57600080fd5b505af1158015611b60573d6000803e3d6000fd5b505050508815611b94576009548490611b7f908763ffffffff61357616565b81611b8657fe5b600980549290910490910390555b611b9c612c6a565b60408051338152602081018a905280820189905290517fb83dbb1f0386f1b6d6f534f325d617e3f96f2971cca29021702094328c1cb70c9181900360600190a150506000805460ff19166001179055509396929550919350505050565b60135481565b600e5481565b600f5481565b60008054819060ff16611c53576040805162461bcd60e51b815260206004820152601f60248201526000805160206145bf833981519152604482015290519081900360640190fd5b6000805460ff1916905560165415611ca8576040805162461bcd60e51b8152602060048201526013602482015272105b1c9958591e481a5b9a5d1a585b1a5e9959606a1b604482015290519081900360640190fd5b600154604080516370a0823160e01b815230600482015290516000926001600160a01b0316916370a08231916024808301926020929190829003018186803b158015611cf357600080fd5b505afa158015611d07573d6000803e3d6000fd5b505050506040513d6020811015611d1d57600080fd5b5051600254604080516370a0823160e01b815230600482015290519293506000926001600160a01b03909216916370a0823191602480820192602092909190829003018186803b158015611d7057600080fd5b505afa158015611d84573d6000803e3d6000fd5b505050506040513d6020811015611d9a57600080fd5b505190508115801590611dad5750600081115b611def576040805162461bcd60e51b815260206004820152600e60248201526d0b4a074409c9ea8be8a9c9eaa8e960931b604482015290519081900360640190fd5b600080611dfa613628565b600985905590925090506001600160701b03821615801590611e2557506000816001600160701b0316115b15611ef1576000611e6d836001600160701b0316611e55846001600160701b03168861357690919063ffffffff16565b81611e5c57fe5b60095491900463ffffffff6135d916565b9050600281046009541015611eb3576009548190611e9990670de0b6b3a764000063ffffffff61357616565b81611ea057fe5b04670de0b6b3a764000003600a55611eeb565b600954611ec790600463ffffffff61357616565b611edf82670de0b6b3a764000063ffffffff61357616565b81611ee657fe5b04600a555b50611efe565b6706f05b59d3b20000600a555b600754611f269084906000906001600160701b038516906001600160a01b03168b60016129f5565b50600654909550611f519085906000906001600160701b038616906001600160a01b03168b836129f5565b50600a54600b559550611f62612c6a565b5050600160168190556000805460ff191690911790555091939092509050565b600b5481565b6003546001600160a01b0316331461200357600360009054906101000a90046001600160a01b03166001600160a01b03166311816b046040518163ffffffff1660e01b8152600401600060405180830381600087803b158015611fea57600080fd5b505af1158015611ffe573d6000803e3d6000fd5b505050505b60008061200e613628565b9150915060008061201d6104b9565b50600a54919350915060006120446001600160701b0387811690871663ffffffff61357616565b905060135460001415801561206157506001600160701b03861615155b801561207557506001600160701b03851615155b1561236657600354604080516318160ddd60e01b815290516000926001600160a01b0316916318160ddd916004808301926020929190829003018186803b1580156120bf57600080fd5b505afa1580156120d3573d6000803e3d6000fd5b505050506040513d60208110156120e957600080fd5b50519050600061211361210c6001600160701b038916600263ffffffff61357616565b60006136f1565b90506000670de0b6b3a7640000905060006121616013546121338761381e565b028561214060125461381e565b02670de0b6b3a7640000028161215257fe5b8491900463ffffffff61236e16565b90506000670de0b6b3a764000061217e858463ffffffff61357616565b8161218557fe5b049050612190613870565b670de0b6b3a76400006121b8600b54670de0b6b3a7640000038361357690919063ffffffff16565b816121bf57fe5b60098054929091049091019081905560028504906121ec906001600160701b038b1663ffffffff61236e16565b1015612234576009548490612210906001600160701b038b1663ffffffff61236e16565b670de0b6b3a7640000028161222157fe5b04670de0b6b3a764000003600a5561227b565b612257600461194a8b6001600160701b031660095461236e90919063ffffffff16565b61226f85670de0b6b3a764000063ffffffff61357616565b8161227657fe5b04600a555b6000612292600f544361236e90919063ffffffff16565b905080156122fa57600e546122ad908263ffffffff6135d916565b6122d6600d546122ca600e54600c5461357690919063ffffffff16565b9063ffffffff6135d916565b816122dd57fe5b04600c55600a546122ee90896139fd565b600d5543600f5561231c565b612318612309600a548a6139fd565b600d549063ffffffff6135d916565b600d555b7f72ff579f9fee6120ee4fa25381562f2fb89e34ebedaf4180032d16db57237b55600954600a54604051808381526020018281526020019250505060405180910390a15050505050505b505050505050565b808203828111156123be576040805162461bcd60e51b815260206004820152601560248201527464732d6d6174682d7375622d756e646572666c6f7760581b604482015290519081900360640190fd5b92915050565b6000806123d084613a14565b5090506124046040518060400160405280600f81526020016e029b7b634b234ba3c9d103332b29d1608d1b81525082613d14565b821561242c57600254600854612427916001600160a01b03908116911683612754565b612540565b600154600354612449916001600160a01b03908116911683612754565b600080612454613628565b91509150600061247784846001600160701b0316846001600160701b0316613dc6565b6003546008549192506001600160a01b03169063022c0d9f90600160a01b900460ff166124a457826124a7565b60005b600854600160a01b900460ff166124bf5760006124c1565b835b600854604080516001600160e01b031960e087901b168152600481019490945260248401929092526001600160a01b0316604483015260806064830152600060848301819052905160c48084019382900301818387803b15801561252457600080fd5b505af1158015612538573d6000803e3d6000fd5b505050505050505b612550848263ffffffff61236e16565b949350505050565b600080600080612566613628565b915091506000806125756104b9565b50915091508715612668576125cc846001600160701b03166125ae600261194a876001600160701b03168f61357690919063ffffffff16565b816125b557fe5b046125c78b600263ffffffff61357616565b613eaa565b94506126618886896001600160a01b03166318160ddd6040518163ffffffff1660e01b815260040160206040518083038186803b15801561260c57600080fd5b505afa158015612620573d6000803e3d6000fd5b505050506040513d602081101561263657600080fd5b505161264c6001600160701b03881660006136f1565b856001600160701b0316600a54600954613ec0565b9550612747565b6126af836001600160701b0316612696600261194a886001600160701b03168e61357690919063ffffffff16565b8161269d57fe5b046125c78c600263ffffffff61357616565b94506127448886896001600160a01b03166318160ddd6040518163ffffffff1660e01b815260040160206040518083038186803b1580156126ef57600080fd5b505afa158015612703573d6000803e3d6000fd5b505050506040513d602081101561271957600080fd5b505161272f6001600160701b03891660006136f1565b866001600160701b0316600a54600954613ec0565b95505b5050505094509492505050565b604080518082018252601981527f7472616e7366657228616464726573732c75696e74323536290000000000000060209182015281516001600160a01b0385811660248301526044808301869052845180840390910181526064909201845291810180516001600160e01b031663a9059cbb60e01b1781529251815160009460609489169392918291908083835b602083106128015780518252601f1990920191602091820191016127e2565b6001836020036101000a0380198251168184511680821785525050505050509050019150506000604051808303816000865af19150503d8060008114612863576040519150601f19603f3d011682016040523d82523d6000602084013e612868565b606091505b5091509150818015612896575080511580612896575080806020019051602081101561289357600080fd5b50515b6128dd576040805162461bcd60e51b815260206004820152601360248201527216940e881514905394d1915497d19052531151606a1b604482015290519081900360640190fd5b5050505050565b6000806128ef613628565b91509150600360009054906101000a90046001600160a01b03166001600160a01b03166318160ddd6040518163ffffffff1660e01b815260040160206040518083038186803b15801561294157600080fd5b505afa158015612955573d6000803e3d6000fd5b505050506040513d602081101561296b57600080fd5b505160135561298c6001600160701b0383811690831663ffffffff61357616565b6012555050601480546001600160e01b0316600160e01b4263ffffffff1602179055565b6000806000806129be613628565b915091506129d5826001600160701b0316876136f1565b93506129ea816001600160701b0316866136f1565b925050509250929050565b60008060008811612a3e576040805162461bcd60e51b815260206004820152600e60248201526d0b4a074409c9ea8be8a9c9eaa8e960931b604482015290519081900360640190fd5b6000856001600160a01b03166318160ddd6040518163ffffffff1660e01b815260040160206040518083038186803b158015612a7957600080fd5b505afa158015612a8d573d6000803e3d6000fd5b505050506040513d6020811015612aa357600080fd5b5051600a546009549192509082612b8457604080516340c10f1960e01b81526000600482018190526103e8602483015291516001600160a01b038b16926340c10f19926044808201939182900301818387803b158015612b0257600080fd5b505af1158015612b16573d6000803e3d6000fd5b505050508515612b3957612b328b6103e863ffffffff61236e16565b9450612b7f565b612b7c6103e8612b5084600263ffffffff61357616565b612b688e670de0b6b3a764000063ffffffff61357616565b81612b6f57fe5b049063ffffffff61236e16565b94505b612ba2565b612b8e8b876123c4565b9350612b9f8685858c8e8787613ec0565b94505b5050856001600160a01b03166340c10f1986856040518363ffffffff1660e01b815260040180836001600160a01b03166001600160a01b0316815260200182815260200192505050600060405180830381600087803b158015612c0457600080fd5b505af1158015612c18573d6000803e3d6000fd5b505060408051338152602081018690528715158183015290517f19d363807bf5ba06f3320318d009a9851c28f799660016f386c9960478c46ea29350908190036060019150a150965096945050505050565b600154604080516370a0823160e01b815230600482015290516000926001600160a01b0316916370a08231916024808301926020929190829003018186803b158015612cb557600080fd5b505afa158015612cc9573d6000803e3d6000fd5b505050506040513d6020811015612cdf57600080fd5b5051600254604080516370a0823160e01b815230600482015290519293506000926001600160a01b03909216916370a0823191602480820192602092909190829003018186803b158015612d3257600080fd5b505afa158015612d46573d6000803e3d6000fd5b505050506040513d6020811015612d5c57600080fd5b50519050600080612d6d84846129b0565b915091506000600460009054906101000a90046001600160a01b03166001600160a01b031663a3ad52b86040518163ffffffff1660e01b815260040160206040518083038186803b158015612dc157600080fd5b505afa158015612dd5573d6000803e3d6000fd5b505050506040513d6020811015612deb57600080fd5b5051905060006064612e03858463ffffffff61357616565b81612e0a57fe5b04905060006064612e21858563ffffffff61357616565b81612e2857fe5b04905060026001600160701b038316046001600160701b031687118015612e63575060026001600160701b038216046001600160701b031686115b15612f7e57600080612eb18787612e9860026001600160701b0389165b8e916001600160701b0391041663ffffffff61236e16565b612eac60026001600160701b038916612e80565b613f55565b9150915081600014612eda57600154600354612eda916001600160a01b03908116911684612754565b8015612efd57600254600354612efd916001600160a01b03908116911683612754565b600354604080516335313c2160e11b815230600482015290516001600160a01b0390921691636a627842916024808201926020929091908290030181600087803b158015612f4a57600080fd5b505af1158015612f5e573d6000803e3d6000fd5b505050506040513d6020811015612f7457600080fd5b5050970396909503945b612f866128e4565b612f9287878484613fb0565b50505050505050565b600080600080612fa9613628565b915091508415612fd857612fd360028704826001600160701b0316846001600160701b0316613dc6565b612fdd565b600286045b9350846130095761300460028704836001600160701b0316836001600160701b0316613dc6565b6129ea565b60028604925050509250929050565b600a5460095460009182918261302e81806129b0565b50905060008061303c6104b9565b509150915060008a61304e5782613050565b815b6001600160701b0316905060008b613068578461307c565b601454600160701b90046001600160701b03165b905061308d8c838d84868c8c613ec0565b98506130a78c61309d8b8d613eaa565b8d84868c8c614237565b975050505050505050935093915050565b60008060006130c86001806129b0565b915091506000806130d76104b9565b5091509150600088156131ec576130f584600263ffffffff61357616565b60095461319890613115906001600160701b03861663ffffffff61236e16565b600354604080516370a0823160e01b815230600482015290516001600160a01b03909216916370a0823191602480820192602092909190829003018186803b15801561316057600080fd5b505afa158015613174573d6000803e3d6000fd5b505050506040513d602081101561318a57600080fd5b50519063ffffffff61357616565b8161319f57fe5b0490506131e56131b685600263ffffffff61357616565b6131cf836001600160701b03861663ffffffff61357616565b816131d657fe5b8391900463ffffffff6135d916565b90506132ba565b600354604080516370a0823160e01b81523060048201529051670de0b6b3a764000092613280926001600160a01b03909116916370a0823191602480820192602092909190829003018186803b15801561324557600080fd5b505afa158015613259573d6000803e3d6000fd5b505050506040513d602081101561326f57600080fd5b5051600a549063ffffffff61357616565b8161328757fe5b0490506132b761329e86600263ffffffff61357616565b6131cf836001600160701b03871663ffffffff61357616565b90505b866132cb898363ffffffff61357616565b816132d257fe5b049550600086116133145760405162461bcd60e51b815260040180806020018281038252602181526020018061462c6021913960400191505060405180910390fd5b50505050509392505050565b60008061332c83613a14565b50600354909150613347906001600160a01b03168083612754565b600354600854604080516302ce510960e41b81526001600160a01b038084166004830152600160a01b90930460ff1615602482015290519190921691632ce510909160448083019260209291908290030181600087803b1580156133aa57600080fd5b505af11580156133be573d6000803e3d6000fd5b505050506040513d60208110156133d457600080fd5b506133e79050838263ffffffff61236e16565b9392505050565b60008060006133fb6104b9565b506001600160701b031691505060006134156000806129b0565b91506000905061343b61342f83600263ffffffff61357616565b84600a54600954614289565b905061344781876142c7565b9350670de0b6b3a7640000613462828863ffffffff61357616565b8161346957fe5b049450505050915091565b8115613570578383156134b45760008061348c613628565b6001600160701b031691506001600160701b031691506134ad868383613dc6565b8301925050505b600254600854604080516370a0823160e01b81526001600160a01b039283166004820152905160009392909216916370a0823191602480820192602092909190829003018186803b15801561350857600080fd5b505afa15801561351c573d6000803e3d6000fd5b505050506040513d602081101561353257600080fd5b505190506000613548838663ffffffff61357616565b905080821115612f9257600254600854612f92916001600160a01b03908116911686846143fb565b50505050565b60008115806135915750508082028282828161358e57fe5b04145b6123be576040805162461bcd60e51b815260206004820152601460248201527364732d6d6174682d6d756c2d6f766572666c6f7760601b604482015290519081900360640190fd5b808201828110156123be576040805162461bcd60e51b815260206004820152601460248201527364732d6d6174682d6164642d6f766572666c6f7760601b604482015290519081900360640190fd5b600080600080600360009054906101000a90046001600160a01b03166001600160a01b0316630902f1ac6040518163ffffffff1660e01b815260040160606040518083038186803b15801561367c57600080fd5b505afa158015613690573d6000803e3d6000fd5b505050506040513d60608110156136a657600080fd5b5080516020909101516008549193509150600160a01b900460ff166136cb57806136cd565b815b600854909450600160a01b900460ff166136e757816136e9565b805b925050509091565b600354604080516370a0823160e01b8152306004820152905160009283926001600160a01b03909116916370a0823191602480820192602092909190829003018186803b15801561374157600080fd5b505afa158015613755573d6000803e3d6000fd5b505050506040513d602081101561376b57600080fd5b5051600354604080516318160ddd60e01b815290519293506000926001600160a01b03909216916318160ddd91600480820192602092909190829003018186803b1580156137b857600080fd5b505afa1580156137cc573d6000803e3d6000fd5b505050506040513d60208110156137e257600080fd5b505190508015806137f1575081155b6138135780613806868463ffffffff61357616565b8161380d57fe5b04613815565b835b95945050505050565b60006003821115613861575080600160028204015b8181101561385b5780915060028182858161384a57fe5b04018161385357fe5b049050613833565b5061386b565b811561386b575060015b919050565b6010546004805460408051637945980160e01b815290514394936000936001600160a01b03169263794598019281830192602092829003018186803b1580156138b857600080fd5b505afa1580156138cc573d6000803e3d6000fd5b505050506040513d60208110156138e257600080fd5b505190508282038110156139f857600a54601154808210156706f05b59d3b200008310158082146139a757600081156139295750600a546706f05b59d3b1ffff1901613938565b50600a546706f05b59d3b20000035b82156139765760006139528587038363ffffffff61357616565b9050670de0b6b3a7640000600b5482011161397057600b8054820190555b506139a1565b600061398a8686038363ffffffff61357616565b9050600b54811161399f57600b805482900390555b505b506139ec565b81156139d357600b5483850390670de0b6b3a7640000908201116139a157600b805482019055506139ec565b600b548484039081116139ea57600b805482900390555b505b50505060115560108390555b505050565b6000818310613a0f57508082036123be565b500390565b6000806000613a27600c54600d5461458e565b90506000600460009054906101000a90046001600160a01b03166001600160a01b0316635942f95e6040518163ffffffff1660e01b815260040160206040518083038186803b158015613a7957600080fd5b505afa158015613a8d573d6000803e3d6000fd5b505050506040513d6020811015613aa357600080fd5b505160048054604080516315f4859960e11b815290519394506000936001600160a01b0390921692632be90b32928282019260209290829003018186803b158015613aed57600080fd5b505afa158015613b01573d6000803e3d6000fd5b505050506040513d6020811015613b1757600080fd5b50519050818310613c4e576001935060008183613b3e81870361271063ffffffff61357616565b81613b4557fe5b04019050613be0600860009054906101000a90046001600160a01b03166001600160a01b0316630269b9ca600a546040518263ffffffff1660e01b81526004018082815260200191505060206040518083038186803b158015613ba757600080fd5b505afa158015613bbb573d6000803e3d6000fd5b505050506040513d6020811015613bd157600080fd5b5051829063ffffffff6135d916565b90506127108110613c2b576040805162461bcd60e51b815260206004820152601060248201526f0b4a074408ccaca40e8dede40d0d2ced60831b604482015290519081900360640190fd5b612710613c3e888363ffffffff61357616565b81613c4557fe5b04955050613cd0565b600854600a5460408051630134dce560e11b8152600481019290925251600096506001600160a01b0390921691630269b9ca91602480820192602092909190829003018186803b158015613ca157600080fd5b505afa158015613cb5573d6000803e3d6000fd5b505050506040513d6020811015613ccb57600080fd5b505194505b60408051868152851515602082015281517f3e2f131ffe50fecbee1df82d56b70021104f94a384c753f5f1022ab9b24c2eb3929181900390910190a1505050915091565b613dc282826040516024018080602001838152602001828103825284818151815260200191508051906020019080838360005b83811015613d5f578181015183820152602001613d47565b50505050905090810190601f168015613d8c5780820380516001836020036101000a031916815260200191505b5060408051601f198184030181529190526020810180516001600160e01b03166309710a9d60e41b179052935061459d92505050565b5050565b6000808411613e065760405162461bcd60e51b815260040180806020018281038252602b81526020018061464d602b913960400191505060405180910390fd5b600083118015613e165750600082115b613e515760405162461bcd60e51b81526004018080602001828103825260288152602001806146046028913960400191505060405180910390fd5b6000613e65856103e563ffffffff61357616565b90506000613e79828563ffffffff61357616565b90506000613e93836122ca886103e863ffffffff61357616565b9050808281613e9e57fe5b04979650505050505050565b6000818310613eb957816133e7565b5090919050565b60008715613ee85781613ed9888863ffffffff61357616565b81613ee057fe5b049050613f4a565b6000613efa888863ffffffff61357616565b90506000670de0b6b3a7640000613f1c600261194a8a8963ffffffff61357616565b81613f2357fe5b0490506000613f38878363ffffffff6135d916565b9050808381613f4357fe5b0493505050505b979650505050505050565b6000808085613f6a888663ffffffff61357616565b81613f7157fe5b04905084811115613f9f5784925086613f90848863ffffffff61357616565b81613f9757fe5b049150613fa6565b8092508391505b5094509492505050565b60006001600160701b0383168511156140a757600154600354613ff8916001600160a01b039081169116613ff3886001600160701b03881663ffffffff61236e16565b612754565b600354600854604080516321913af360e11b8152306004820152600160a01b90920460ff1615156024830152516001600160a01b039092169163432275e6916044808201926060929091908290030181600087803b15801561405957600080fd5b505af115801561406d573d6000803e3d6000fd5b505050506040513d606081101561408357600080fd5b5051601480546001600160701b0319166001600160701b03861617905590506140c3565b601480546001600160701b0319166001600160701b0387161790555b83826001600160701b031610156141bb57600254600354614104916001600160a01b039081169116613ff3876001600160701b03871663ffffffff61236e16565b600354600854604080516321913af360e11b8152306004820152600160a01b90920460ff16156024830152516001600160a01b039092169163432275e6916044808201926060929091908290030181600087803b15801561416457600080fd5b505af1158015614178573d6000803e3d6000fd5b505050506040513d606081101561418e57600080fd5b505160148054600160701b600160e01b031916600160701b6001600160701b0386160217905590506141e0565b60148054600160701b600160e01b031916600160701b6001600160701b038716021790555b601454604080516001600160701b038084168252600160701b909304909216602083015280517f1d96001f313f6446e46c7776b79d231589555627a46fa2388f3220937fc79e519281900390910190a15050505050565b600087156142505785613ed9838963ffffffff61357616565b856142758861194a87670de0b6b3a76400006119566002848d8c63ffffffff61357616565b8161427c57fe5b0498975050505050505050565b600061429b828563ffffffff61236e16565b6142b6670de0b6b3a76400008590038763ffffffff61357616565b816142bd57fe5b0495945050505050565b6000670de0b6b3a76400008310156143f2576000670de0b6b3a76400006142f68486830363ffffffff61357616565b816142fd57fe5b600354600854604080516370a0823160e01b81526001600160a01b03928316600482015290519490930494506000939116916370a08231916024808301926020929190829003018186803b15801561435457600080fd5b505afa158015614368573d6000803e3d6000fd5b505050506040513d602081101561437e57600080fd5b50519050808210156143b1576003546008546143a8916001600160a01b03908116911681856143fb565b600092506143eb565b6003546008546143cf916001600160a01b03908116911681846143fb565b836143e0838363ffffffff61236e16565b816143e757fe5b0492505b50506123be565b50600092915050565b60006060856001600160a01b03166040518060600160405280602581526020016145df602591398051602091820120604080516001600160a01b03808b166024830152891660448201526064808201899052825180830390910181526084909101825292830180516001600160e01b03166001600160e01b0319909316929092178252518251909182918083835b602083106144a85780518252601f199092019160209182019101614489565b6001836020036101000a0380198251168184511680821785525050505050509050019150506000604051808303816000865af19150503d806000811461450a576040519150601f19603f3d011682016040523d82523d6000602084013e61450f565b606091505b509150915081801561453d57508051158061453d575080806020019051602081101561453a57600080fd5b50515b612366576040805162461bcd60e51b815260206004820152601860248201527f5a503a205452414e534645525f46524f4d5f4641494c45440000000000000000604482015290519081900360640190fd5b6000818311613eb957816133e7565b80516a636f6e736f6c652e6c6f67602083016000808483855afa505050505056fe5265656e7472616e637947756172643a207265656e7472616e742063616c6c007472616e7366657246726f6d28616464726573732c616464726573732c75696e7432353629556e697377617056324c6962726172793a20494e53554646494349454e545f4c49515549444954595a503a20494e53554646494349454e545f4c49515549444954595f4255524e4544556e697377617056324c6962726172793a20494e53554646494349454e545f494e5055545f414d4f554e54a265627a7a723158209a65a7071da4c8948522ff321672fa81b11843af23da1390f64714e6552f2a7664736f6c63430005100032608060405234801561001057600080fd5b506040514690806052610d93823960408051918290036052018220828201825260068352652d34b931b7b760d11b6020938401528151808301835260018152603160f81b908401528151808401919091527f94c6df7cbb14f58e7ac6d9fa315f8346b33ef43dae2423c0e0e94673dd9e65ff818301527fc89efdaa54c0f20c7adf612882df0950f5a951637e0307cdcb4c672f298b8bc6606082015260808101949094523060a0808601919091528151808603909101815260c09094019052825192019190912060045550600780546001600160a01b03191633179055610c97806100fc6000396000f3fe608060405234801561001057600080fd5b50600436106101375760003560e01c80637ecebe00116100b8578063b89f59ea1161007c578063b89f59ea1461037d578063c45a015514610385578063d505accf1461038d578063dd62ed3e146103de578063fc0c546a1461040c578063fecf97341461041457610137565b80637ecebe00146102ef57806395d89b41146103155780639dc29fac1461031d578063a8aa1b3114610349578063a9059cbb1461035157610137565b8063313ce567116100ff578063313ce567146102515780633644e5151461026f57806340c10f191461027757806346847794146102a557806370a08231146102c957610137565b806306fdde031461013c578063095ea7b3146101b957806318160ddd146101f957806323b872dd1461021357806330adf81f14610249575b600080fd5b610144610452565b6040805160208082528351818301528351919283929083019185019080838360005b8381101561017e578181015183820152602001610166565b50505050905090810190601f1680156101ab5780820380516001836020036101000a031916815260200191505b509250505060405180910390f35b6101e5600480360360408110156101cf57600080fd5b506001600160a01b038135169060200135610474565b604080519115158252519081900360200190f35b61020161048b565b60408051918252519081900360200190f35b6101e56004803603606081101561022957600080fd5b506001600160a01b03813581169160208101359091169060400135610491565b61020161052b565b61025961054f565b6040805160ff9092168252519081900360200190f35b610201610554565b6102a36004803603604081101561028d57600080fd5b506001600160a01b03813516906020013561055a565b005b6102ad6105b8565b604080516001600160a01b039092168252519081900360200190f35b610201600480360360208110156102df57600080fd5b50356001600160a01b03166105c7565b6102016004803603602081101561030557600080fd5b50356001600160a01b03166105d9565b6101446105eb565b6102a36004803603604081101561033357600080fd5b506001600160a01b03813516906020013561060a565b6102ad610664565b6101e56004803603604081101561036757600080fd5b506001600160a01b038135169060200135610673565b6101e5610680565b6102ad610690565b6102a3600480360360e08110156103a357600080fd5b506001600160a01b03813581169160208101359091169060408101359060608101359060ff6080820135169060a08101359060c0013561069f565b610201600480360360408110156103f457600080fd5b506001600160a01b03813581169160200135166108a1565b6102ad6108be565b6102a36004803603608081101561042a57600080fd5b506001600160a01b0381358116916020810135821691604082013516906060013515156108cd565b604051806040016040528060068152602001652d34b931b7b760d11b81525081565b6000610481338484610973565b5060015b92915050565b60005481565b6001600160a01b038316600090815260026020908152604080832033845290915281205460001914610516576001600160a01b03841660009081526002602090815260408083203384529091529020546104f1908363ffffffff6109d516565b6001600160a01b03851660009081526002602090815260408083203384529091529020555b610521848484610a25565b5060019392505050565b7f6e71edae12b1b97f4d1f60370fef10105fa2faae0126114a169c64845d6126c981565b601281565b60045481565b6008546001600160a01b031633146105aa576040805162461bcd60e51b815260206004820152600e60248201526d2d282a1d102327a92124a22222a760911b604482015290519081900360640190fd5b6105b48282610adf565b5050565b6008546001600160a01b031681565b60016020526000908152604090205481565b60036020526000908152604090205481565b6040518060400160405280600381526020016216941560ea1b81525081565b6008546001600160a01b0316331461065a576040805162461bcd60e51b815260206004820152600e60248201526d2d282a1d102327a92124a22222a760911b604482015290519081900360640190fd5b6105b48282610b75565b6006546001600160a01b031681565b6000610481338484610a25565b600654600160a01b900460ff1681565b6007546001600160a01b031681565b428410156106e9576040805162461bcd60e51b8152602060048201526012602482015271155b9a5cddd85c158c8e881156141254915160721b604482015290519081900360640190fd5b6004546001600160a01b0380891660008181526003602090815260408083208054600180820190925582517f6e71edae12b1b97f4d1f60370fef10105fa2faae0126114a169c64845d6126c98186015280840196909652958d166060860152608085018c905260a085019590955260c08085018b90528151808603909101815260e08501825280519083012061190160f01b6101008601526101028501969096526101228085019690965280518085039096018652610142840180825286519683019690962095839052610162840180825286905260ff89166101828501526101a284018890526101c28401879052519193926101e280820193601f1981019281900390910190855afa158015610804573d6000803e3d6000fd5b5050604051601f1901519150506001600160a01b0381161580159061083a5750886001600160a01b0316816001600160a01b0316145b61088b576040805162461bcd60e51b815260206004820152601c60248201527f556e697377617056323a20494e56414c49445f5349474e415455524500000000604482015290519081900360640190fd5b610896898989610973565b505050505050505050565b600260209081526000928352604080842090915290825290205481565b6005546001600160a01b031681565b6007546001600160a01b0316331461091d576040805162461bcd60e51b815260206004820152600e60248201526d2d282a1d102327a92124a22222a760911b604482015290519081900360640190fd5b600580546001600160a01b039586166001600160a01b03199182161790915560068054921515600160a01b0260ff60a01b1995871693831693909317949094169190911790925560088054919093169116179055565b6001600160a01b03808416600081815260026020908152604080832094871680845294825291829020859055815185815291517f8c5be1e5ebec7d5bd14f71427d1e84f3dd0314c0f7b2291e5b200ac8c7c3b9259281900390910190a3505050565b80820382811115610485576040805162461bcd60e51b815260206004820152601560248201527464732d6d6174682d7375622d756e646572666c6f7760581b604482015290519081900360640190fd5b6001600160a01b038316600090815260016020526040902054610a4e908263ffffffff6109d516565b6001600160a01b038085166000908152600160205260408082209390935590841681522054610a83908263ffffffff610c1316565b6001600160a01b0380841660008181526001602090815260409182902094909455805185815290519193928716927fddf252ad1be2c89b69c2b068fc378daa952ba7f163c4a11628f55a4df523b3ef92918290030190a3505050565b600054610af2908263ffffffff610c1316565b60009081556001600160a01b038316815260016020526040902054610b1d908263ffffffff610c1316565b6001600160a01b03831660008181526001602090815260408083209490945583518581529351929391927fddf252ad1be2c89b69c2b068fc378daa952ba7f163c4a11628f55a4df523b3ef9281900390910190a35050565b6001600160a01b038216600090815260016020526040902054610b9e908263ffffffff6109d516565b6001600160a01b03831660009081526001602052604081209190915554610bcb908263ffffffff6109d516565b60009081556040805183815290516001600160a01b038516917fddf252ad1be2c89b69c2b068fc378daa952ba7f163c4a11628f55a4df523b3ef919081900360200190a35050565b80820182811015610485576040805162461bcd60e51b815260206004820152601460248201527364732d6d6174682d6164642d6f766572666c6f7760601b604482015290519081900360640190fdfea265627a7a7231582002ceb966122a24d9f2f6ab3c93019ed2fbdf23fcb16a009b7fe0e8476c0130df64736f6c63430005100032454950373132446f6d61696e28737472696e67206e616d652c737472696e672076657273696f6e2c75696e7432353620636861696e49642c6164647265737320766572696679696e67436f6e747261637429a265627a7a723158203c94068666e7380113662aa2d527d37fef2cc47902470382a20bbb4f8250b8bd64736f6c63430005100032",
  "devdoc": {
    "methods": {}
  },
  "userdoc": {
    "methods": {}
  },
  "storageLayout": {
    "storage": [
      {
        "astId": 5520,
        "contract": "contracts/ZirconPylonFactory.sol:ZirconPylonFactory",
        "label": "getPylon",
        "offset": 0,
        "slot": "0",
        "type": "t_mapping(t_address,t_mapping(t_address,t_address))"
      },
      {
        "astId": 5523,
        "contract": "contracts/ZirconPylonFactory.sol:ZirconPylonFactory",
        "label": "allPylons",
        "offset": 0,
        "slot": "1",
        "type": "t_array(t_address)dyn_storage"
      },
      {
        "astId": 5525,
        "contract": "contracts/ZirconPylonFactory.sol:ZirconPylonFactory",
        "label": "factory",
        "offset": 0,
        "slot": "2",
        "type": "t_address"
      },
      {
        "astId": 5527,
        "contract": "contracts/ZirconPylonFactory.sol:ZirconPylonFactory",
        "label": "energyFactory",
        "offset": 0,
        "slot": "3",
        "type": "t_address"
      },
      {
        "astId": 5529,
        "contract": "contracts/ZirconPylonFactory.sol:ZirconPylonFactory",
        "label": "feeToSetter",
        "offset": 0,
        "slot": "4",
        "type": "t_address"
      },
      {
        "astId": 5531,
        "contract": "contracts/ZirconPylonFactory.sol:ZirconPylonFactory",
        "label": "maximumPercentageSync",
        "offset": 0,
        "slot": "5",
        "type": "t_uint256"
      },
      {
        "astId": 5533,
        "contract": "contracts/ZirconPylonFactory.sol:ZirconPylonFactory",
        "label": "deltaGammaThreshold",
        "offset": 0,
        "slot": "6",
        "type": "t_uint256"
      },
      {
        "astId": 5535,
        "contract": "contracts/ZirconPylonFactory.sol:ZirconPylonFactory",
        "label": "deltaGammaMinFee",
        "offset": 0,
        "slot": "7",
        "type": "t_uint256"
      },
      {
        "astId": 5537,
        "contract": "contracts/ZirconPylonFactory.sol:ZirconPylonFactory",
        "label": "muUpdatePeriod",
        "offset": 0,
        "slot": "8",
        "type": "t_uint256"
      }
    ],
    "types": {
      "t_address": {
        "encoding": "inplace",
        "label": "address",
        "numberOfBytes": "20"
      },
      "t_array(t_address)dyn_storage": {
        "base": "t_address",
        "encoding": "dynamic_array",
        "label": "address[]",
        "numberOfBytes": "32"
      },
      "t_mapping(t_address,t_address)": {
        "encoding": "mapping",
        "key": "t_address",
        "label": "mapping(address => address)",
        "numberOfBytes": "32",
        "value": "t_address"
      },
      "t_mapping(t_address,t_mapping(t_address,t_address))": {
        "encoding": "mapping",
        "key": "t_address",
        "label": "mapping(address => mapping(address => address))",
        "numberOfBytes": "32",
        "value": "t_mapping(t_address,t_address)"
      },
      "t_uint256": {
        "encoding": "inplace",
        "label": "uint256",
        "numberOfBytes": "32"
      }
    }
  }
}