{
  "address": "0xF0e104ad900a52D90e7e737AC6B27a1c201A7640",
  "abi": [
    {
      "inputs": [],
      "payable": false,
      "stateMutability": "nonpayable",
      "type": "constructor"
    },
    {
      "anonymous": false,
      "inputs": [
        {
          "indexed": true,
          "internalType": "address",
          "name": "pair",
          "type": "address"
        },
        {
          "indexed": true,
          "internalType": "address",
          "name": "energy",
          "type": "address"
        },
        {
          "indexed": false,
          "internalType": "address",
          "name": "tokenA",
          "type": "address"
        },
        {
          "indexed": false,
          "internalType": "address",
          "name": "tokenB",
          "type": "address"
        },
        {
          "indexed": false,
          "internalType": "uint256",
          "name": "",
          "type": "uint256"
        }
      ],
      "name": "EnergyCreated",
      "type": "event"
    },
    {
      "constant": true,
      "inputs": [
        {
          "internalType": "uint256",
          "name": "",
          "type": "uint256"
        }
      ],
      "name": "allEnergies",
      "outputs": [
        {
          "internalType": "address",
          "name": "",
          "type": "address"
        }
      ],
      "payable": false,
      "stateMutability": "view",
      "type": "function"
    },
    {
      "constant": true,
      "inputs": [],
      "name": "allEnergiesLength",
      "outputs": [
        {
          "internalType": "uint256",
          "name": "",
          "type": "uint256"
        }
      ],
      "payable": false,
      "stateMutability": "view",
      "type": "function"
    },
    {
      "constant": true,
      "inputs": [
        {
          "internalType": "uint256",
          "name": "",
          "type": "uint256"
        }
      ],
      "name": "allEnergiesRevenue",
      "outputs": [
        {
          "internalType": "address",
          "name": "",
          "type": "address"
        }
      ],
      "payable": false,
      "stateMutability": "view",
      "type": "function"
    },
    {
      "constant": true,
      "inputs": [],
      "name": "allEnergiesRevenueLength",
      "outputs": [
        {
          "internalType": "uint256",
          "name": "",
          "type": "uint256"
        }
      ],
      "payable": false,
      "stateMutability": "view",
      "type": "function"
    },
    {
      "constant": false,
      "inputs": [
        {
          "internalType": "address",
          "name": "_pylon",
          "type": "address"
        },
        {
          "internalType": "address",
          "name": "_pair",
          "type": "address"
        },
        {
          "internalType": "address",
          "name": "_tokenA",
          "type": "address"
        },
        {
          "internalType": "address",
          "name": "_tokenB",
          "type": "address"
        }
      ],
      "name": "createEnergy",
      "outputs": [
        {
          "internalType": "address",
          "name": "energy",
          "type": "address"
        }
      ],
      "payable": false,
      "stateMutability": "nonpayable",
      "type": "function"
    },
    {
      "constant": false,
      "inputs": [
        {
          "internalType": "address",
          "name": "_pair",
          "type": "address"
        },
        {
          "internalType": "address",
          "name": "_tokenA",
          "type": "address"
        },
        {
          "internalType": "address",
          "name": "_tokenB",
          "type": "address"
        },
        {
          "internalType": "address",
          "name": "_pylonFactory",
          "type": "address"
        }
      ],
      "name": "createEnergyRev",
      "outputs": [
        {
          "internalType": "address",
          "name": "energy",
          "type": "address"
        }
      ],
      "payable": false,
      "stateMutability": "nonpayable",
      "type": "function"
    },
    {
      "constant": true,
      "inputs": [],
      "name": "energyCodeHash",
      "outputs": [
        {
          "internalType": "bytes32",
          "name": "",
          "type": "bytes32"
        }
      ],
      "payable": false,
      "stateMutability": "pure",
      "type": "function"
    },
    {
      "constant": true,
      "inputs": [],
      "name": "energyRevenueCodeHash",
      "outputs": [
        {
          "internalType": "bytes32",
          "name": "",
          "type": "bytes32"
        }
      ],
      "payable": false,
      "stateMutability": "pure",
      "type": "function"
    },
    {
      "constant": true,
      "inputs": [
        {
          "internalType": "address",
          "name": "",
          "type": "address"
        },
        {
          "internalType": "address",
          "name": "",
          "type": "address"
        }
      ],
      "name": "getEnergy",
      "outputs": [
        {
          "internalType": "address",
          "name": "",
          "type": "address"
        }
      ],
      "payable": false,
      "stateMutability": "view",
      "type": "function"
    },
    {
      "constant": true,
      "inputs": [
        {
          "internalType": "address",
          "name": "",
          "type": "address"
        },
        {
          "internalType": "address",
          "name": "",
          "type": "address"
        }
      ],
      "name": "getEnergyRevenue",
      "outputs": [
        {
          "internalType": "address",
          "name": "",
          "type": "address"
        }
      ],
      "payable": false,
      "stateMutability": "view",
      "type": "function"
    },
    {
      "constant": true,
      "inputs": [],
      "name": "maxPylonFee",
      "outputs": [
        {
          "internalType": "uint256",
          "name": "",
          "type": "uint256"
        }
      ],
      "payable": false,
      "stateMutability": "view",
      "type": "function"
    },
    {
      "constant": true,
      "inputs": [],
      "name": "minPylonFee",
      "outputs": [
        {
          "internalType": "uint256",
          "name": "",
          "type": "uint256"
        }
      ],
      "payable": false,
      "stateMutability": "view",
      "type": "function"
    }
  ],
  "transactionHash": "0xadac799948410154bf719c0f54967fb81a269f82bb1f24468638ce5d719fe6e4",
  "args": [],
  "numDeployments": 2,
  "solcInputHash": "f48515f8802bde1eee02701e6e31aebc",
  "bytecode": "0x608060405234801561001057600080fd5b50600160045560646005556124018061002a6000396000f3fe608060405234801561001057600080fd5b50600436106100b45760003560e01c80639364a296116100715780639364a296146100e357806394a77e5b14610173578063957ddb16146101b1578063a2669ce7146101ce578063cd2ba964146101d6578063f732ff4b146101f3576100b4565b80634dd81442146100b95780634eada471146100d3578063567d3f6c146100db57806373e56b14146100e357806388413ca0146100eb5780639172e78414610135575b600080fd5b6100c1610221565b60408051918252519081900360200190f35b6100c1610227565b6100c161022d565b6100c1610233565b6101196004803603604081101561010157600080fd5b506001600160a01b0381358116916020013516610265565b604080516001600160a01b039092168252519081900360200190f35b6101196004803603608081101561014b57600080fd5b506001600160a01b03813581169160208101358216916040820135811691606001351661028b565b6101196004803603608081101561018957600080fd5b506001600160a01b038135811691602081013582169160408201358116916060013516610657565b610119600480360360208110156101c757600080fd5b5035610b5f565b6100c1610b86565b610119600480360360208110156101ec57600080fd5b5035610b8c565b6101196004803603604081101561020957600080fd5b506001600160a01b0381358116916020013516610b99565b60035490565b60045481565b60055481565b60006040518060200161024590610d03565b6020820181038252601f19601f8201166040525080519060200120905090565b60016020908152600092835260408084209091529082529020546001600160a01b031681565b6000816001600160a01b0316836001600160a01b031614156102ec576040805162461bcd60e51b81526020600482015260156024820152745a463a204944454e544943414c5f4144445245535360581b604482015290519081900360640190fd5b6001600160a01b0385161580159061030c57506001600160a01b03841615155b610350576040805162461bcd60e51b815260206004820152601060248201526f5a453a205a45524f5f4144445245535360801b604482015290519081900360640190fd5b6001600160a01b03838116600090815260208181526040808320868516845290915290205416156103bc576040805162461bcd60e51b81526020600482015260116024820152705a453a20454e455247595f45584953545360781b604482015290519081900360640190fd5b6060604051806020016103ce90610d03565b601f1982820381018352601f909101166040528051909150610437576040805162461bcd60e51b815260206004820181905260248201527f437265617465323a2062797465636f6465206c656e677468206973207a65726f604482015290519081900360640190fd5b6000858560405160200180836001600160a01b03166001600160a01b031660601b8152601401826001600160a01b03166001600160a01b031660601b815260140192505050604051602081830303815290604052805190602001209050808251602084016000f592506001600160a01b0383166104f7576040805162461bcd60e51b8152602060048201526019602482015278437265617465323a204661696c6564206f6e206465706c6f7960381b604482015290519081900360640190fd5b60048054600554604080516339dff1e960e21b81526001600160a01b038c8116958201959095528a851660248201528985166044820152888516606482810191909152608482015260a481019390935260c4830191909152519185169163e77fc7a49160e48082019260009290919082900301818387803b15801561057b57600080fd5b505af115801561058f573d6000803e3d6000fd5b5050506001600160a01b038087166000818152602081815260408083208a86168085529083528184208054878c166001600160a01b0319918216811790925560028054600181018255968190527f405787fa12a823e0f2b7631cc41b3ba8828b3321ca811111fa75cd3aa3bb5ace90960180549091168217905593548251958652928501528381019190915251909350918916917f3b4e72e4103178db6cd2e27320e98d9afdd1ab6f078b707886d1bf92b9fd8b259181900360600190a35050949350505050565b6000826001600160a01b0316846001600160a01b031614156106b8576040805162461bcd60e51b81526020600482015260156024820152745a463a204944454e544943414c5f4144445245535360581b604482015290519081900360640190fd5b6001600160a01b038516610706576040805162461bcd60e51b815260206004820152601060248201526f5a453a205a45524f5f4144445245535360801b604482015290519081900360640190fd5b600080846001600160a01b0316866001600160a01b03161061072957848661072c565b85855b6001600160a01b038083166000908152600160209081526040808320848616845290915290205492945090925016156107a0576040805162461bcd60e51b81526020600482015260116024820152705a453a20454e455247595f45584953545360781b604482015290519081900360640190fd5b6060604051806020016107b290610d10565b601f1982820381018352601f90910116604052805190915061081b576040805162461bcd60e51b815260206004820181905260248201527f437265617465323a2062797465636f6465206c656e677468206973207a65726f604482015290519081900360640190fd5b6040805160608a811b6001600160601b031990811660208085019190915287831b821660348501529186901b1660488301528251808303603c018152605c9092019092528051908201208251909182919084016000f594506001600160a01b0385166108ca576040805162461bcd60e51b8152602060048201526019602482015278437265617465323a204661696c6564206f6e206465706c6f7960381b604482015290519081900360640190fd5b60006108d6858b610bbc565b905060006108e4858c610bbc565b905060006108f487878e8c610c5a565b9050600061090487898f8d610c5a565b9050886001600160a01b031663358764768e8a8a888888886040518863ffffffff1660e01b815260040180886001600160a01b03166001600160a01b03168152602001876001600160a01b03166001600160a01b03168152602001866001600160a01b03166001600160a01b03168152602001856001600160a01b03166001600160a01b03168152602001846001600160a01b03166001600160a01b03168152602001836001600160a01b03166001600160a01b03168152602001826001600160a01b03166001600160a01b03168152602001975050505050505050600060405180830381600087803b1580156109fa57600080fd5b505af1158015610a0e573d6000803e3d6000fd5b5050505088600160008a6001600160a01b03166001600160a01b031681526020019081526020016000206000896001600160a01b03166001600160a01b0316815260200190815260200160002060006101000a8154816001600160a01b0302191690836001600160a01b0316021790555060038990806001815401808255809150509060018203906000526020600020016000909192909190916101000a8154816001600160a01b0302191690836001600160a01b0316021790555050886001600160a01b03168d6001600160a01b03167f3b4e72e4103178db6cd2e27320e98d9afdd1ab6f078b707886d1bf92b9fd8b258a8a60028054905060405180846001600160a01b03166001600160a01b03168152602001836001600160a01b03166001600160a01b03168152602001828152602001935050505060405180910390a35050505050505050949350505050565b60028181548110610b6c57fe5b6000918252602090912001546001600160a01b0316905081565b60025490565b60038181548110610b6c57fe5b60006020818152928152604080822090935290815220546001600160a01b031681565b604080516001600160601b0319606094851b811660208084019190915293851b166034820152815160288183030181526048820183528051908401206001600160f81b031960688301523090941b6069820152607d8101939093527f54b32cbdca18a7fd47e1f58282859004237e368f9c1339eabf118516ac845689609d808501919091528151808503909101815260bd9093019052815191012090565b604080516001600160601b0319606096871b811660208084019190915295871b8116603483015293861b841660488201528151603c818303018152605c820183528051908601206001600160f81b0319607c8301529290951b909216607d85015260918401527f9f8b1a31c3eb853fb27a1e2744015983ada7f068bb8f7f95aa6886c04fa0fd7d60b1808501919091528151808503909101815260d19093019052815191012090565b610d3880610d1e83390190565b61097780611a568339019056fe608060405234801561001057600080fd5b50600980546001600160a01b03191633179055610d06806100326000396000f3fe608060405234801561001057600080fd5b50600436106100575760003560e01c80630269b9ca1461005c57806353097ea71461008b57806382c99e4614610095578063d538a2e7146100b2578063e77fc7a4146100ba575b600080fd5b6100796004803603602081101561007257600080fd5b503561010c565b60408051918252519081900360200190f35b61009361021b565b005b610079600480360360208110156100ab57600080fd5b5035610274565b61009361036f565b610093600480360360e08110156100d057600080fd5b506001600160a01b0381358116916020810135821691604082013581169160608101359091169060808101359060a08101359060c001356103be565b6007546008546000919066b1a2bc2ec500008381861161013e57610139868303600a63ffffffff61064c16565b610151565b610151828703600a63ffffffff61064c16565b905061015c816106b5565b669fdf42f6e4800086111580610179575066c3663566a580008610155b156101c85768015af1d78b58c400006101b982670de0b6b3a76400006101a5878363ffffffff61064c16565b816101ac57fe5b049063ffffffff61064c16565b816101c057fe5b049450610212565b61020f84670de0b6b3a76400006101fb60246101ef86846101a5878363ffffffff61064c16565b9063ffffffff61064c16565b8161020257fe5b049063ffffffff6106f916565b94505b50505050919050565b6001546001600160a01b0316331461026a576040805162461bcd60e51b815260206004820152600d60248201526c2d229d102737ba10283cb637b760991b604482015290519081900360640190fd5b610272610748565b565b600080546001600160a01b031633146102c4576040805162461bcd60e51b815260206004820152600d60248201526c2d229d102737ba10283cb637b760991b604482015290519081900360640190fd5b6005548211156102d6576005546102d8565b815b9050801561036a576001546040805163a9059cbb60e01b81523360048201526024810184905290516001600160a01b039092169163a9059cbb916044808201926020929091908290030181600087803b15801561033457600080fd5b505af1158015610348573d6000803e3d6000fd5b505050506040513d602081101561035e57600080fd5b50506005805482900390555b919050565b6000546001600160a01b0316331461026a576040805162461bcd60e51b815260206004820152600d60248201526c2d229d102737ba10283cb637b760991b604482015290519081900360640190fd5b6009546001600160a01b03163314610411576040805162461bcd60e51b81526020600482015260116024820152702d34b931b7b71d102327a92124a22222a760791b604482015290519081900360640190fd5b6000856001600160a01b0316876001600160a01b0316630dfe16816040518163ffffffff1660e01b815260040160206040518083038186803b15801561045657600080fd5b505afa15801561046a573d6000803e3d6000fd5b505050506040513d602081101561048057600080fd5b50516001600160a01b03161490506000808261049d5786886104a0565b87875b60408051610120810182526001600160a01b03808f168083528e8216602080850182905283881685870181905293871660608601819052608086018f9052600160a0870181905260c0870181905260e087018f90526101009096018d9052600080546001600160a01b03199081168617825587548116909417875560028054851690961790955560038054909316811790925560048e8155600586905560069590955560078d905560088c9055855163095ea7b360e01b81529485019290925260fd60248501529351959750939550919363095ea7b39360448084019491938390030190829087803b15801561059557600080fd5b505af11580156105a9573d6000803e3d6000fd5b505050506040513d60208110156105bf57600080fd5b50506040805163095ea7b360e01b81526001600160a01b038c8116600483015260fd60248301529151918b169163095ea7b3916044808201926020929091908290030181600087803b15801561061457600080fd5b505af1158015610628573d6000803e3d6000fd5b505050506040513d602081101561063e57600080fd5b505050505050505050505050565b60008115806106675750508082028282828161066457fe5b04145b6106af576040805162461bcd60e51b815260206004820152601460248201527364732d6d6174682d6d756c2d6f766572666c6f7760601b604482015290519081900360640190fd5b92915050565b6040805160248082018490528251808303909101815260449091019091526020810180516001600160e01b031663f5b1bba960e01b1790526106f690610a07565b50565b808201828110156106af576040805162461bcd60e51b815260206004820152601460248201527364732d6d6174682d6164642d6f766572666c6f7760601b604482015290519081900360640190fd5b600a54600154604080516370a0823160e01b815230600482015290516000936107d79390926001600160a01b03909116916370a0823191602480820192602092909190829003018186803b15801561079f57600080fd5b505afa1580156107b3573d6000803e3d6000fd5b505050506040513d60208110156107c957600080fd5b50519063ffffffff610a2816565b60015460008054604080516370a0823160e01b81526001600160a01b039283166004820152905194955091939216916370a0823191602480820192602092909190829003018186803b15801561082c57600080fd5b505afa158015610840573d6000803e3d6000fd5b505050506040513d602081101561085657600080fd5b5051600154604080516318160ddd60e01b815290519293506000926001600160a01b03909216916318160ddd91600480820192602092909190829003018186803b1580156108a357600080fd5b505afa1580156108b7573d6000803e3d6000fd5b505050506040513d60208110156108cd57600080fd5b505190506000816108e4848663ffffffff61064c16565b816108eb57fe5b0490506103e86109096000600401548361064c90919063ffffffff16565b8161091057fe5b600580549290910490910190556004546103e890610931908390830361064c565b8161093857fe5b6006805492909104909101905561094d610a78565b600061095f838563ffffffff6106f916565b905082610972868363ffffffff61064c16565b8161097957fe5b60068054929091049091019055600154604080516370a0823160e01b815230600482015290516001600160a01b03909216916370a0823191602480820192602092909190829003018186803b1580156109d157600080fd5b505afa1580156109e5573d6000803e3d6000fd5b505050506040513d60208110156109fb57600080fd5b5051600a555050505050565b80516a636f6e736f6c652e6c6f67602083016000808483855afa5050505050565b808203828111156106af576040805162461bcd60e51b815260206004820152601560248201527464732d6d6174682d7375622d756e646572666c6f7760581b604482015290519081900360640190fd5b60015460008054604080516370a0823160e01b81526001600160a01b0392831660048201529051929391909116916370a0823191602480820192602092909190829003018186803b158015610acc57600080fd5b505afa158015610ae0573d6000803e3d6000fd5b505050506040513d6020811015610af657600080fd5b50516005549091508110156106f6576005546001546000549183900391610b2a916001600160a01b03908116911683610b37565b6005805491909103905550565b604080518082018252601981527f7472616e7366657228616464726573732c75696e74323536290000000000000060209182015281516001600160a01b0385811660248301526044808301869052845180840390910181526064909201845291810180516001600160e01b031663a9059cbb60e01b1781529251815160009460609489169392918291908083835b60208310610be45780518252601f199092019160209182019101610bc5565b6001836020036101000a0380198251168184511680821785525050505050509050019150506000604051808303816000865af19150503d8060008114610c46576040519150601f19603f3d011682016040523d82523d6000602084013e610c4b565b606091505b5091509150818015610c79575080511580610c795750808060200190516020811015610c7657600080fd5b50515b610cca576040805162461bcd60e51b815260206004820152601d60248201527f5a6972636f6e2050796c6f6e3a205452414e534645525f4641494c4544000000604482015290519081900360640190fd5b505050505056fea265627a7a72315820466bc6b89cb45ed582e80a6d944c8e668cd4352769a4e656fe84f3143e7a7f0b64736f6c63430005100032608060405234801561001057600080fd5b506000805460ff19166001179055600280546001600160a01b031916331790556109388061003f6000396000f3fe608060405234801561001057600080fd5b506004361061004c5760003560e01c80633587647614610051578063bf047ead146100ab578063ca77ab65146100cf578063cd3293de146100d7575b600080fd5b6100a9600480360360e081101561006757600080fd5b506001600160a01b038135811691602081013582169160408201358116916060810135821691608082013581169160a081013582169160c090910135166100f1565b005b6100b3610295565b604080516001600160a01b039092168252519081900360200190f35b6100a96102a4565b6100df61065b565b60408051918252519081900360200190f35b6002546001600160a01b03163314610150576040805162461bcd60e51b815260206004820152601860248201527f5a45523a204e6f742070726f7065726c792063616c6c65640000000000000000604482015290519081900360640190fd5b6000866001600160a01b0316886001600160a01b0316630dfe16816040518163ffffffff1660e01b815260040160206040518083038186803b15801561019557600080fd5b505afa1580156101a9573d6000803e3d6000fd5b505050506040513d60208110156101bf57600080fd5b50516001600160a01b0316149050600080826101dc5788886101df565b88885b6040805160e0810182526001600160a01b039d8e16808252938e1660208201819052928e16918101829052998d1660608b01819052988d1660808b01819052978d1660a08b0181905296909c1660c0909901899052600380546001600160a01b031990811690931790556004805483169091179055600580548216909b17909a55505060068054891690941790935560078054881690921790915560088054871690911790555060098054909416179092555050565b6002546001600160a01b031681565b6003546001600160a01b031633146102f3576040805162461bcd60e51b815260206004820152600d60248201526c2d229d102737ba10283cb637b760991b604482015290519081900360640190fd5b60005460ff1661034a576040805162461bcd60e51b815260206004820152601f60248201527f5265656e7472616e637947756172643a207265656e7472616e742063616c6c00604482015290519081900360640190fd5b6000805460ff19168155600354604080516370a0823160e01b815230600482015290516001600160a01b03909216916370a0823191602480820192602092909190829003018186803b15801561039f57600080fd5b505afa1580156103b3573d6000803e3d6000fd5b505050506040513d60208110156103c957600080fd5b50516001549091508111610414576040805162461bcd60e51b815260206004820152600d60248201526c1691548e8814995d995c9d1959609a1b604482015290519081900360640190fd5b600354600854604080516370a0823160e01b81526001600160a01b039283166004820152905160009392909216916370a0823191602480820192602092909190829003018186803b15801561046857600080fd5b505afa15801561047c573d6000803e3d6000fd5b505050506040513d602081101561049257600080fd5b5051600354600954604080516370a0823160e01b81526001600160a01b039283166004820152905193945060009391909216916370a08231916024808301926020929190829003018186803b1580156104ea57600080fd5b505afa1580156104fe573d6000803e3d6000fd5b505050506040513d602081101561051457600080fd5b5051600354604080516318160ddd60e01b815290519293506000926001600160a01b03909216916318160ddd91600480820192602092909190829003018186803b15801561056157600080fd5b505afa158015610575573d6000803e3d6000fd5b505050506040513d602081101561058b57600080fd5b50516001549091506000906105a790869063ffffffff61066116565b90506000826105bc838763ffffffff6106b716565b816105c357fe5b0490506000836105d9848763ffffffff6106b716565b816105e057fe5b600354600654929091049250610603916001600160a01b0391821691168461071a565b600354600754610620916001600160a01b0390811691168361071a565b610640610633838363ffffffff6108b416565b889063ffffffff61066116565b60019081556000805460ff1916909117905550505050505050565b60015481565b808203828111156106b1576040805162461bcd60e51b815260206004820152601560248201527464732d6d6174682d7375622d756e646572666c6f7760581b604482015290519081900360640190fd5b92915050565b60008115806106d2575050808202828282816106cf57fe5b04145b6106b1576040805162461bcd60e51b815260206004820152601460248201527364732d6d6174682d6d756c2d6f766572666c6f7760601b604482015290519081900360640190fd5b604080518082018252601981527f7472616e7366657228616464726573732c75696e74323536290000000000000060209182015281516001600160a01b0385811660248301526044808301869052845180840390910181526064909201845291810180516001600160e01b031663a9059cbb60e01b1781529251815160009460609489169392918291908083835b602083106107c75780518252601f1990920191602091820191016107a8565b6001836020036101000a0380198251168184511680821785525050505050509050019150506000604051808303816000865af19150503d8060008114610829576040519150601f19603f3d011682016040523d82523d6000602084013e61082e565b606091505b509150915081801561085c57508051158061085c575080806020019051602081101561085957600080fd5b50515b6108ad576040805162461bcd60e51b815260206004820152601d60248201527f5a6972636f6e2050796c6f6e3a205452414e534645525f4641494c4544000000604482015290519081900360640190fd5b5050505050565b808201828110156106b1576040805162461bcd60e51b815260206004820152601460248201527364732d6d6174682d6164642d6f766572666c6f7760601b604482015290519081900360640190fdfea265627a7a723158207d1b166e74e65cea5f68f5f3c5156299c2662560e7d267fd480d87f5b5119b9464736f6c63430005100032a265627a7a7231582091d599a107691f0c0561ad6a2ab60c1339c98f538a6f3af740b25a69cf4bf42b64736f6c63430005100032",
  "devdoc": {
    "methods": {}
  },
  "userdoc": {
    "methods": {}
  },
  "storageLayout": {
    "storage": [
      {
        "astId": 6432,
        "contract": "contracts/energy/ZirconEnergyFactory.sol:ZirconEnergyFactory",
        "label": "getEnergy",
        "offset": 0,
        "slot": "0",
        "type": "t_mapping(t_address,t_mapping(t_address,t_address))"
      },
      {
        "astId": 6438,
        "contract": "contracts/energy/ZirconEnergyFactory.sol:ZirconEnergyFactory",
        "label": "getEnergyRevenue",
        "offset": 0,
        "slot": "1",
        "type": "t_mapping(t_address,t_mapping(t_address,t_address))"
      },
      {
        "astId": 6441,
        "contract": "contracts/energy/ZirconEnergyFactory.sol:ZirconEnergyFactory",
        "label": "allEnergies",
        "offset": 0,
        "slot": "2",
        "type": "t_array(t_address)dyn_storage"
      },
      {
        "astId": 6444,
        "contract": "contracts/energy/ZirconEnergyFactory.sol:ZirconEnergyFactory",
        "label": "allEnergiesRevenue",
        "offset": 0,
        "slot": "3",
        "type": "t_array(t_address)dyn_storage"
      },
      {
        "astId": 6458,
        "contract": "contracts/energy/ZirconEnergyFactory.sol:ZirconEnergyFactory",
        "label": "minPylonFee",
        "offset": 0,
        "slot": "4",
        "type": "t_uint256"
      },
      {
        "astId": 6460,
        "contract": "contracts/energy/ZirconEnergyFactory.sol:ZirconEnergyFactory",
        "label": "maxPylonFee",
        "offset": 0,
        "slot": "5",
        "type": "t_uint256"
      }
    ],
    "types": {
      "t_address": {
        "encoding": "inplace",
        "label": "address",
        "numberOfBytes": "20"
      },
      "t_array(t_address)dyn_storage": {
        "base": "t_address",
        "encoding": "dynamic_array",
        "label": "address[]",
        "numberOfBytes": "32"
      },
      "t_mapping(t_address,t_address)": {
        "encoding": "mapping",
        "key": "t_address",
        "label": "mapping(address => address)",
        "numberOfBytes": "32",
        "value": "t_address"
      },
      "t_mapping(t_address,t_mapping(t_address,t_address))": {
        "encoding": "mapping",
        "key": "t_address",
        "label": "mapping(address => mapping(address => address))",
        "numberOfBytes": "32",
        "value": "t_mapping(t_address,t_address)"
      },
      "t_uint256": {
        "encoding": "inplace",
        "label": "uint256",
        "numberOfBytes": "32"
      }
    }
  }
}