{
  "address": "0x19Da0E8b44374770Ce289F0117BD4e951250d025",
  "abi": [
    {
      "inputs": [
        {
          "internalType": "address",
          "name": "_factory",
          "type": "address"
        },
        {
          "internalType": "address",
          "name": "_energyFactory",
          "type": "address"
        }
      ],
      "payable": false,
      "stateMutability": "nonpayable",
      "type": "constructor"
    },
    {
      "anonymous": false,
      "inputs": [
        {
          "indexed": true,
          "internalType": "address",
          "name": "token0",
          "type": "address"
        },
        {
          "indexed": true,
          "internalType": "address",
          "name": "token1",
          "type": "address"
        },
        {
          "indexed": false,
          "internalType": "address",
          "name": "poolToken0",
          "type": "address"
        },
        {
          "indexed": false,
          "internalType": "address",
          "name": "poolToken1",
          "type": "address"
        },
        {
          "indexed": false,
          "internalType": "address",
          "name": "pylon",
          "type": "address"
        },
        {
          "indexed": false,
          "internalType": "address",
          "name": "pair",
          "type": "address"
        }
      ],
      "name": "PylonCreated",
      "type": "event"
    },
    {
      "constant": false,
      "inputs": [
        {
          "internalType": "address",
          "name": "_pairAddress",
          "type": "address"
        },
        {
          "internalType": "address",
          "name": "_tokenA",
          "type": "address"
        },
        {
          "internalType": "address",
          "name": "_tokenB",
          "type": "address"
        }
      ],
      "name": "addPylon",
      "outputs": [
        {
          "internalType": "address",
          "name": "pylonAddress",
          "type": "address"
        }
      ],
      "payable": false,
      "stateMutability": "nonpayable",
      "type": "function"
    },
    {
      "constant": true,
      "inputs": [
        {
          "internalType": "uint256",
          "name": "",
          "type": "uint256"
        }
      ],
      "name": "allPylons",
      "outputs": [
        {
          "internalType": "address",
          "name": "",
          "type": "address"
        }
      ],
      "payable": false,
      "stateMutability": "view",
      "type": "function"
    },
    {
      "constant": true,
      "inputs": [],
      "name": "allPylonsLength",
      "outputs": [
        {
          "internalType": "uint256",
          "name": "",
          "type": "uint256"
        }
      ],
      "payable": false,
      "stateMutability": "view",
      "type": "function"
    },
    {
      "constant": true,
      "inputs": [],
      "name": "dynamicFeePercentage",
      "outputs": [
        {
          "internalType": "uint256",
          "name": "",
          "type": "uint256"
        }
      ],
      "payable": false,
      "stateMutability": "view",
      "type": "function"
    },
    {
      "constant": true,
      "inputs": [],
      "name": "energyFactory",
      "outputs": [
        {
          "internalType": "address",
          "name": "",
          "type": "address"
        }
      ],
      "payable": false,
      "stateMutability": "view",
      "type": "function"
    },
    {
      "constant": true,
      "inputs": [],
      "name": "factory",
      "outputs": [
        {
          "internalType": "address",
          "name": "",
          "type": "address"
        }
      ],
      "payable": false,
      "stateMutability": "view",
      "type": "function"
    },
    {
      "constant": true,
      "inputs": [
        {
          "internalType": "address",
          "name": "",
          "type": "address"
        },
        {
          "internalType": "address",
          "name": "",
          "type": "address"
        }
      ],
      "name": "getPylon",
      "outputs": [
        {
          "internalType": "address",
          "name": "",
          "type": "address"
        }
      ],
      "payable": false,
      "stateMutability": "view",
      "type": "function"
    },
    {
      "constant": true,
      "inputs": [],
      "name": "maximumPercentageSync",
      "outputs": [
        {
          "internalType": "uint256",
          "name": "",
          "type": "uint256"
        }
      ],
      "payable": false,
      "stateMutability": "view",
      "type": "function"
    },
    {
      "constant": true,
      "inputs": [],
      "name": "pylonCodeHash",
      "outputs": [
        {
          "internalType": "bytes32",
          "name": "",
          "type": "bytes32"
        }
      ],
      "payable": false,
      "stateMutability": "pure",
      "type": "function"
    }
  ],
  "transactionHash": "0xb0280b5b3b7d40891723947a99389e7750a7c15e52d847ba6001ec41aae38ab6",
  "args": [
    "0xF78a75304f405B7d84B00Ce990E62113c77582d1",
    "0xE2B6b71DBB0E7eAF2a28C489aB7407048aa3Cb7b"
  ],
  "numDeployments": 1,
  "solcInputHash": "f5757409255e89383e38186cfee50eb5",
  "bytecode": "0x608060405234801561001057600080fd5b50604051615d48380380615d488339818101604052604081101561003357600080fd5b508051602090910151600280546001600160a01b039384166001600160a01b03199182161790915560038054939092169216919091179055600a60045560058055615cc5806100836000396000f3fe608060405234801561001057600080fd5b50600436106100a35760003560e01c806379281abe11610076578063a3ad52b81161005b578063a3ad52b81461015c578063afc3743f14610164578063c45a015514610181576100a3565b806379281abe1461011c578063966545e814610154576100a3565b80630e0f2973146100a857806317d1ff9f146100f25780636c0fb018146100fa57806379186af014610114575b600080fd5b6100d6600480360360408110156100be57600080fd5b506001600160a01b0381358116916020013516610189565b604080516001600160a01b039092168252519081900360200190f35b6100d66101ac565b6101026101bb565b60408051918252519081900360200190f35b6101026101c1565b6100d66004803603606081101561013257600080fd5b506001600160a01b0381358116916020810135821691604090910135166101c7565b610102610574565b6101026105a6565b6100d66004803603602081101561017a57600080fd5b50356105ac565b6100d66105d3565b60006020818152928152604080822090935290815220546001600160a01b031681565b6003546001600160a01b031681565b60015490565b60055481565b6000816001600160a01b0316836001600160a01b03161415610230576040805162461bcd60e51b815260206004820152601760248201527f5a463a204944454e544943414c5f414444524553534553000000000000000000604482015290519081900360640190fd5b6001600160a01b03838116600090815260208181526040808320868516845290915290205416156102a8576040805162461bcd60e51b815260206004820152601060248201527f5a463a2050594c4f4e5f45584953545300000000000000000000000000000000604482015290519081900360640190fd5b6102b38383866105e2565b905060006102c18483610671565b905060006102cf8484610671565b905060006102df8488888861070b565b600254604080517f358764760000000000000000000000000000000000000000000000000000000081526001600160a01b03878116600483015286811660248301528a8116604483015289811660648301528b8116608483015292831660a482015282841660c482015290519293509086169163358764769160e48082019260009290919082900301818387803b15801561037957600080fd5b505af115801561038d573d6000803e3d6000fd5b505060408051633fb3e5cd60e21b81526001600160a01b038a811660048301528b8116602483015288811660448301526000606483018190529251908816945063fecf973493506084808301939282900301818387803b1580156103f057600080fd5b505af1158015610404573d6000803e3d6000fd5b505060408051633fb3e5cd60e21b81526001600160a01b0389811660048301528b811660248301528881166044830152600160648301529151918616935063fecf9734925060848082019260009290919082900301818387803b15801561046a57600080fd5b505af115801561047e573d6000803e3d6000fd5b5050604080516001600160a01b0387811682528681166020830152888116828401528b811660608301529151828a169450918a1692507fab83557b3a718996d408afe08287d09bafed3590c7ae61a430d518d3199d4590919081900360800190a35050506001600160a01b03928316600090815260208181526040808320948616835293905291822080549382167fffffffffffffffffffffffff0000000000000000000000000000000000000000948516811790915560018054808201825593527fb10e2d527612073b26eecdfd717e6a320cf44b4afac2b0732d9fcbe2b7fa0cf69092018054909316909117909155919050565b600060405180602001610586906107c3565b6020820181038252601f19601f8201166040525080519060200120905090565b60045481565b600181815481106105b957fe5b6000918252602090912001546001600160a01b0316905081565b6002546001600160a01b031681565b60006060604051806020016105f6906107c3565b601f1982820381018352601f9091011660408181526bffffffffffffffffffffffff19606089811b821660208581019190915289821b831660348601529088901b90911660488401528151603c818503018152605c909301909152815191810191909120825192935091829184016000f59695505050505050565b6000606060405180602001610685906107d0565b6020820181038252601f19601f8201166040525090506000848460405160200180836001600160a01b03166001600160a01b031660601b8152601401826001600160a01b03166001600160a01b031660601b815260140192505050604051602081830303815290604052805190602001209050808251602084016000f595945050505050565b600354604080517f9172e7840000000000000000000000000000000000000000000000000000000081526001600160a01b03878116600483015286811660248301528581166044830152848116606483015291516000939290921691639172e7849160848082019260209290919082900301818787803b15801561078e57600080fd5b505af11580156107a2573d6000803e3d6000fd5b505050506040513d60208110156107b857600080fd5b505195945050505050565b614504806107de83390190565b610faf80614ce28339019056fe6080604052662386f26fc10000601155600060125534801561002057600080fd5b506000805460ff19166001179055600480546001600160a01b031916331790556144b58061004f6000396000f3fe608060405234801561001057600080fd5b50600436106101a35760003560e01c80638ffa3236116100ee578063a8b0898211610097578063ba9a7a5611610071578063ba9a7a56146103d2578063c561cf4f146103da578063e845d4e514610421578063f29401c414610429576101a3565b8063a8b089821461036e578063ac9370f314610376578063ba7b3dea146103a4576101a3565b80639892c7f1116100c85780639892c7f1146103565780639ab9f3411461035e578063a3ad52b814610366576101a3565b80638ffa32361461032a578063966dae0e1461034657806397ed64db1461034e576101a3565b806333cdde4e1161015057806379186af01161012a57806379186af0146102ec57806387d9b853146102f45780638d470e22146102fc576101a3565b806333cdde4e146102365780633587647614610264578063402d82c1146102be576101a3565b8063158ef93e11610181578063158ef93e1461020c578063192b65d81461022657806322e489a41461022e576101a3565b806306e53aec146101a857806308acbe82146101cc5780630a22d5f3146101d4575b600080fd5b6101b061044f565b604080516001600160a01b039092168252519081900360200190f35b6101b061045e565b6101dc61046d565b604080516001600160701b03948516815292909316602083015263ffffffff168183015290519081900360600190f35b610214610497565b60408051918252519081900360200190f35b61021461049d565b6101b06104a3565b6102146004803603604081101561024c57600080fd5b506001600160a01b03813516906020013515156104b2565b6102bc600480360360e081101561027a57600080fd5b506001600160a01b038135811691602081013582169160408201358116916060810135821691608082013581169160a081013582169160c090910135166108ed565b005b6102c6610c2e565b604080516001600160a01b03938416815291909216602082015281519081900390910190f35b610214610c44565b610214610c4a565b6102146004803603604081101561031257600080fd5b506001600160a01b0381351690602001351515610c50565b610332610efa565b604080519115158252519081900360200190f35b6101b0610f0a565b610214610f19565b6101b0610f1f565b610214610f2e565b610214610f34565b6101b0610f3a565b6102146004803603604081101561038c57600080fd5b506001600160a01b0381351690602001351515610f49565b610214600480360360408110156103ba57600080fd5b506001600160a01b03813516906020013515156113f4565b610214611862565b610408600480360360408110156103f057600080fd5b506001600160a01b0381351690602001351515611868565b6040805192835260208301919091528051918290030190f35b610214611d7c565b6104086004803603602081101561043f57600080fd5b50356001600160a01b0316611d82565b6006546001600160a01b031681565b6008546001600160a01b031681565b6010546001600160701b0380821692600160701b830490911691600160e01b900463ffffffff1690565b60125481565b60095481565b6007546001600160a01b031681565b6000805460ff1661050a576040805162461bcd60e51b815260206004820152601f60248201527f5265656e7472616e637947756172643a207265656e7472616e742063616c6c00604482015290519081900360640190fd5b6000805460ff19169055601254600114610561576040805162461bcd60e51b815260206004820152601360248201527216940e881393d5081253925512505312569151606a1b604482015290519081900360640190fd5b610569612121565b600082610581576006546001600160a01b031661058e565b6007546001600160a01b03165b905060008061059b61046d565b50600154604080516370a0823160e01b81523060048201529051939550919350600092839283926001600160a01b0316916370a0823191602480820192602092909190829003018186803b1580156105f257600080fd5b505afa158015610606573d6000803e3d6000fd5b505050506040513d602081101561061c57600080fd5b5051600254604080516370a0823160e01b815230600482015290519293506000926001600160a01b03909216916370a0823191602480820192602092909190829003018186803b15801561066f57600080fd5b505afa158015610683573d6000803e3d6000fd5b505050506040513d602081101561069957600080fd5b505190506106b6826001600160701b03881663ffffffff6124be16565b93506106d1816001600160701b03871663ffffffff6124be16565b92506106de84600061251c565b93506106eb83600161251c565b92506000806106fc86868d8c6126ad565b915091508199508a1561071657600980548201905561071f565b600a8054820190555b505050506000811180156107335750600082115b61076e5760405162461bcd60e51b81526004018080602001828103825260218152602001806143ca6021913960400191505060405180910390fd5b60015460035461078b916001600160a01b039081169116846128a9565b6002546003546107a8916001600160a01b039081169116836128a9565b600354604080516335313c2160e11b815230600482015290516001600160a01b0390921691636a627842916024808201926020929091908290030181600087803b1580156107f557600080fd5b505af1158015610809573d6000803e3d6000fd5b505050506040513d602081101561081f57600080fd5b5050604080516340c10f1960e01b81526001600160a01b038a81166004830152602482018990529151918716916340c10f199160448082019260009290919082900301818387803b15801561087357600080fd5b505af1158015610887573d6000803e3d6000fd5b5050604080513381526020810186905280820185905290517f9a36e9f82fd3ab4ec26a87598c0f7f4519b7895fa6a0bca1968b486ee019b0829350908190036060019150a16108d4612a55565b50506000805460ff191660011790555091949350505050565b60005460ff16610944576040805162461bcd60e51b815260206004820152601f60248201527f5265656e7472616e637947756172643a207265656e7472616e742063616c6c00604482015290519081900360640190fd5b6000805460ff191690556004546001600160a01b031633146109ad576040805162461bcd60e51b815260206004820152601160248201527f5a6972636f6e3a20464f5242494444454e000000000000000000000000000000604482015290519081900360640190fd5b600680546001600160a01b03808a1673ffffffffffffffffffffffffffffffffffffffff19928316179092556007805489841690831617905560038054868416921682179055604080517f0dfe1681000000000000000000000000000000000000000000000000000000008152905192881692630dfe168191600481810192602092909190829003018186803b158015610a4657600080fd5b505afa158015610a5a573d6000803e3d6000fd5b505050506040513d6020811015610a7057600080fd5b5051600880546040805180820182526001600160a01b038b81168083528b821660209384018190526001805473ffffffffffffffffffffffffffffffffffffffff19908116909317905560028054831690911790556005805482168b84161790557fffffffffffffffffffffff00ffffffffffffffffffffffffffffffffffffffff90941695811696909614600160a01b0294909417909116858516179091556004805482517fa3ad52b8000000000000000000000000000000000000000000000000000000008152925194169363a3ad52b89383830193909290829003018186803b158015610b5f57600080fd5b505afa158015610b73573d6000803e3d6000fd5b505050506040513d6020811015610b8957600080fd5b5051600b5560048054604080517f79186af000000000000000000000000000000000000000000000000000000000815290516001600160a01b03909216926379186af0928282019260209290829003018186803b158015610be957600080fd5b505afa158015610bfd573d6000803e3d6000fd5b505050506040513d6020811015610c1357600080fd5b5051600c5550506000805460ff191660011790555050505050565b6001546002546001600160a01b03918216911682565b600c5481565b600e5481565b6000601254600114610c9f576040805162461bcd60e51b815260206004820152601360248201527216940e881393d5081253925512505312569151606a1b604482015290519081900360640190fd5b60005460ff16610cf6576040805162461bcd60e51b815260206004820152601f60248201527f5265656e7472616e637947756172643a207265656e7472616e742063616c6c00604482015290519081900360640190fd5b6000805460ff19169055610d08612121565b600080610d1361046d565b5091509150600080610d26600080612b21565b915091506000808715610dfa57600254604080516370a0823160e01b815230600482015290516000926001600160a01b0316916370a08231916024808301926020929190829003018186803b158015610d7e57600080fd5b505afa158015610d92573d6000803e3d6000fd5b505050506040513d6020811015610da857600080fd5b50519050610dc5816001600160701b03881663ffffffff6124be16565b600754909350610dee9084906001600160701b0389169087906001600160a01b03168e8e612b66565b9098509150610ebc9050565b600154604080516370a0823160e01b815230600482015290516000926001600160a01b0316916370a08231916024808301926020929190829003018186803b158015610e4557600080fd5b505afa158015610e59573d6000803e3d6000fd5b505050506040513d6020811015610e6f57600080fd5b50519050610e8c816001600160701b03891663ffffffff6124be16565b600654909350610eb59084906001600160701b038a169088906001600160a01b03168e8e612b66565b9098509150505b8715610ecf576009805482019055610ed8565b600a8054820190555b610ee0612dea565b50506000805460ff19166001179055509295945050505050565b600854600160a01b900460ff1681565b6004546001600160a01b031681565b600d5481565b6005546001600160a01b031681565b600a5481565b600b5481565b6003546001600160a01b031681565b6000805460ff16610fa1576040805162461bcd60e51b815260206004820152601f60248201527f5265656e7472616e637947756172643a207265656e7472616e742063616c6c00604482015290519081900360640190fd5b6000805460ff19169055601254600114610ff8576040805162461bcd60e51b815260206004820152601360248201527216940e881393d5081253925512505312569151606a1b604482015290519081900360640190fd5b611000612121565b60008061100b61046d565b5091509150600084156110b257600254604080516370a0823160e01b815230600482015290516000926001600160a01b0316916370a08231916024808301926020929190829003018186803b15801561106357600080fd5b505afa158015611077573d6000803e3d6000fd5b505050506040513d602081101561108d57600080fd5b505190506110aa816001600160701b03851663ffffffff6124be16565b915050611148565b600154604080516370a0823160e01b815230600482015290516000926001600160a01b0316916370a08231916024808301926020929190829003018186803b1580156110fd57600080fd5b505afa158015611111573d6000803e3d6000fd5b505050506040513d602081101561112757600080fd5b50519050611144816001600160701b03861663ffffffff6124be16565b9150505b611152818661251c565b9050600081116111a9576040805162461bcd60e51b815260206004820152601760248201527f5a503a20494e53554646494349454e545f414d4f554e54000000000000000000604482015290519081900360640190fd5b6111e1856111c2576001546001600160a01b03166111cf565b6002546001600160a01b03165b6003546001600160a01b0316836128a9565b6000806111ee83886130a6565b9150915060008061122384848b8c611211576006546001600160a01b031661121e565b6007546001600160a01b03165b6126ad565b91509150819750881561123d576009805482019055611246565b600a8054820190555b6003546008546001600160a01b039091169063432275e6903090600160a01b900460ff16611274578b611277565b8b155b6040518363ffffffff1660e01b815260040180836001600160a01b03166001600160a01b031681526020018215151515815260200192505050606060405180830381600087803b1580156112ca57600080fd5b505af11580156112de573d6000803e3d6000fd5b505050506040513d60608110156112f457600080fd5b5089905061130d576006546001600160a01b031661131a565b6007546001600160a01b03165b6001600160a01b03166340c10f198b8a6040518363ffffffff1660e01b815260040180836001600160a01b03166001600160a01b0316815260200182815260200192505050600060405180830381600087803b15801561137957600080fd5b505af115801561138d573d6000803e3d6000fd5b505050505050505061139d612a55565b60408051338152602081018390528615158183015290517f1889e9c3cb9a926b5ab9da8b1f34e8883f1c84e43a61525a2551c32d779213279181900360600190a150506000805460ff191660011790555092915050565b6000805460ff1661144c576040805162461bcd60e51b815260206004820152601f60248201527f5265656e7472616e637947756172643a207265656e7472616e742063616c6c00604482015290519081900360640190fd5b6000805460ff191690556012546001146114a3576040805162461bcd60e51b815260206004820152601360248201527216940e881393d5081253925512505312569151606a1b604482015290519081900360640190fd5b6114ab612121565b6000826114c3576006546001600160a01b03166114d0565b6007546001600160a01b03165b604080516370a0823160e01b815230600482015290519192506000916001600160a01b038416916370a08231916024808301926020929190829003018186803b15801561151c57600080fd5b505afa158015611530573d6000803e3d6000fd5b505050506040513d602081101561154657600080fd5b505190508061159c576040805162461bcd60e51b815260206004820152601660248201527f494e53554646494349454e545f4c495155494449545900000000000000000000604482015290519081900360640190fd5b6000826001600160a01b03166318160ddd6040518163ffffffff1660e01b815260040160206040518083038186803b1580156115d757600080fd5b505afa1580156115eb573d6000803e3d6000fd5b505050506040513d602081101561160157600080fd5b5051600354909150869086906001600160a01b0316600080611624848789613123565b91509150611632818561251c565b98506116618461164d576001546001600160a01b031661165a565b6002546001600160a01b03165b868b6128a9565b8682101561178d57600061167b888463ffffffff6124be16565b9050600061168a86838a6131c3565b90506116958161342b565b9050600086156116ae576116a882613510565b90925090505b6116b98687846128a9565b600854600090600160a01b900460ff166116d357876116d6565b87155b604080516302ce510960e41b81526001600160a01b038c8116600483015283151560248301529151929350600092918a1691632ce510909160448082019260209290919082900301818787803b15801561172f57600080fd5b505af1158015611743573d6000803e3d6000fd5b505050506040513d602081101561175957600080fd5b50519d8e019d905061178782611770576000611772565b815b8361177d5782611780565b60005b858d6135d5565b50505050505b60408051632770a7eb60e21b81523060048201526024810189905290516001600160a01b038a1691639dc29fac91604480830192600092919082900301818387803b1580156117db57600080fd5b505af11580156117ef573d6000803e3d6000fd5b50505050505050505061180382828761371a565b61180b612dea565b60408051338152602081018690528615158183015290517f5cf7281eb36e25a92ffd0cff3089777ca0cb41d28e8c7158c234b1eae9a07ed29181900360600190a150506000805460ff191660011790555092915050565b6103e881565b60008054819060ff166118c2576040805162461bcd60e51b815260206004820152601f60248201527f5265656e7472616e637947756172643a207265656e7472616e742063616c6c00604482015290519081900360640190fd5b6000805460ff19169055601254600114611919576040805162461bcd60e51b815260206004820152601360248201527216940e881393d5081253925512505312569151606a1b604482015290519081900360640190fd5b611921612121565b600083611939576006546001600160a01b0316611946565b6007546001600160a01b03165b604080516370a0823160e01b815230600482015290519192506000916001600160a01b038416916370a08231916024808301926020929190829003018186803b15801561199257600080fd5b505afa1580156119a6573d6000803e3d6000fd5b505050506040513d60208110156119bc57600080fd5b50519050806119fc5760405162461bcd60e51b81526004018080602001828103825260218152602001806143a96021913960400191505060405180910390fd5b6000826001600160a01b03166318160ddd6040518163ffffffff1660e01b815260040160206040518083038186803b158015611a3757600080fd5b505afa158015611a4b573d6000803e3d6000fd5b505050506040513d6020811015611a6157600080fd5b5051905060008080611a7161046d565b506001600160701b031691506001600160701b031691506000611a95600080612b21565b50905060008a611b0557611ae684670de0b6b3a7640000611ad2600d54611ac660028861377d90919063ffffffff16565b9063ffffffff61377d16565b81611ad957fe5b049063ffffffff6137e916565b611af6878663ffffffff61377d16565b81611afd57fe5b048603611b23565b600954611b18878563ffffffff61377d16565b81611b1f57fe5b0486035b9050808710611b79576040805162461bcd60e51b815260206004820152601d60248201527f5a503a204578636565646564204275726e204173796e63206c696d6974000000604482015290519081900360640190fd5b506000611b878b88886131c3565b9050611b928161342b565b90508a15611ba857611ba381613510565b955090505b600354611bbf906001600160a01b031680836128a9565b5050600354604080517f89afcb440000000000000000000000000000000000000000000000000000000081526001600160a01b038d811660048301528251600096508695509316926389afcb449260248084019391929182900301818787803b158015611c2b57600080fd5b505af1158015611c3f573d6000803e3d6000fd5b505050506040513d6040811015611c5557600080fd5b5080516020909101516008549193509150600160a01b900460ff16611c7a5780611c7c565b815b600854909850600160a01b900460ff16611c965781611c98565b805b9650611ca68888858d6135d5565b60408051632770a7eb60e21b81523060048201526024810187905290516001600160a01b03881691639dc29fac91604480830192600092919082900301818387803b158015611cf457600080fd5b505af1158015611d08573d6000803e3d6000fd5b50505050611d1785858b61371a565b611d1f612dea565b60408051338152602081018a905280820189905290517fb83dbb1f0386f1b6d6f534f325d617e3f96f2971cca29021702094328c1cb70c9181900360600190a150506000805460ff19166001179055509396929550919350505050565b600f5481565b60008054819060ff16611ddc576040805162461bcd60e51b815260206004820152601f60248201527f5265656e7472616e637947756172643a207265656e7472616e742063616c6c00604482015290519081900360640190fd5b6000805460ff1916905560125415611e3b576040805162461bcd60e51b815260206004820152601360248201527f416c726561647920496e697469616c697a656400000000000000000000000000604482015290519081900360640190fd5b600154604080516370a0823160e01b815230600482015290516000926001600160a01b0316916370a08231916024808301926020929190829003018186803b158015611e8657600080fd5b505afa158015611e9a573d6000803e3d6000fd5b505050506040513d6020811015611eb057600080fd5b5051600254604080516370a0823160e01b815230600482015290519293506000926001600160a01b03909216916370a0823191602480820192602092909190829003018186803b158015611f0357600080fd5b505afa158015611f17573d6000803e3d6000fd5b505050506040513d6020811015611f2d57600080fd5b505190508115801590611f405750600081115b611f91576040805162461bcd60e51b815260206004820152601860248201527f5a503a204e6f7420656e6f756768206c69717569646974790000000000000000604482015290519081900360640190fd5b600080611f9c613841565b91509150611fd1612710611fbb600c548761377d90919063ffffffff16565b81611fc257fe5b8691900463ffffffff6124be16565b600a55600c546120069061271090611ff090869063ffffffff61377d16565b81611ff757fe5b8591900463ffffffff6124be16565b6009556001600160701b0382161580159061202a57506000816001600160701b0316115b15612096576000816001600160701b0316612059846001600160701b031660095461377d90919063ffffffff16565b8161206057fe5b04905061207881600a546137e990919063ffffffff16565b600a54670de0b6b3a7640000028161208c57fe5b04600d55506120a3565b6706f05b59d3b20000600d555b6007546120cb9084906000906001600160701b038516906001600160a01b03168b6001612b66565b506006549095506120f69085906000906001600160701b038616906001600160a01b03168b83612b66565b509550612101612dea565b5050600160128190556000805460ff191690911790555091939092509050565b6003546001600160a01b0316331461219c57600360009054906101000a90046001600160a01b03166001600160a01b03166311816b046040518163ffffffff1660e01b8152600401600060405180830381600087803b15801561218357600080fd5b505af1158015612197573d6000803e3d6000fd5b505050505b6000806121a7613841565b915091506000806121b661046d565b50909250905060006121da6001600160701b0386811690861663ffffffff61377d16565b9050600f546000141580156121f757506001600160701b03851615155b801561220b57506001600160701b03841615155b156124b757600354604080516318160ddd60e01b815290516000926001600160a01b0316916318160ddd916004808301926020929190829003018186803b15801561225557600080fd5b505afa158015612269573d6000803e3d6000fd5b505050506040513d602081101561227f57600080fd5b5051905060006122a96122a26001600160701b038816600263ffffffff61377d16565b600061390a565b905060006122ca6122a26001600160701b038a16600263ffffffff61377d16565b90506000670de0b6b3a764000090506000612318600f546122ea88613a37565b02866122f7600e54613a37565b02670de0b6b3a7640000028161230957fe5b8491900463ffffffff6124be16565b90506000670de0b6b3a7640000612335868463ffffffff61377d16565b8161233c57fe5b0490506000670de0b6b3a764000061235a868563ffffffff61377d16565b8161236157fe5b049050670de0b6b3a764000061238c600d54670de0b6b3a7640000038461377d90919063ffffffff16565b8161239357fe5b60098054929091049091019055600d54670de0b6b3a7640000906123b7908361377d565b816123be57fe5b600a805492909104909101905560095460028704906123ec906001600160701b038c1663ffffffff6124be16565b1015612434576009548690612410906001600160701b038c1663ffffffff6124be16565b670de0b6b3a7640000028161242157fe5b04670de0b6b3a764000003600d55612468565b600a548590612452906001600160701b038d1663ffffffff6124be16565b670de0b6b3a7640000028161246357fe5b04600d555b600954600a54600d5460408051938452602084019290925282820152517f54964c70825f65946c2e16cd62d98784e0536cf3d54b15ce1845f37f325945d29181900360600190a1505050505050505b5050505050565b80820382811115612516576040805162461bcd60e51b815260206004820152601560248201527f64732d6d6174682d7375622d756e646572666c6f770000000000000000000000604482015290519081900360640190fd5b92915050565b600080612710612537600c548661377d90919063ffffffff16565b8161253e57fe5b049050821561256957600254600854612564916001600160a01b039081169116836128a9565b612695565b600154600354612586916001600160a01b039081169116836128a9565b600080612591613841565b9150915060006125b484846001600160701b0316846001600160701b0316613a89565b6003546008549192506001600160a01b03169063022c0d9f90600160a01b900460ff166125e157826125e4565b60005b600854600160a01b900460ff166125fc5760006125fe565b835b600854604080517fffffffff0000000000000000000000000000000000000000000000000000000060e087901b168152600481019490945260248401929092526001600160a01b0316604483015260806064830152600060848301819052905160c48084019382900301818387803b15801561267957600080fd5b505af115801561268d573d6000803e3d6000fd5b505050505050505b6126a5848263ffffffff6124be16565b949350505050565b6000806000806126bb613841565b915091506000806126ca61046d565b509150915087156127bd57612721846001600160701b03166127036002611ac6876001600160701b03168f61377d90919063ffffffff16565b8161270a57fe5b0461271c8b600263ffffffff61377d16565b613b79565b94506127b68886896001600160a01b03166318160ddd6040518163ffffffff1660e01b815260040160206040518083038186803b15801561276157600080fd5b505afa158015612775573d6000803e3d6000fd5b505050506040513d602081101561278b57600080fd5b50516127a16001600160701b038816600061390a565b856001600160701b0316600d54600954613b8f565b955061289c565b612804836001600160701b03166127eb6002611ac6886001600160701b03168e61377d90919063ffffffff16565b816127f257fe5b0461271c8c600263ffffffff61377d16565b94506128998886896001600160a01b03166318160ddd6040518163ffffffff1660e01b815260040160206040518083038186803b15801561284457600080fd5b505afa158015612858573d6000803e3d6000fd5b505050506040513d602081101561286e57600080fd5b50516128846001600160701b038916600061390a565b866001600160701b0316600d54600954613b8f565b95505b5050505094509492505050565b604080518082018252601981527f7472616e7366657228616464726573732c75696e74323536290000000000000060209182015281516001600160a01b0385811660248301526044808301869052845180840390910181526064909201845291810180516001600160e01b03167fa9059cbb000000000000000000000000000000000000000000000000000000001781529251815160009460609489169392918291908083835b6020831061296f5780518252601f199092019160209182019101612950565b6001836020036101000a0380198251168184511680821785525050505050509050019150506000604051808303816000865af19150503d80600081146129d1576040519150601f19603f3d011682016040523d82523d6000602084013e6129d6565b606091505b5091509150818015612a04575080511580612a045750808060200190516020811015612a0157600080fd5b50515b6124b7576040805162461bcd60e51b815260206004820152601d60248201527f5a6972636f6e2050796c6f6e3a205452414e534645525f4641494c4544000000604482015290519081900360640190fd5b600080612a60613841565b91509150600360009054906101000a90046001600160a01b03166001600160a01b03166318160ddd6040518163ffffffff1660e01b815260040160206040518083038186803b158015612ab257600080fd5b505afa158015612ac6573d6000803e3d6000fd5b505050506040513d6020811015612adc57600080fd5b5051600f55612afd6001600160701b0383811690831663ffffffff61377d16565b600e555050601080546001600160e01b0316600160e01b4263ffffffff1602179055565b600080600080612b2f613841565b91509150612b46826001600160701b03168761390a565b9350612b5b816001600160701b03168661390a565b925050509250929050565b60008060008811612bbe576040805162461bcd60e51b815260206004820152601860248201527f5a503a204e6f7420456e6f756768204c69717569646974790000000000000000604482015290519081900360640190fd5b6000856001600160a01b03166318160ddd6040518163ffffffff1660e01b815260040160206040518083038186803b158015612bf957600080fd5b505afa158015612c0d573d6000803e3d6000fd5b505050506040513d6020811015612c2357600080fd5b5051600d546009549192509082612d0457604080516340c10f1960e01b81526000600482018190526103e8602483015291516001600160a01b038b16926340c10f19926044808201939182900301818387803b158015612c8257600080fd5b505af1158015612c96573d6000803e3d6000fd5b505050508515612cb957612cb28b6103e863ffffffff6124be16565b9450612cff565b612cfc6103e8612cd084600263ffffffff61377d16565b612ce88e670de0b6b3a764000063ffffffff61377d16565b81612cef57fe5b049063ffffffff6124be16565b94505b612d22565b612d0e8b8761251c565b9350612d1f8685858c8e8787613b8f565b94505b5050856001600160a01b03166340c10f1986856040518363ffffffff1660e01b815260040180836001600160a01b03166001600160a01b0316815260200182815260200192505050600060405180830381600087803b158015612d8457600080fd5b505af1158015612d98573d6000803e3d6000fd5b505060408051338152602081018690528715158183015290517f19d363807bf5ba06f3320318d009a9851c28f799660016f386c9960478c46ea29350908190036060019150a150965096945050505050565b600154604080516370a0823160e01b815230600482015290516000926001600160a01b0316916370a08231916024808301926020929190829003018186803b158015612e3557600080fd5b505afa158015612e49573d6000803e3d6000fd5b505050506040513d6020811015612e5f57600080fd5b5051600254604080516370a0823160e01b815230600482015290519293506000926001600160a01b03909216916370a0823191602480820192602092909190829003018186803b158015612eb257600080fd5b505afa158015612ec6573d6000803e3d6000fd5b505050506040513d6020811015612edc57600080fd5b50519050600080612eed8484612b21565b9150915060006064612f0a600b548561377d90919063ffffffff16565b81612f1157fe5b04905060006064612f2d600b548561377d90919063ffffffff16565b81612f3457fe5b04905060026001600160701b038316046001600160701b031686118015612f6f575060026001600160701b038216046001600160701b031685115b1561308a57600080612fbd8686612fa460026001600160701b0389165b8d916001600160701b0391041663ffffffff6124be16565b612fb860026001600160701b038916612f8c565b613c24565b9150915081600014612fe657600154600354612fe6916001600160a01b039081169116846128a9565b801561300957600254600354613009916001600160a01b039081169116836128a9565b600354604080516335313c2160e11b815230600482015290516001600160a01b0390921691636a627842916024808201926020929091908290030181600087803b15801561305657600080fd5b505af115801561306a573d6000803e3d6000fd5b505050506040513d602081101561308057600080fd5b5050960395909403935b61309686868484613c7f565b61309e612a55565b505050505050565b6000806000806130b4613841565b9150915084156130e3576130de60028704826001600160701b0316846001600160701b0316613a89565b6130e8565b600286045b9350846131145761310f60028704836001600160701b0316836001600160701b0316613a89565b612b5b565b60028604925050509250929050565b600d546009546000918291826131398180612b21565b50905060008061314761046d565b509150915060008a613159578261315b565b815b6001600160701b0316905060008b6131735784613187565b601054600160701b90046001600160701b03165b90506131988c838d84868c8c613b8f565b98506131b28c6131a88b8d613b79565b8d84868c8c613f3e565b975050505050505050935093915050565b60008060006131d3600180612b21565b915091506000806131e261046d565b5091509150600088156132f75761320084600263ffffffff61377d16565b6009546132a390613220906001600160701b03861663ffffffff6124be16565b600354604080516370a0823160e01b815230600482015290516001600160a01b03909216916370a0823191602480820192602092909190829003018186803b15801561326b57600080fd5b505afa15801561327f573d6000803e3d6000fd5b505050506040513d602081101561329557600080fd5b50519063ffffffff61377d16565b816132aa57fe5b0490506132f06132c185600263ffffffff61377d16565b6132da836001600160701b03861663ffffffff61377d16565b816132e157fe5b8391900463ffffffff6137e916565b90506133c5565b600354604080516370a0823160e01b81523060048201529051670de0b6b3a76400009261338b926001600160a01b03909116916370a0823191602480820192602092909190829003018186803b15801561335057600080fd5b505afa158015613364573d6000803e3d6000fd5b505050506040513d602081101561337a57600080fd5b5051600d549063ffffffff61377d16565b8161339257fe5b0490506133c26133a986600263ffffffff61377d16565b6132da836001600160701b03871663ffffffff61377d16565b90505b866133d6898363ffffffff61377d16565b816133dd57fe5b0495506000861161341f5760405162461bcd60e51b81526004018080602001828103825260218152602001806144356021913960400191505060405180910390fd5b50505050509392505050565b600080612710613446600c548561377d90919063ffffffff16565b8161344d57fe5b6003549190049150613469906001600160a01b031680836128a9565b600354600854604080516302ce510960e41b81526001600160a01b038084166004830152600160a01b90930460ff1615602482015290519190921691632ce510909160448083019260209291908290030181600087803b1580156134cc57600080fd5b505af11580156134e0573d6000803e3d6000fd5b505050506040513d60208110156134f657600080fd5b506135099050838263ffffffff6124be16565b9392505050565b600080600061351d61046d565b506001600160701b03169150506000613537600080612b21565b91506000905061355d61355183600263ffffffff61377d16565b84600d54600954613f90565b905061359e6040518060400160405280600b81526020017f6f6d65676120736c61736800000000000000000000000000000000000000000081525082613fce565b6135a88187614099565b9350670de0b6b3a76400006135c3828863ffffffff61377d16565b816135ca57fe5b049450505050915091565b811561371457838315613615576000806135ed613841565b6001600160701b031691506001600160701b0316915061360e868383613a89565b8301925050505b600254600854604080516370a0823160e01b81526001600160a01b039283166004820152905160009392909216916370a0823191602480820192602092909190829003018186803b15801561366957600080fd5b505afa15801561367d573d6000803e3d6000fd5b505050506040513d602081101561369357600080fd5b5051905060006136a9838663ffffffff61377d16565b9050808211156136d1576002546008546136d1916001600160a01b03908116911686846141cd565b6137106040518060400160405280601681526020017f53656e64696e6720736c617368656420546f6b656e730000000000000000000081525082613fce565b5050505b50505050565b801561374e576009548290613735908563ffffffff61377d16565b8161373c57fe5b60098054929091049091039055613778565b600a548290613763908563ffffffff61377d16565b8161376a57fe5b600a80549290910490910390555b505050565b60008115806137985750508082028282828161379557fe5b04145b612516576040805162461bcd60e51b815260206004820152601460248201527f64732d6d6174682d6d756c2d6f766572666c6f77000000000000000000000000604482015290519081900360640190fd5b80820182811015612516576040805162461bcd60e51b815260206004820152601460248201527f64732d6d6174682d6164642d6f766572666c6f77000000000000000000000000604482015290519081900360640190fd5b600080600080600360009054906101000a90046001600160a01b03166001600160a01b0316630902f1ac6040518163ffffffff1660e01b815260040160606040518083038186803b15801561389557600080fd5b505afa1580156138a9573d6000803e3d6000fd5b505050506040513d60608110156138bf57600080fd5b5080516020909101516008549193509150600160a01b900460ff166138e457806138e6565b815b600854909450600160a01b900460ff166139005781613902565b805b925050509091565b600354604080516370a0823160e01b8152306004820152905160009283926001600160a01b03909116916370a0823191602480820192602092909190829003018186803b15801561395a57600080fd5b505afa15801561396e573d6000803e3d6000fd5b505050506040513d602081101561398457600080fd5b5051600354604080516318160ddd60e01b815290519293506000926001600160a01b03909216916318160ddd91600480820192602092909190829003018186803b1580156139d157600080fd5b505afa1580156139e5573d6000803e3d6000fd5b505050506040513d60208110156139fb57600080fd5b50519050801580613a0a575081155b613a2c5780613a1f868463ffffffff61377d16565b81613a2657fe5b04613a2e565b835b95945050505050565b60006003821115613a7a575080600160028204015b81811015613a7457809150600281828581613a6357fe5b040181613a6c57fe5b049050613a4c565b50613a84565b8115613a84575060015b919050565b6000808411613ac95760405162461bcd60e51b815260040180806020018281038252602b815260200180614456602b913960400191505060405180910390fd5b600083118015613ad95750600082115b613b145760405162461bcd60e51b81526004018080602001828103825260288152602001806143eb6028913960400191505060405180910390fd5b6000613b28856103e563ffffffff61377d16565b90506000613b3c828563ffffffff61377d16565b90506000613b6283613b56886103e863ffffffff61377d16565b9063ffffffff6137e916565b9050808281613b6d57fe5b04979650505050505050565b6000818310613b885781613509565b5090919050565b60008715613bb75781613ba8888863ffffffff61377d16565b81613baf57fe5b049050613c19565b6000613bc9888863ffffffff61377d16565b90506000670de0b6b3a7640000613beb6002611ac68a8963ffffffff61377d16565b81613bf257fe5b0490506000613c07878363ffffffff6137e916565b9050808381613c1257fe5b0493505050505b979650505050505050565b6000808085613c39888663ffffffff61377d16565b81613c4057fe5b04905084811115613c6e5784925086613c5f848863ffffffff61377d16565b81613c6657fe5b049150613c75565b8092508391505b5094509492505050565b60006001600160701b038316851115613d7d57600154600354613cc7916001600160a01b039081169116613cc2886001600160701b03881663ffffffff6124be16565b6128a9565b600354600854604080516321913af360e11b8152306004820152600160a01b90920460ff1615156024830152516001600160a01b039092169163432275e6916044808201926060929091908290030181600087803b158015613d2857600080fd5b505af1158015613d3c573d6000803e3d6000fd5b505050506040513d6060811015613d5257600080fd5b5051601080546dffffffffffffffffffffffffffff19166001600160701b0386161790559050613da0565b601080546dffffffffffffffffffffffffffff19166001600160701b0387161790555b83826001600160701b03161015613ead57600254600354613de1916001600160a01b039081169116613cc2876001600160701b03871663ffffffff6124be16565b600354600854604080516321913af360e11b8152306004820152600160a01b90920460ff16156024830152516001600160a01b039092169163432275e6916044808201926060929091908290030181600087803b158015613e4157600080fd5b505af1158015613e55573d6000803e3d6000fd5b505050506040513d6060811015613e6b57600080fd5b5051601080547fffffffff0000000000000000000000000000ffffffffffffffffffffffffffff16600160701b6001600160701b038616021790559050613ee7565b601080547fffffffff0000000000000000000000000000ffffffffffffffffffffffffffff16600160701b6001600160701b038716021790555b601054604080516001600160701b038084168252600160701b909304909216602083015280517f1d96001f313f6446e46c7776b79d231589555627a46fa2388f3220937fc79e519281900390910190a15050505050565b60008715613f575785613ba8838963ffffffff61377d16565b85613f7c88611ac687670de0b6b3a7640000611ad26002848d8c63ffffffff61377d16565b81613f8357fe5b0498975050505050505050565b6000613fa2828563ffffffff6124be16565b613fbd670de0b6b3a76400008590038763ffffffff61377d16565b81613fc457fe5b0495945050505050565b61409582826040516024018080602001838152602001828103825284818151815260200191508051906020019080838360005b83811015614019578181015183820152602001614001565b50505050905090810190601f1680156140465780820380516001836020036101000a031916815260200191505b5060408051601f198184030181529190526020810180516001600160e01b03167f9710a9d000000000000000000000000000000000000000000000000000000000179052935061436292505050565b5050565b6000670de0b6b3a76400008310156141c4576000670de0b6b3a76400006140c88486830363ffffffff61377d16565b816140cf57fe5b600354600854604080516370a0823160e01b81526001600160a01b03928316600482015290519490930494506000939116916370a08231916024808301926020929190829003018186803b15801561412657600080fd5b505afa15801561413a573d6000803e3d6000fd5b505050506040513d602081101561415057600080fd5b50519050808210156141835760035460085461417a916001600160a01b03908116911681856141cd565b600092506141bd565b6003546008546141a1916001600160a01b03908116911681846141cd565b836141b2838363ffffffff6124be16565b816141b957fe5b0492505b5050612516565b50600092915050565b60006060856001600160a01b0316604051806060016040528060258152602001614384602591398051602091820120604080516001600160a01b03808b166024830152891660448201526064808201899052825180830390910181526084909101825292830180516001600160e01b03167fffffffff00000000000000000000000000000000000000000000000000000000909316929092178252518251909182918083835b602083106142925780518252601f199092019160209182019101614273565b6001836020036101000a0380198251168184511680821785525050505050509050019150506000604051808303816000865af19150503d80600081146142f4576040519150601f19603f3d011682016040523d82523d6000602084013e6142f9565b606091505b5091509150818015614327575080511580614327575080806020019051602081101561432457600080fd5b50515b61309e5760405162461bcd60e51b81526004018080602001828103825260228152602001806144136022913960400191505060405180910390fd5b80516a636f6e736f6c652e6c6f67602083016000808483855afa505050505056fe7472616e7366657246726f6d28616464726573732c616464726573732c75696e74323536295a503a204e6f7420656e6f756768206c697175696469747920696e7365727465645a6972636f6e50796c6f6e3a204e6f7420456e6f756768204c6971756964697479556e697377617056324c6962726172793a20494e53554646494349454e545f4c49515549444954595a6972636f6e2050796c6f6e3a205452414e534645525f46524f4d5f4641494c45445a503a20494e53554646494349454e545f4c49515549444954595f4255524e4544556e697377617056324c6962726172793a20494e53554646494349454e545f494e5055545f414d4f554e54a265627a7a723158208fd402355f317f0446a6c94ab9b07f2a3288ef13be90b9b66d3302df23e49fa864736f6c634300051000326080604052600160095534801561001557600080fd5b506040514690806052610f5d823960408051918290036052018220828201825260068352652d34b931b7b760d11b6020938401528151808301835260018152603160f81b908401528151808401919091527f94c6df7cbb14f58e7ac6d9fa315f8346b33ef43dae2423c0e0e94673dd9e65ff818301527fc89efdaa54c0f20c7adf612882df0950f5a951637e0307cdcb4c672f298b8bc6606082015260808101949094523060a0808601919091528151808603909101815260c09094019052825192019190912060045550600780546001600160a01b03191633179055610e5c806101016000396000f3fe608060405234801561001057600080fd5b50600436106101775760003560e01c80637ecebe00116100d8578063b89f59ea1161008c578063dd62ed3e11610066578063dd62ed3e1461041e578063fc0c546a1461044c578063fecf97341461045457610177565b8063b89f59ea146103bd578063c45a0155146103c5578063d505accf146103cd57610177565b80639dc29fac116100bd5780639dc29fac1461035d578063a8aa1b3114610389578063a9059cbb1461039157610177565b80637ecebe001461032f57806395d89b411461035557610177565b8063313ce5671161012f57806340c10f191161011457806340c10f19146102b757806346847794146102e557806370a082311461030957610177565b8063313ce567146102915780633644e515146102af57610177565b806318160ddd1161016057806318160ddd1461023957806323b872dd1461025357806330adf81f1461028957610177565b806306fdde031461017c578063095ea7b3146101f9575b600080fd5b610184610492565b6040805160208082528351818301528351919283929083019185019080838360005b838110156101be5781810151838201526020016101a6565b50505050905090810190601f1680156101eb5780820380516001836020036101000a031916815260200191505b509250505060405180910390f35b6102256004803603604081101561020f57600080fd5b506001600160a01b0381351690602001356104cb565b604080519115158252519081900360200190f35b6102416104e2565b60408051918252519081900360200190f35b6102256004803603606081101561026957600080fd5b506001600160a01b038135811691602081013590911690604001356104e8565b610241610582565b6102996105a6565b6040805160ff9092168252519081900360200190f35b6102416105ab565b6102e3600480360360408110156102cd57600080fd5b506001600160a01b0381351690602001356105b1565b005b6102ed61067f565b604080516001600160a01b039092168252519081900360200190f35b6102416004803603602081101561031f57600080fd5b50356001600160a01b031661068e565b6102416004803603602081101561034557600080fd5b50356001600160a01b03166106a0565b6101846106b2565b6102e36004803603604081101561037357600080fd5b506001600160a01b0381351690602001356106eb565b6102ed6107b0565b610225600480360360408110156103a757600080fd5b506001600160a01b0381351690602001356107bf565b6102256107cc565b6102ed6107dc565b6102e3600480360360e08110156103e357600080fd5b506001600160a01b03813581169160208101359091169060408101359060608101359060ff6080820135169060a08101359060c001356107eb565b6102416004803603604081101561043457600080fd5b506001600160a01b0381358116916020013516610a13565b6102ed610a30565b6102e36004803603608081101561046a57600080fd5b506001600160a01b038135811691602081013582169160408201351690606001351515610a3f565b6040518060400160405280600681526020017f5a6972636f6e000000000000000000000000000000000000000000000000000081525081565b60006104d8338484610b27565b5060015b92915050565b60005481565b6001600160a01b03831660009081526002602090815260408083203384529091528120546000191461056d576001600160a01b0384166000908152600260209081526040808320338452909152902054610548908363ffffffff610b8916565b6001600160a01b03851660009081526002602090815260408083203384529091529020555b610578848484610be1565b5060019392505050565b7f6e71edae12b1b97f4d1f60370fef10105fa2faae0126114a169c64845d6126c981565b601281565b60045481565b600954600114610608576040805162461bcd60e51b815260206004820152601160248201527f556e697377617056323a204c4f434b4544000000000000000000000000000000604482015290519081900360640190fd5b60006009556008546001600160a01b0316331461066c576040805162461bcd60e51b815260206004820152601a60248201527f5a6972636f6e506f6f6c546f6b656e3a20464f5242494444454e000000000000604482015290519081900360640190fd5b6106768282610c9b565b50506001600955565b6008546001600160a01b031681565b60016020526000908152604090205481565b60036020526000908152604090205481565b6040518060400160405280600381526020017f5a5054000000000000000000000000000000000000000000000000000000000081525081565b600954600114610742576040805162461bcd60e51b815260206004820152601160248201527f556e697377617056323a204c4f434b4544000000000000000000000000000000604482015290519081900360640190fd5b60006009556008546001600160a01b031633146107a6576040805162461bcd60e51b815260206004820152601a60248201527f5a6972636f6e506f6f6c546f6b656e3a20464f5242494444454e000000000000604482015290519081900360640190fd5b6106768282610d31565b6006546001600160a01b031681565b60006104d8338484610be1565b600654600160a01b900460ff1681565b6007546001600160a01b031681565b42841015610840576040805162461bcd60e51b815260206004820152601260248201527f556e697377617056323a20455850495245440000000000000000000000000000604482015290519081900360640190fd5b6004546001600160a01b0380891660008181526003602090815260408083208054600180820190925582517f6e71edae12b1b97f4d1f60370fef10105fa2faae0126114a169c64845d6126c98186015280840196909652958d166060860152608085018c905260a085019590955260c08085018b90528151808603909101815260e0850182528051908301207f19010000000000000000000000000000000000000000000000000000000000006101008601526101028501969096526101228085019690965280518085039096018652610142840180825286519683019690962095839052610162840180825286905260ff89166101828501526101a284018890526101c28401879052519193926101e280820193601f1981019281900390910190855afa158015610976573d6000803e3d6000fd5b5050604051601f1901519150506001600160a01b038116158015906109ac5750886001600160a01b0316816001600160a01b0316145b6109fd576040805162461bcd60e51b815260206004820152601c60248201527f556e697377617056323a20494e56414c49445f5349474e415455524500000000604482015290519081900360640190fd5b610a08898989610b27565b505050505050505050565b600260209081526000928352604080842090915290825290205481565b6005546001600160a01b031681565b6007546001600160a01b03163314610a9e576040805162461bcd60e51b815260206004820152601a60248201527f5a6972636f6e506f6f6c546f6b656e3a20464f5242494444454e000000000000604482015290519081900360640190fd5b600580546001600160a01b039586167fffffffffffffffffffffffff00000000000000000000000000000000000000009182161790915560068054921515600160a01b027fffffffffffffffffffffff00ffffffffffffffffffffffffffffffffffffffff95871693831693909317949094169190911790925560088054919093169116179055565b6001600160a01b03808416600081815260026020908152604080832094871680845294825291829020859055815185815291517f8c5be1e5ebec7d5bd14f71427d1e84f3dd0314c0f7b2291e5b200ac8c7c3b9259281900390910190a3505050565b808203828111156104dc576040805162461bcd60e51b815260206004820152601560248201527f64732d6d6174682d7375622d756e646572666c6f770000000000000000000000604482015290519081900360640190fd5b6001600160a01b038316600090815260016020526040902054610c0a908263ffffffff610b8916565b6001600160a01b038085166000908152600160205260408082209390935590841681522054610c3f908263ffffffff610dcf16565b6001600160a01b0380841660008181526001602090815260409182902094909455805185815290519193928716927fddf252ad1be2c89b69c2b068fc378daa952ba7f163c4a11628f55a4df523b3ef92918290030190a3505050565b600054610cae908263ffffffff610dcf16565b60009081556001600160a01b038316815260016020526040902054610cd9908263ffffffff610dcf16565b6001600160a01b03831660008181526001602090815260408083209490945583518581529351929391927fddf252ad1be2c89b69c2b068fc378daa952ba7f163c4a11628f55a4df523b3ef9281900390910190a35050565b6001600160a01b038216600090815260016020526040902054610d5a908263ffffffff610b8916565b6001600160a01b03831660009081526001602052604081209190915554610d87908263ffffffff610b8916565b60009081556040805183815290516001600160a01b038516917fddf252ad1be2c89b69c2b068fc378daa952ba7f163c4a11628f55a4df523b3ef919081900360200190a35050565b808201828110156104dc576040805162461bcd60e51b815260206004820152601460248201527f64732d6d6174682d6164642d6f766572666c6f77000000000000000000000000604482015290519081900360640190fdfea265627a7a7231582097cfabbd5d0a98c07965e1555459c313940f9decd74fc1447a47d2c5abf7389464736f6c63430005100032454950373132446f6d61696e28737472696e67206e616d652c737472696e672076657273696f6e2c75696e7432353620636861696e49642c6164647265737320766572696679696e67436f6e747261637429a265627a7a72315820cfe58f9aba0a1b9412824e5b131ed61c9188f1de03fbc56ff939eb0b6fe0de7064736f6c63430005100032",
  "devdoc": {
    "methods": {}
  },
  "userdoc": {
    "methods": {}
  },
  "storageLayout": {
    "storage": [
      {
        "astId": 5319,
        "contract": "contracts/ZirconPylonFactory.sol:ZirconPylonFactory",
        "label": "getPylon",
        "offset": 0,
        "slot": "0",
        "type": "t_mapping(t_address,t_mapping(t_address,t_address))"
      },
      {
        "astId": 5322,
        "contract": "contracts/ZirconPylonFactory.sol:ZirconPylonFactory",
        "label": "allPylons",
        "offset": 0,
        "slot": "1",
        "type": "t_array(t_address)dyn_storage"
      },
      {
        "astId": 5324,
        "contract": "contracts/ZirconPylonFactory.sol:ZirconPylonFactory",
        "label": "factory",
        "offset": 0,
        "slot": "2",
        "type": "t_address"
      },
      {
        "astId": 5326,
        "contract": "contracts/ZirconPylonFactory.sol:ZirconPylonFactory",
        "label": "energyFactory",
        "offset": 0,
        "slot": "3",
        "type": "t_address"
      },
      {
        "astId": 5328,
        "contract": "contracts/ZirconPylonFactory.sol:ZirconPylonFactory",
        "label": "maximumPercentageSync",
        "offset": 0,
        "slot": "4",
        "type": "t_uint256"
      },
      {
        "astId": 5330,
        "contract": "contracts/ZirconPylonFactory.sol:ZirconPylonFactory",
        "label": "dynamicFeePercentage",
        "offset": 0,
        "slot": "5",
        "type": "t_uint256"
      }
    ],
    "types": {
      "t_address": {
        "encoding": "inplace",
        "label": "address",
        "numberOfBytes": "20"
      },
      "t_array(t_address)dyn_storage": {
        "base": "t_address",
        "encoding": "dynamic_array",
        "label": "address[]",
        "numberOfBytes": "32"
      },
      "t_mapping(t_address,t_address)": {
        "encoding": "mapping",
        "key": "t_address",
        "label": "mapping(address => address)",
        "numberOfBytes": "32",
        "value": "t_address"
      },
      "t_mapping(t_address,t_mapping(t_address,t_address))": {
        "encoding": "mapping",
        "key": "t_address",
        "label": "mapping(address => mapping(address => address))",
        "numberOfBytes": "32",
        "value": "t_mapping(t_address,t_address)"
      },
      "t_uint256": {
        "encoding": "inplace",
        "label": "uint256",
        "numberOfBytes": "32"
      }
    }
  }
}